{"abi":[{"type":"function","name":"buildEnforcedOptions","inputs":[{"name":"targetEndpointId","type":"uint32","internalType":"uint32"},{"name":"options","type":"bytes","internalType":"bytes"}],"outputs":[{"name":"","type":"tuple[]","internalType":"struct EnforcedOptionParam[]","components":[{"name":"eid","type":"uint32","internalType":"uint32"},{"name":"msgType","type":"uint16","internalType":"uint16"},{"name":"options","type":"bytes","internalType":"bytes"}]}],"stateMutability":"pure"},{"type":"function","name":"buildLzReceiveExecutorConfig","inputs":[{"name":"gasLimit","type":"uint128","internalType":"uint128"},{"name":"value","type":"uint128","internalType":"uint128"}],"outputs":[{"name":"","type":"bytes","internalType":"bytes"}],"stateMutability":"pure"},{"type":"function","name":"getOnchainLzComposeEnforcedOptions","inputs":[{"name":"bridge","type":"IexecLayerZeroBridge","internalType":"contract IexecLayerZeroBridge"},{"name":"endpointId","type":"uint32","internalType":"uint32"}],"outputs":[{"name":"","type":"bytes","internalType":"bytes"}],"stateMutability":"view"},{"type":"function","name":"getOnchainLzReceiveEnforcedOptions","inputs":[{"name":"bridge","type":"IexecLayerZeroBridge","internalType":"contract IexecLayerZeroBridge"},{"name":"endpointId","type":"uint32","internalType":"uint32"}],"outputs":[{"name":"","type":"bytes","internalType":"bytes"}],"stateMutability":"view"},{"type":"function","name":"matchesOnchainEnforcedOptions","inputs":[{"name":"bridge","type":"IexecLayerZeroBridge","internalType":"contract IexecLayerZeroBridge"},{"name":"endpointId","type":"uint32","internalType":"uint32"},{"name":"options","type":"bytes","internalType":"bytes"}],"outputs":[{"name":"","type":"bool","internalType":"bool"}],"stateMutability":"view"},{"type":"error","name":"InvalidOptionType","inputs":[{"name":"optionType","type":"uint16","internalType":"uint16"}]},{"type":"error","name":"SafeCastOverflowedUintDowncast","inputs":[{"name":"bits","type":"uint8","internalType":"uint8"},{"name":"value","type":"uint256","internalType":"uint256"}]}],"bytecode":{"object":"0x61092c610035600b8282823980515f1a60731461002957634e487b7160e01b5f525f60045260245ffd5b305f52607381538281f3fe7300000000000000000000000000000000000000003014608060405260043610610060575f3560e01c806316d75a1d14610064578063b37e72341461008d578063c1ac6cfd146100ad578063e9eb836d146100d0578063ebcffebd146100e3575b5f80fd5b6100776100723660046105af565b6100f6565b6040516100849190610647565b60405180910390f35b6100a061009b3660046106e6565b6101cf565b6040516100849190610717565b6100c06100bb366004610729565b61024f565b6040519015158152602001610084565b6100a06100de3660046106e6565b61029e565b6100a06100f1366004610799565b6102da565b60408051600280825260608281019093525f9190816020015b60408051606080820183525f80835260208301529181019190915281526020019060019003908161010f57905050905060405180606001604052808563ffffffff168152602001600161ffff16815260200184815250815f81518110610177576101776107c1565b602002602001018190525060405180606001604052808563ffffffff168152602001600261ffff16815260200184815250816001815181106101bb576101bb6107c1565b602090810291909101015290505b92915050565b604051635535d46160e01b815263ffffffff82166004820152600260248201526060906001600160a01b03841690635535d461906044015b5f60405180830381865afa158015610221573d5f803e3d5ffd5b505050506040513d5f823e601f3d908101601f1916820160405261024891908101906107d5565b9392505050565b5f8061025b858561029e565b90505f61026886866101cf565b905083805190602001208280519060200120148015610294575083805190602001208180519060200120145b9695505050505050565b604051635535d46160e01b815263ffffffff82166004820152600160248201526060906001600160a01b03841690635535d46190604401610207565b6060610248838361030760408051600360f01b602082015281516002818303018152602290910190915290565b91906060836003610318825f610369565b61ffff16146103505761032b815f610369565b604051633a51740d60e01b815261ffff90911660048201526024015b60405180910390fd5b5f61035b85856103c5565b90506102948660018361043e565b5f61037582600261085b565b835110156103bc5760405162461bcd60e51b8152602060048201526014602482015273746f55696e7431365f6f75744f66426f756e647360601b6044820152606401610347565b50016002015190565b60606001600160801b0382161561040d57604080516001600160801b0319608086811b8216602084015285901b16603082015201604051602081830303815290604052610248565b6040516001600160801b0319608085901b166020820152603001604051602081830303815290604052905092915050565b606083600361044d825f610369565b61ffff16146104605761032b815f610369565b84600161046d85516104a7565b61047890600161086e565b868660405160200161048e959493929190610890565b6040516020818303038152906040529150509392505050565b5f61ffff8211156104d5576040516306dfcc6560e41b81526010600482015260248101839052604401610347565b5090565b803563ffffffff811681146104ec575f80fd5b919050565b634e487b7160e01b5f52604160045260245ffd5b604051601f8201601f1916810167ffffffffffffffff8111828210171561052e5761052e6104f1565b604052919050565b5f67ffffffffffffffff82111561054f5761054f6104f1565b50601f01601f191660200190565b5f82601f83011261056c575f80fd5b813561057f61057a82610536565b610505565b818152846020838601011115610593575f80fd5b816020850160208301375f918101602001919091529392505050565b5f80604083850312156105c0575f80fd5b6105c9836104d9565b9150602083013567ffffffffffffffff8111156105e4575f80fd5b6105f08582860161055d565b9150509250929050565b5f5b838110156106145781810151838201526020016105fc565b50505f910152565b5f81518084526106338160208601602086016105fa565b601f01601f19169290920160200192915050565b5f60208083018184528085518083526040925060408601915060408160051b8701018488015f5b838110156106c257888303603f190185528151805163ffffffff1684528781015161ffff168885015286015160608785018190526106ae8186018361061c565b96890196945050509086019060010161066e565b509098975050505050505050565b80356001600160a01b03811681146104ec575f80fd5b5f80604083850312156106f7575f80fd5b610700836106d0565b915061070e602084016104d9565b90509250929050565b602081525f610248602083018461061c565b5f805f6060848603121561073b575f80fd5b610744846106d0565b9250610752602085016104d9565b9150604084013567ffffffffffffffff81111561076d575f80fd5b6107798682870161055d565b9150509250925092565b80356001600160801b03811681146104ec575f80fd5b5f80604083850312156107aa575f80fd5b6107b383610783565b915061070e60208401610783565b634e487b7160e01b5f52603260045260245ffd5b5f602082840312156107e5575f80fd5b815167ffffffffffffffff8111156107fb575f80fd5b8201601f8101841361080b575f80fd5b805161081961057a82610536565b81815285602083850101111561082d575f80fd5b61083e8260208301602086016105fa565b95945050505050565b634e487b7160e01b5f52601160045260245ffd5b808201808211156101c9576101c9610847565b61ffff81811683821601908082111561088957610889610847565b5092915050565b5f86516108a1818460208b016105fa565b6001600160f81b031960f888811b82169285019283526001600160f01b031960f089901b16600184015286901b16600382015283516108e78160048401602088016105fa565b0160040197965050505050505056fea2646970667358221220206f776e55a8accad8348597f64e07fcce766c6e100f8965c3206c2e08b6f2b264736f6c63430008170033","linkReferences":{}},"methodIdentifiers":{"buildEnforcedOptions(uint32,bytes)":"16d75a1d","buildLzReceiveExecutorConfig(uint128,uint128)":"ebcffebd","getOnchainLzComposeEnforcedOptions(IexecLayerZeroBridge,uint32)":"b37e7234","getOnchainLzReceiveEnforcedOptions(IexecLayerZeroBridge,uint32)":"e9eb836d","matchesOnchainEnforcedOptions(IexecLayerZeroBridge,uint32,bytes)":"c1ac6cfd"},"storageLayout":{"storage":[],"types":{}},"id":187}