{"abi":[{"type":"constructor","inputs":[],"stateMutability":"nonpayable"},{"type":"function","name":"DEFAULT_ADMIN_ROLE","inputs":[],"outputs":[{"name":"","type":"bytes32","internalType":"bytes32"}],"stateMutability":"view"},{"type":"function","name":"DOMAIN_SEPARATOR","inputs":[],"outputs":[{"name":"","type":"bytes32","internalType":"bytes32"}],"stateMutability":"view"},{"type":"function","name":"TOKEN_BRIDGE_ROLE","inputs":[],"outputs":[{"name":"","type":"bytes32","internalType":"bytes32"}],"stateMutability":"view"},{"type":"function","name":"UPGRADER_ROLE","inputs":[],"outputs":[{"name":"","type":"bytes32","internalType":"bytes32"}],"stateMutability":"view"},{"type":"function","name":"UPGRADE_INTERFACE_VERSION","inputs":[],"outputs":[{"name":"","type":"string","internalType":"string"}],"stateMutability":"view"},{"type":"function","name":"acceptDefaultAdminTransfer","inputs":[],"outputs":[],"stateMutability":"nonpayable"},{"type":"function","name":"allowance","inputs":[{"name":"owner","type":"address","internalType":"address"},{"name":"spender","type":"address","internalType":"address"}],"outputs":[{"name":"","type":"uint256","internalType":"uint256"}],"stateMutability":"view"},{"type":"function","name":"approve","inputs":[{"name":"spender","type":"address","internalType":"address"},{"name":"value","type":"uint256","internalType":"uint256"}],"outputs":[{"name":"","type":"bool","internalType":"bool"}],"stateMutability":"nonpayable"},{"type":"function","name":"approveAndCall","inputs":[{"name":"spender","type":"address","internalType":"address"},{"name":"value","type":"uint256","internalType":"uint256"},{"name":"data","type":"bytes","internalType":"bytes"}],"outputs":[],"stateMutability":"nonpayable"},{"type":"function","name":"balanceOf","inputs":[{"name":"account","type":"address","internalType":"address"}],"outputs":[{"name":"","type":"uint256","internalType":"uint256"}],"stateMutability":"view"},{"type":"function","name":"beginDefaultAdminTransfer","inputs":[{"name":"newAdmin","type":"address","internalType":"address"}],"outputs":[],"stateMutability":"nonpayable"},{"type":"function","name":"cancelDefaultAdminTransfer","inputs":[],"outputs":[],"stateMutability":"nonpayable"},{"type":"function","name":"changeDefaultAdminDelay","inputs":[{"name":"newDelay","type":"uint48","internalType":"uint48"}],"outputs":[],"stateMutability":"nonpayable"},{"type":"function","name":"crosschainBurn","inputs":[{"name":"from","type":"address","internalType":"address"},{"name":"value","type":"uint256","internalType":"uint256"}],"outputs":[],"stateMutability":"nonpayable"},{"type":"function","name":"crosschainMint","inputs":[{"name":"to","type":"address","internalType":"address"},{"name":"value","type":"uint256","internalType":"uint256"}],"outputs":[],"stateMutability":"nonpayable"},{"type":"function","name":"decimals","inputs":[],"outputs":[{"name":"","type":"uint8","internalType":"uint8"}],"stateMutability":"pure"},{"type":"function","name":"defaultAdmin","inputs":[],"outputs":[{"name":"","type":"address","internalType":"address"}],"stateMutability":"view"},{"type":"function","name":"defaultAdminDelay","inputs":[],"outputs":[{"name":"","type":"uint48","internalType":"uint48"}],"stateMutability":"view"},{"type":"function","name":"defaultAdminDelayIncreaseWait","inputs":[],"outputs":[{"name":"","type":"uint48","internalType":"uint48"}],"stateMutability":"view"},{"type":"function","name":"eip712Domain","inputs":[],"outputs":[{"name":"fields","type":"bytes1","internalType":"bytes1"},{"name":"name","type":"string","internalType":"string"},{"name":"version","type":"string","internalType":"string"},{"name":"chainId","type":"uint256","internalType":"uint256"},{"name":"verifyingContract","type":"address","internalType":"address"},{"name":"salt","type":"bytes32","internalType":"bytes32"},{"name":"extensions","type":"uint256[]","internalType":"uint256[]"}],"stateMutability":"view"},{"type":"function","name":"getRoleAdmin","inputs":[{"name":"role","type":"bytes32","internalType":"bytes32"}],"outputs":[{"name":"","type":"bytes32","internalType":"bytes32"}],"stateMutability":"view"},{"type":"function","name":"grantRole","inputs":[{"name":"role","type":"bytes32","internalType":"bytes32"},{"name":"account","type":"address","internalType":"address"}],"outputs":[],"stateMutability":"nonpayable"},{"type":"function","name":"hasRole","inputs":[{"name":"role","type":"bytes32","internalType":"bytes32"},{"name":"account","type":"address","internalType":"address"}],"outputs":[{"name":"","type":"bool","internalType":"bool"}],"stateMutability":"view"},{"type":"function","name":"initialize","inputs":[{"name":"name","type":"string","internalType":"string"},{"name":"symbol","type":"string","internalType":"string"},{"name":"initialAdmin","type":"address","internalType":"address"},{"name":"initialUpgrader","type":"address","internalType":"address"}],"outputs":[],"stateMutability":"nonpayable"},{"type":"function","name":"name","inputs":[],"outputs":[{"name":"","type":"string","internalType":"string"}],"stateMutability":"view"},{"type":"function","name":"nonces","inputs":[{"name":"owner","type":"address","internalType":"address"}],"outputs":[{"name":"","type":"uint256","internalType":"uint256"}],"stateMutability":"view"},{"type":"function","name":"owner","inputs":[],"outputs":[{"name":"","type":"address","internalType":"address"}],"stateMutability":"view"},{"type":"function","name":"pendingDefaultAdmin","inputs":[],"outputs":[{"name":"newAdmin","type":"address","internalType":"address"},{"name":"schedule","type":"uint48","internalType":"uint48"}],"stateMutability":"view"},{"type":"function","name":"pendingDefaultAdminDelay","inputs":[],"outputs":[{"name":"newDelay","type":"uint48","internalType":"uint48"},{"name":"schedule","type":"uint48","internalType":"uint48"}],"stateMutability":"view"},{"type":"function","name":"permit","inputs":[{"name":"owner","type":"address","internalType":"address"},{"name":"spender","type":"address","internalType":"address"},{"name":"value","type":"uint256","internalType":"uint256"},{"name":"deadline","type":"uint256","internalType":"uint256"},{"name":"v","type":"uint8","internalType":"uint8"},{"name":"r","type":"bytes32","internalType":"bytes32"},{"name":"s","type":"bytes32","internalType":"bytes32"}],"outputs":[],"stateMutability":"nonpayable"},{"type":"function","name":"proxiableUUID","inputs":[],"outputs":[{"name":"","type":"bytes32","internalType":"bytes32"}],"stateMutability":"view"},{"type":"function","name":"renounceRole","inputs":[{"name":"role","type":"bytes32","internalType":"bytes32"},{"name":"account","type":"address","internalType":"address"}],"outputs":[],"stateMutability":"nonpayable"},{"type":"function","name":"revokeRole","inputs":[{"name":"role","type":"bytes32","internalType":"bytes32"},{"name":"account","type":"address","internalType":"address"}],"outputs":[],"stateMutability":"nonpayable"},{"type":"function","name":"rollbackDefaultAdminDelay","inputs":[],"outputs":[],"stateMutability":"nonpayable"},{"type":"function","name":"supportsInterface","inputs":[{"name":"interfaceId","type":"bytes4","internalType":"bytes4"}],"outputs":[{"name":"","type":"bool","internalType":"bool"}],"stateMutability":"view"},{"type":"function","name":"symbol","inputs":[],"outputs":[{"name":"","type":"string","internalType":"string"}],"stateMutability":"view"},{"type":"function","name":"totalSupply","inputs":[],"outputs":[{"name":"","type":"uint256","internalType":"uint256"}],"stateMutability":"view"},{"type":"function","name":"transfer","inputs":[{"name":"to","type":"address","internalType":"address"},{"name":"value","type":"uint256","internalType":"uint256"}],"outputs":[{"name":"","type":"bool","internalType":"bool"}],"stateMutability":"nonpayable"},{"type":"function","name":"transferFrom","inputs":[{"name":"from","type":"address","internalType":"address"},{"name":"to","type":"address","internalType":"address"},{"name":"value","type":"uint256","internalType":"uint256"}],"outputs":[{"name":"","type":"bool","internalType":"bool"}],"stateMutability":"nonpayable"},{"type":"function","name":"upgradeToAndCall","inputs":[{"name":"newImplementation","type":"address","internalType":"address"},{"name":"data","type":"bytes","internalType":"bytes"}],"outputs":[],"stateMutability":"payable"},{"type":"event","name":"Approval","inputs":[{"name":"owner","type":"address","indexed":true,"internalType":"address"},{"name":"spender","type":"address","indexed":true,"internalType":"address"},{"name":"value","type":"uint256","indexed":false,"internalType":"uint256"}],"anonymous":false},{"type":"event","name":"CrosschainBurn","inputs":[{"name":"from","type":"address","indexed":true,"internalType":"address"},{"name":"amount","type":"uint256","indexed":false,"internalType":"uint256"},{"name":"sender","type":"address","indexed":true,"internalType":"address"}],"anonymous":false},{"type":"event","name":"CrosschainMint","inputs":[{"name":"to","type":"address","indexed":true,"internalType":"address"},{"name":"amount","type":"uint256","indexed":false,"internalType":"uint256"},{"name":"sender","type":"address","indexed":true,"internalType":"address"}],"anonymous":false},{"type":"event","name":"DefaultAdminDelayChangeCanceled","inputs":[],"anonymous":false},{"type":"event","name":"DefaultAdminDelayChangeScheduled","inputs":[{"name":"newDelay","type":"uint48","indexed":false,"internalType":"uint48"},{"name":"effectSchedule","type":"uint48","indexed":false,"internalType":"uint48"}],"anonymous":false},{"type":"event","name":"DefaultAdminTransferCanceled","inputs":[],"anonymous":false},{"type":"event","name":"DefaultAdminTransferScheduled","inputs":[{"name":"newAdmin","type":"address","indexed":true,"internalType":"address"},{"name":"acceptSchedule","type":"uint48","indexed":false,"internalType":"uint48"}],"anonymous":false},{"type":"event","name":"EIP712DomainChanged","inputs":[],"anonymous":false},{"type":"event","name":"Initialized","inputs":[{"name":"version","type":"uint64","indexed":false,"internalType":"uint64"}],"anonymous":false},{"type":"event","name":"RoleAdminChanged","inputs":[{"name":"role","type":"bytes32","indexed":true,"internalType":"bytes32"},{"name":"previousAdminRole","type":"bytes32","indexed":true,"internalType":"bytes32"},{"name":"newAdminRole","type":"bytes32","indexed":true,"internalType":"bytes32"}],"anonymous":false},{"type":"event","name":"RoleGranted","inputs":[{"name":"role","type":"bytes32","indexed":true,"internalType":"bytes32"},{"name":"account","type":"address","indexed":true,"internalType":"address"},{"name":"sender","type":"address","indexed":true,"internalType":"address"}],"anonymous":false},{"type":"event","name":"RoleRevoked","inputs":[{"name":"role","type":"bytes32","indexed":true,"internalType":"bytes32"},{"name":"account","type":"address","indexed":true,"internalType":"address"},{"name":"sender","type":"address","indexed":true,"internalType":"address"}],"anonymous":false},{"type":"event","name":"Transfer","inputs":[{"name":"from","type":"address","indexed":true,"internalType":"address"},{"name":"to","type":"address","indexed":true,"internalType":"address"},{"name":"value","type":"uint256","indexed":false,"internalType":"uint256"}],"anonymous":false},{"type":"event","name":"Upgraded","inputs":[{"name":"implementation","type":"address","indexed":true,"internalType":"address"}],"anonymous":false},{"type":"error","name":"AccessControlBadConfirmation","inputs":[]},{"type":"error","name":"AccessControlEnforcedDefaultAdminDelay","inputs":[{"name":"schedule","type":"uint48","internalType":"uint48"}]},{"type":"error","name":"AccessControlEnforcedDefaultAdminRules","inputs":[]},{"type":"error","name":"AccessControlInvalidDefaultAdmin","inputs":[{"name":"defaultAdmin","type":"address","internalType":"address"}]},{"type":"error","name":"AccessControlUnauthorizedAccount","inputs":[{"name":"account","type":"address","internalType":"address"},{"name":"neededRole","type":"bytes32","internalType":"bytes32"}]},{"type":"error","name":"AddressEmptyCode","inputs":[{"name":"target","type":"address","internalType":"address"}]},{"type":"error","name":"ECDSAInvalidSignature","inputs":[]},{"type":"error","name":"ECDSAInvalidSignatureLength","inputs":[{"name":"length","type":"uint256","internalType":"uint256"}]},{"type":"error","name":"ECDSAInvalidSignatureS","inputs":[{"name":"s","type":"bytes32","internalType":"bytes32"}]},{"type":"error","name":"ERC1967InvalidImplementation","inputs":[{"name":"implementation","type":"address","internalType":"address"}]},{"type":"error","name":"ERC1967NonPayable","inputs":[]},{"type":"error","name":"ERC20InsufficientAllowance","inputs":[{"name":"spender","type":"address","internalType":"address"},{"name":"allowance","type":"uint256","internalType":"uint256"},{"name":"needed","type":"uint256","internalType":"uint256"}]},{"type":"error","name":"ERC20InsufficientBalance","inputs":[{"name":"sender","type":"address","internalType":"address"},{"name":"balance","type":"uint256","internalType":"uint256"},{"name":"needed","type":"uint256","internalType":"uint256"}]},{"type":"error","name":"ERC20InvalidApprover","inputs":[{"name":"approver","type":"address","internalType":"address"}]},{"type":"error","name":"ERC20InvalidReceiver","inputs":[{"name":"receiver","type":"address","internalType":"address"}]},{"type":"error","name":"ERC20InvalidSender","inputs":[{"name":"sender","type":"address","internalType":"address"}]},{"type":"error","name":"ERC20InvalidSpender","inputs":[{"name":"spender","type":"address","internalType":"address"}]},{"type":"error","name":"ERC2612ExpiredSignature","inputs":[{"name":"deadline","type":"uint256","internalType":"uint256"}]},{"type":"error","name":"ERC2612InvalidSigner","inputs":[{"name":"signer","type":"address","internalType":"address"},{"name":"owner","type":"address","internalType":"address"}]},{"type":"error","name":"FailedCall","inputs":[]},{"type":"error","name":"InvalidAccountNonce","inputs":[{"name":"account","type":"address","internalType":"address"},{"name":"currentNonce","type":"uint256","internalType":"uint256"}]},{"type":"error","name":"InvalidInitialization","inputs":[]},{"type":"error","name":"NotInitializing","inputs":[]},{"type":"error","name":"SafeCastOverflowedUintDowncast","inputs":[{"name":"bits","type":"uint8","internalType":"uint8"},{"name":"value","type":"uint256","internalType":"uint256"}]},{"type":"error","name":"UUPSUnauthorizedCallContext","inputs":[]},{"type":"error","name":"UUPSUnsupportedProxiableUUID","inputs":[{"name":"slot","type":"bytes32","internalType":"bytes32"}]}],"bytecode":{"object":"0x60a06040523060805234801562000014575f80fd5b506200001f62000025565b620000d9565b7ff0c57e16840df040f15088dc2f81fe391c3923bec73e23a9662efc9c229c6a00805468010000000000000000900460ff1615620000765760405163f92ee8a960e01b815260040160405180910390fd5b80546001600160401b0390811614620000d65780546001600160401b0319166001600160401b0390811782556040519081527fc7f505b2f371ae2175ee4913f4499e1f2633a7b5936321eed1cdaeb6115181d29060200160405180910390a15b50565b608051612b9b620001005f395f81816112ea0152818161131301526114740152612b9b5ff3fe608060405260043610610233575f3560e01c806384b0196e11610129578063ad3cb1cc116100a8578063d505accf1161006d578063d505accf146106b4578063d547741f146106d3578063d602b9fd146106f2578063dd62ed3e14610706578063f72c0d8b14610725575f80fd5b8063ad3cb1cc14610603578063cae9ca5114610633578063cc8463c814610652578063cefc142914610666578063cf6eefb71461067a575f80fd5b806395d89b41116100ee57806395d89b4114610557578063a1eda53c1461056b578063a217fddf1461059e578063a9059cbb146105b1578063a94ea30c146105d0575f80fd5b806384b0196e146104b257806384ef8ffc146104d95780638da5cb5b146105055780638f15b4141461051957806391d1485414610538575f80fd5b80632f2ff15d116101b557806352d1902d1161017a57806352d1902d14610422578063634e93da14610436578063649a5ec71461045557806370a08231146104745780637ecebe0014610493575f80fd5b80632f2ff15d146103a2578063313ce567146103c15780633644e515146103dc57806336568abe146103f05780634f1ef2861461040f575f80fd5b806318160ddd116101fb57806318160ddd146102e957806318bf50771461032657806323b872dd14610345578063248a9ca3146103645780632b8c49e314610383575f80fd5b806301ffc9a714610237578063022d63fb1461026b57806306fdde0314610293578063095ea7b3146102b45780630aa6220b146102d3575b5f80fd5b348015610242575f80fd5b506102566102513660046123e5565b610758565b60405190151581526020015b60405180910390f35b348015610276575f80fd5b50620697805b60405165ffffffffffff9091168152602001610262565b34801561029e575f80fd5b506102a7610768565b6040516102629190612459565b3480156102bf575f80fd5b506102566102ce366004612486565b61080d565b3480156102de575f80fd5b506102e7610824565b005b3480156102f4575f80fd5b507f52c63247e1f47db19d5ce0460030c497f067ca4cebf71ba98eeadabe20bace02545b604051908152602001610262565b348015610331575f80fd5b506102e7610340366004612486565b610839565b348015610350575f80fd5b5061025661035f3660046124ae565b610891565b34801561036f575f80fd5b5061031861037e3660046124e7565b6108b6565b34801561038e575f80fd5b506102e761039d366004612486565b6108d6565b3480156103ad575f80fd5b506102e76103bc3660046124fe565b610926565b3480156103cc575f80fd5b5060405160098152602001610262565b3480156103e7575f80fd5b50610318610952565b3480156103fb575f80fd5b506102e761040a3660046124fe565b610960565b6102e761041d3660046125af565b610a27565b34801561042d575f80fd5b50610318610a42565b348015610441575f80fd5b506102e761045036600461260d565b610a5d565b348015610460575f80fd5b506102e761046f366004612626565b610a70565b34801561047f575f80fd5b5061031861048e36600461260d565b610a83565b34801561049e575f80fd5b506103186104ad36600461260d565b610ab3565b3480156104bd575f80fd5b506104c6610abd565b604051610262979695949392919061264b565b3480156104e4575f80fd5b506104ed610b66565b6040516001600160a01b039091168152602001610262565b348015610510575f80fd5b506104ed610b81565b348015610524575f80fd5b506102e7610533366004612700565b610b8a565b348015610543575f80fd5b506102566105523660046124fe565b610ccd565b348015610562575f80fd5b506102a7610d03565b348015610576575f80fd5b5061057f610d41565b6040805165ffffffffffff938416815292909116602083015201610262565b3480156105a9575f80fd5b506103185f81565b3480156105bc575f80fd5b506102566105cb366004612486565b610db0565b3480156105db575f80fd5b506103187fd7c4527c99f13bf6a80d3bc15ebce76f7f8256ab4fbf63363b10858db314c97881565b34801561060e575f80fd5b506102a7604051806040016040528060058152602001640352e302e360dc1b81525081565b34801561063e575f80fd5b506102e761064d366004612780565b610dbd565b34801561065d575f80fd5b5061027c610e34565b348015610671575f80fd5b506102e7610eaf565b348015610685575f80fd5b5061068e610eee565b604080516001600160a01b03909316835265ffffffffffff909116602083015201610262565b3480156106bf575f80fd5b506102e76106ce366004612800565b610f1b565b3480156106de575f80fd5b506102e76106ed3660046124fe565b611070565b3480156106fd575f80fd5b506102e7611098565b348015610711575f80fd5b5061031861072036600461286d565b6110aa565b348015610730575f80fd5b506103187f189ab7a9244df0848122154315af71fe140f3db0fe014031783b0946b8c9d2e381565b5f610762826110f3565b92915050565b60605f5f80516020612acf8339815191525b905080600301805461078b90612895565b80601f01602080910402602001604051908101604052809291908181526020018280546107b790612895565b80156108025780601f106107d957610100808354040283529160200191610802565b820191905f5260205f20905b8154815290600101906020018083116107e557829003601f168201915b505050505091505090565b5f3361081a818585611117565b5060019392505050565b5f61082e81611124565b61083661112e565b50565b6108423361113a565b61084c8282611164565b60405181815233906001600160a01b038416907fde22baff038e3a3e08407cbdf617deed74e869a7ba517df611e33131c6e6ea04906020015b60405180910390a35050565b5f3361089e858285611198565b6108a98585856111f6565b60019150505b9392505050565b5f9081525f80516020612b4f833981519152602052604090206001015490565b6108df3361113a565b6108e98282611253565b60405181815233906001600160a01b038416907fb90795a66650155983e242cac3e1ac1a4dc26f8ed2987f3ce416a34e00111fd490602001610885565b8161094457604051631fe1e13d60e11b815260040160405180910390fd5b61094e8282611287565b5050565b5f61095b6112a3565b905090565b5f80516020612b2f83398151915282158015610994575061097f610b66565b6001600160a01b0316826001600160a01b0316145b15610a18575f806109a3610eee565b90925090506001600160a01b0382161515806109c5575065ffffffffffff8116155b806109d857504265ffffffffffff821610155b15610a05576040516319ca5ebb60e01b815265ffffffffffff821660048201526024015b60405180910390fd5b5050805465ffffffffffff60a01b191681555b610a2283836112ac565b505050565b610a2f6112df565b610a3882611383565b61094e82826113ad565b5f610a4b611469565b505f80516020612b0f83398151915290565b5f610a6781611124565b61094e826114b2565b5f610a7a81611124565b61094e82611524565b5f805f80516020612acf8339815191525b6001600160a01b039093165f9081526020939093525050604090205490565b5f61076282611593565b5f60608082808083815f80516020612aef8339815191528054909150158015610ae857506001810154155b610b2c5760405162461bcd60e51b81526020600482015260156024820152741152540dcc4c8e88155b9a5b9a5d1a585b1a5e9959605a1b60448201526064016109fc565b610b346115bb565b610b3c6115f9565b604080515f80825260208201909252600f60f81b9c939b5091995046985030975095509350915050565b5f80516020612b6f833981519152546001600160a01b031690565b5f61095b610b66565b5f610b9361160f565b805490915060ff600160401b820416159067ffffffffffffffff165f81158015610bba5750825b90505f8267ffffffffffffffff166001148015610bd65750303b155b905081158015610be4575080155b15610c025760405163f92ee8a960e01b815260040160405180910390fd5b845467ffffffffffffffff191660011785558315610c2c57845460ff60401b1916600160401b1785555b610c34611637565b610c3e5f8861163f565b610c687f189ab7a9244df0848122154315af71fe140f3db0fe014031783b0946b8c9d2e387611651565b50610c7389896116c5565b610c7c896116d7565b8315610cc257845460ff60401b19168555604051600181527fc7f505b2f371ae2175ee4913f4499e1f2633a7b5936321eed1cdaeb6115181d29060200160405180910390a15b505050505050505050565b5f9182525f80516020612b4f833981519152602090815260408084206001600160a01b0393909316845291905290205460ff1690565b7f52c63247e1f47db19d5ce0460030c497f067ca4cebf71ba98eeadabe20bace0480546060915f80516020612acf8339815191529161078b90612895565b5f80516020612b6f833981519152545f90600160d01b900465ffffffffffff165f80516020612b2f8339815191528115801590610d8657504265ffffffffffff831610155b610d91575f80610da7565b6001810154600160a01b900465ffffffffffff16825b92509250509091565b5f3361081a8185856111f6565b610dc7848461080d565b15610e2e57604051638f4ffcb160e01b81526001600160a01b03851690638f4ffcb190610e0090339087903090889088906004016128cd565b5f604051808303815f87803b158015610e17575f80fd5b505af1158015610e29573d5f803e3d5ffd5b505050505b50505050565b5f80516020612b6f833981519152545f905f80516020612b2f83398151915290600160d01b900465ffffffffffff168015801590610e7957504265ffffffffffff8216105b610e93578154600160d01b900465ffffffffffff16610ea8565b6001820154600160a01b900465ffffffffffff165b9250505090565b5f610eb8610eee565b509050336001600160a01b03821614610ee657604051636116401160e11b81523360048201526024016109fc565b610836611702565b5f80516020612b2f833981519152546001600160a01b03811691600160a01b90910465ffffffffffff1690565b83421115610f3f5760405163313c898160e11b8152600481018590526024016109fc565b5f7f6e71edae12b1b97f4d1f60370fef10105fa2faae0126114a169c64845d6126c9888888610fa98c6001600160a01b03165f9081527f5ab42ced628888259c08ac98db1eb0cf702fc1501344311d8b100cd1bfe4bb006020526040902080546001810190915590565b6040805160208101969096526001600160a01b0394851690860152929091166060840152608083015260a082015260c0810186905260e0016040516020818303038152906040528051906020012090505f6110038261179b565b90505f611012828787876117c7565b9050896001600160a01b0316816001600160a01b031614611059576040516325c0072360e11b81526001600160a01b0380831660048301528b1660248201526044016109fc565b6110648a8a8a611117565b50505050505050505050565b8161108e57604051631fe1e13d60e11b815260040160405180910390fd5b61094e82826117f3565b5f6110a281611124565b61083661180f565b6001600160a01b039182165f9081527f52c63247e1f47db19d5ce0460030c497f067ca4cebf71ba98eeadabe20bace016020908152604080832093909416825291909152205490565b5f6001600160e01b03198216630cccc66560e21b1480610762575061076282611819565b610a22838383600161183d565b6108368133611921565b6111385f8061195a565b565b7fd7c4527c99f13bf6a80d3bc15ebce76f7f8256ab4fbf63363b10858db314c97861094e81611124565b6001600160a01b03821661118d5760405163ec442f0560e01b81525f60048201526024016109fc565b61094e5f8383611a32565b5f6111a384846110aa565b90505f19811015610e2e57818110156111e857604051637dc7a0d960e11b81526001600160a01b038416600482015260248101829052604481018390526064016109fc565b610e2e84848484035f61183d565b6001600160a01b03831661121f57604051634b637e8f60e11b81525f60048201526024016109fc565b6001600160a01b0382166112485760405163ec442f0560e01b81525f60048201526024016109fc565b610a22838383611a32565b6001600160a01b03821661127c57604051634b637e8f60e11b81525f60048201526024016109fc565b61094e825f83611a32565b611290826108b6565b61129981611124565b610e2e8383611651565b5f61095b611b6b565b6001600160a01b03811633146112d55760405163334bd91960e11b815260040160405180910390fd5b610a228282611bde565b306001600160a01b037f000000000000000000000000000000000000000000000000000000000000000016148061136557507f00000000000000000000000000000000000000000000000000000000000000006001600160a01b03166113595f80516020612b0f833981519152546001600160a01b031690565b6001600160a01b031614155b156111385760405163703e46dd60e11b815260040160405180910390fd5b7f189ab7a9244df0848122154315af71fe140f3db0fe014031783b0946b8c9d2e361094e81611124565b816001600160a01b03166352d1902d6040518163ffffffff1660e01b8152600401602060405180830381865afa925050508015611407575060408051601f3d908101601f191682019092526114049181019061291f565b60015b61142f57604051634c9c8ce360e01b81526001600160a01b03831660048201526024016109fc565b5f80516020612b0f833981519152811461145f57604051632a87526960e21b8152600481018290526024016109fc565b610a228383611c35565b306001600160a01b037f000000000000000000000000000000000000000000000000000000000000000016146111385760405163703e46dd60e11b815260040160405180910390fd5b5f6114bb610e34565b6114c442611c8a565b6114ce919061294a565b90506114da8282611cc0565b60405165ffffffffffff821681526001600160a01b038316907f3377dc44241e779dd06afab5b788a35ca5f3b778836e2990bdb26a2a4b2e5ed69060200160405180910390a25050565b5f61152e82611d4a565b61153742611c8a565b611541919061294a565b905061154d828261195a565b6040805165ffffffffffff8085168252831660208201527ff1038c18cf84a56e432fdbfaf746924b7ea511dfe03a6506a0ceba4888788d9b910160405180910390a15050565b5f807f5ab42ced628888259c08ac98db1eb0cf702fc1501344311d8b100cd1bfe4bb00610a94565b7fa16a46d94261c7517cc8ff89f61c0ce93598e3c849801011dee649a6a557d10280546060915f80516020612aef8339815191529161078b90612895565b60605f5f80516020612aef83398151915261077a565b5f807ff0c57e16840df040f15088dc2f81fe391c3923bec73e23a9662efc9c229c6a00610762565b611138611d91565b611647611d91565b61094e8282611db6565b5f5f80516020612b2f833981519152836116b3575f61166e610b66565b6001600160a01b03161461169557604051631fe1e13d60e11b815260040160405180910390fd5b6001810180546001600160a01b0319166001600160a01b0385161790555b6116bd8484611e1c565b949350505050565b6116cd611d91565b61094e8282611ec4565b6116df611d91565b61083681604051806040016040528060018152602001603160f81b815250611f14565b5f80516020612b2f8339815191525f8061171a610eee565b9150915061172f8165ffffffffffff16151590565b158061174357504265ffffffffffff821610155b1561176b576040516319ca5ebb60e01b815265ffffffffffff821660048201526024016109fc565b61177c5f611777610b66565b611bde565b506117875f83611651565b505081546001600160d01b03191690915550565b5f6107626117a76112a3565b8360405161190160f01b8152600281019290925260228201526042902090565b5f805f806117d788888888611f73565b9250925092506117e7828261203b565b50909695505050505050565b6117fc826108b6565b61180581611124565b610e2e8383611bde565b6111385f80611cc0565b5f6001600160e01b031982166318a4c3c360e11b14806107625750610762826120f3565b5f80516020612acf8339815191526001600160a01b0385166118745760405163e602df0560e01b81525f60048201526024016109fc565b6001600160a01b03841661189d57604051634a1406b160e11b81525f60048201526024016109fc565b6001600160a01b038086165f9081526001830160209081526040808320938816835292905220839055811561191a57836001600160a01b0316856001600160a01b03167f8c5be1e5ebec7d5bd14f71427d1e84f3dd0314c0f7b2291e5b200ac8c7c3b9258560405161191191815260200190565b60405180910390a35b5050505050565b61192b8282610ccd565b61094e5760405163e2517d3f60e01b81526001600160a01b0382166004820152602481018390526044016109fc565b5f80516020612b6f833981519152545f80516020612b2f83398151915290600160d01b900465ffffffffffff1680156119f4574265ffffffffffff821610156119cb57600182015482546001600160d01b0316600160a01b90910465ffffffffffff16600160d01b021782556119f4565b6040517f2b1fa2edafe6f7b9e97c1a9e0c3660e645beb2dcaa2d45bdbf9beaf5472e1ec5905f90a15b5060010180546001600160a01b0316600160a01b65ffffffffffff948516026001600160d01b031617600160d01b9290931691909102919091179055565b5f80516020612acf8339815191526001600160a01b038416611a6c5781816002015f828254611a619190612969565b90915550611adc9050565b6001600160a01b0384165f9081526020829052604090205482811015611abe5760405163391434e360e21b81526001600160a01b038616600482015260248101829052604481018490526064016109fc565b6001600160a01b0385165f9081526020839052604090209083900390555b6001600160a01b038316611afa576002810180548390039055611b18565b6001600160a01b0383165f9081526020829052604090208054830190555b826001600160a01b0316846001600160a01b03167fddf252ad1be2c89b69c2b068fc378daa952ba7f163c4a11628f55a4df523b3ef84604051611b5d91815260200190565b60405180910390a350505050565b5f7f8b73c3c69bb8fe3d512ecc4cf759cc79239f7b179b0ffacaa9a75d522b39400f611b95612127565b611b9d61218f565b60408051602081019490945283019190915260608201524660808201523060a082015260c00160405160208183030381529060405280519060200120905090565b5f5f80516020612b2f83398151915283158015611c135750611bfe610b66565b6001600160a01b0316836001600160a01b0316145b15611c2b576001810180546001600160a01b03191690555b6116bd84846121d1565b611c3e8261224a565b6040516001600160a01b038316907fbc7cd75a20ee27fd9adebab32041f755214dbc6bffa90cc0225b39da2e5c2d3b905f90a2805115611c8257610a2282826122ad565b61094e61231f565b5f65ffffffffffff821115611cbc576040516306dfcc6560e41b815260306004820152602481018390526044016109fc565b5090565b5f80516020612b2f8339815191525f611cd7610eee565b835465ffffffffffff8616600160a01b026001600160d01b03199091166001600160a01b038816171784559150611d1790508165ffffffffffff16151590565b15610e2e576040517f8886ebfc4259abdbc16601dd8fb5678e54878f47b3c34836cfc51154a9605109905f90a150505050565b5f80611d54610e34565b90508065ffffffffffff168365ffffffffffff1611611d7c57611d77838261297c565b6108af565b6108af65ffffffffffff84166206978061233e565b611d9961234d565b61113857604051631afcd79f60e31b815260040160405180910390fd5b611dbe611d91565b5f80516020612b2f8339815191526001600160a01b038216611df557604051636116401160e11b81525f60048201526024016109fc565b80546001600160d01b0316600160d01b65ffffffffffff851602178155610e2e5f83611651565b5f5f80516020612b4f833981519152611e358484610ccd565b611eb4575f848152602082815260408083206001600160a01b03871684529091529020805460ff19166001179055611e6a3390565b6001600160a01b0316836001600160a01b0316857f2f8788117e7eff1d82e926ec794901d17c78024a50270940304540a733656f0d60405160405180910390a46001915050610762565b5f915050610762565b5092915050565b611ecc611d91565b5f80516020612acf8339815191527f52c63247e1f47db19d5ce0460030c497f067ca4cebf71ba98eeadabe20bace03611f0584826129df565b5060048101610e2e83826129df565b611f1c611d91565b5f80516020612aef8339815191527fa16a46d94261c7517cc8ff89f61c0ce93598e3c849801011dee649a6a557d102611f5584826129df565b5060038101611f6483826129df565b505f8082556001909101555050565b5f80807f7fffffffffffffffffffffffffffffff5d576e7357a4501ddfe92f46681b20a0841115611fac57505f91506003905082612031565b604080515f808252602082018084528a905260ff891692820192909252606081018790526080810186905260019060a0016020604051602081039080840390855afa158015611ffd573d5f803e3d5ffd5b5050604051601f1901519150506001600160a01b03811661202857505f925060019150829050612031565b92505f91508190505b9450945094915050565b5f82600381111561204e5761204e612a9f565b03612057575050565b600182600381111561206b5761206b612a9f565b036120895760405163f645eedf60e01b815260040160405180910390fd5b600282600381111561209d5761209d612a9f565b036120be5760405163fce698f760e01b8152600481018290526024016109fc565b60038260038111156120d2576120d2612a9f565b0361094e576040516335e2f38360e21b8152600481018290526024016109fc565b5f6001600160e01b03198216637965db0b60e01b148061076257506301ffc9a760e01b6001600160e01b0319831614610762565b5f5f80516020612aef8339815191528161213f6115bb565b80519091501561215757805160209091012092915050565b81548015612166579392505050565b7fc5d2460186f7233c927e7db2dcc703c0e500b653ca82273b7bfad8045d85a470935050505090565b5f5f80516020612aef833981519152816121a76115f9565b8051909150156121bf57805160209091012092915050565b60018201548015612166579392505050565b5f5f80516020612b4f8339815191526121ea8484610ccd565b15611eb4575f848152602082815260408083206001600160a01b0387168085529252808320805460ff1916905551339287917ff6391f5c32d9c69d2a47ea670b442974b53935d1edc7fd64eb21e047a839171b9190a46001915050610762565b806001600160a01b03163b5f0361227f57604051634c9c8ce360e01b81526001600160a01b03821660048201526024016109fc565b5f80516020612b0f83398151915280546001600160a01b0319166001600160a01b0392909216919091179055565b60605f80846001600160a01b0316846040516122c99190612ab3565b5f60405180830381855af49150503d805f8114612301576040519150601f19603f3d011682016040523d82523d5f602084013e612306565b606091505b5091509150612316858383612366565b95945050505050565b34156111385760405163b398979f60e01b815260040160405180910390fd5b5f8282188284100282186108af565b5f61235661160f565b54600160401b900460ff16919050565b60608261237657611d77826123bd565b815115801561238d57506001600160a01b0384163b155b156123b657604051639996b31560e01b81526001600160a01b03851660048201526024016109fc565b50806108af565b8051156123cc57805160208201fd5b60405163d6bda27560e01b815260040160405180910390fd5b5f602082840312156123f5575f80fd5b81356001600160e01b0319811681146108af575f80fd5b5f5b8381101561242657818101518382015260200161240e565b50505f910152565b5f815180845261244581602086016020860161240c565b601f01601f19169290920160200192915050565b602081525f6108af602083018461242e565b80356001600160a01b0381168114612481575f80fd5b919050565b5f8060408385031215612497575f80fd5b6124a08361246b565b946020939093013593505050565b5f805f606084860312156124c0575f80fd5b6124c98461246b565b92506124d76020850161246b565b9150604084013590509250925092565b5f602082840312156124f7575f80fd5b5035919050565b5f806040838503121561250f575f80fd5b8235915061251f6020840161246b565b90509250929050565b634e487b7160e01b5f52604160045260245ffd5b5f67ffffffffffffffff8084111561255657612556612528565b604051601f8501601f19908116603f0116810190828211818310171561257e5761257e612528565b81604052809350858152868686011115612596575f80fd5b858560208301375f602087830101525050509392505050565b5f80604083850312156125c0575f80fd5b6125c98361246b565b9150602083013567ffffffffffffffff8111156125e4575f80fd5b8301601f810185136125f4575f80fd5b6126038582356020840161253c565b9150509250929050565b5f6020828403121561261d575f80fd5b6108af8261246b565b5f60208284031215612636575f80fd5b813565ffffffffffff811681146108af575f80fd5b60ff60f81b881681525f602060e0602084015261266b60e084018a61242e565b838103604085015261267d818a61242e565b606085018990526001600160a01b038816608086015260a0850187905284810360c0860152855180825260208088019350909101905f5b818110156126d0578351835292840192918401916001016126b4565b50909c9b505050505050505050505050565b5f82601f8301126126f1575f80fd5b6108af8383356020850161253c565b5f805f8060808587031215612713575f80fd5b843567ffffffffffffffff8082111561272a575f80fd5b612736888389016126e2565b9550602087013591508082111561274b575f80fd5b50612758878288016126e2565b9350506127676040860161246b565b91506127756060860161246b565b905092959194509250565b5f805f8060608587031215612793575f80fd5b61279c8561246b565b935060208501359250604085013567ffffffffffffffff808211156127bf575f80fd5b818701915087601f8301126127d2575f80fd5b8135818111156127e0575f80fd5b8860208285010111156127f1575f80fd5b95989497505060200194505050565b5f805f805f805f60e0888a031215612816575f80fd5b61281f8861246b565b965061282d6020890161246b565b95506040880135945060608801359350608088013560ff81168114612850575f80fd5b9699959850939692959460a0840135945060c09093013592915050565b5f806040838503121561287e575f80fd5b6128878361246b565b915061251f6020840161246b565b600181811c908216806128a957607f821691505b6020821081036128c757634e487b7160e01b5f52602260045260245ffd5b50919050565b6001600160a01b038681168252602082018690528416604082015260806060820181905281018290525f828460a08401375f60a0848401015260a0601f19601f85011683010190509695505050505050565b5f6020828403121561292f575f80fd5b5051919050565b634e487b7160e01b5f52601160045260245ffd5b65ffffffffffff818116838216019080821115611ebd57611ebd612936565b8082018082111561076257610762612936565b65ffffffffffff828116828216039080821115611ebd57611ebd612936565b601f821115610a2257805f5260205f20601f840160051c810160208510156129c05750805b601f840160051c820191505b8181101561191a575f81556001016129cc565b815167ffffffffffffffff8111156129f9576129f9612528565b612a0d81612a078454612895565b8461299b565b602080601f831160018114612a40575f8415612a295750858301515b5f19600386901b1c1916600185901b178555612a97565b5f85815260208120601f198616915b82811015612a6e57888601518255948401946001909101908401612a4f565b5085821015612a8b57878501515f19600388901b60f8161c191681555b505060018460011b0185555b505050505050565b634e487b7160e01b5f52602160045260245ffd5b5f8251612ac481846020870161240c565b919091019291505056fe52c63247e1f47db19d5ce0460030c497f067ca4cebf71ba98eeadabe20bace00a16a46d94261c7517cc8ff89f61c0ce93598e3c849801011dee649a6a557d100360894a13ba1a3210667c828492db98dca3e2076cc3735a920a3ca505d382bbceef3dac4538c82c8ace4063ab0acd2d15cdb5883aa1dff7c2673abb3d869840002dd7bc7dec4dceedda775e58dd541e08a116c6c53815c0bd028192f7b626800eef3dac4538c82c8ace4063ab0acd2d15cdb5883aa1dff7c2673abb3d8698401a164736f6c6343000817000a","linkReferences":{}},"methodIdentifiers":{"DEFAULT_ADMIN_ROLE()":"a217fddf","DOMAIN_SEPARATOR()":"3644e515","TOKEN_BRIDGE_ROLE()":"a94ea30c","UPGRADER_ROLE()":"f72c0d8b","UPGRADE_INTERFACE_VERSION()":"ad3cb1cc","acceptDefaultAdminTransfer()":"cefc1429","allowance(address,address)":"dd62ed3e","approve(address,uint256)":"095ea7b3","approveAndCall(address,uint256,bytes)":"cae9ca51","balanceOf(address)":"70a08231","beginDefaultAdminTransfer(address)":"634e93da","cancelDefaultAdminTransfer()":"d602b9fd","changeDefaultAdminDelay(uint48)":"649a5ec7","crosschainBurn(address,uint256)":"2b8c49e3","crosschainMint(address,uint256)":"18bf5077","decimals()":"313ce567","defaultAdmin()":"84ef8ffc","defaultAdminDelay()":"cc8463c8","defaultAdminDelayIncreaseWait()":"022d63fb","eip712Domain()":"84b0196e","getRoleAdmin(bytes32)":"248a9ca3","grantRole(bytes32,address)":"2f2ff15d","hasRole(bytes32,address)":"91d14854","initialize(string,string,address,address)":"8f15b414","name()":"06fdde03","nonces(address)":"7ecebe00","owner()":"8da5cb5b","pendingDefaultAdmin()":"cf6eefb7","pendingDefaultAdminDelay()":"a1eda53c","permit(address,address,uint256,uint256,uint8,bytes32,bytes32)":"d505accf","proxiableUUID()":"52d1902d","renounceRole(bytes32,address)":"36568abe","revokeRole(bytes32,address)":"d547741f","rollbackDefaultAdminDelay()":"0aa6220b","supportsInterface(bytes4)":"01ffc9a7","symbol()":"95d89b41","totalSupply()":"18160ddd","transfer(address,uint256)":"a9059cbb","transferFrom(address,address,uint256)":"23b872dd","upgradeToAndCall(address,bytes)":"4f1ef286"},"storageLayout":{"storage":[],"types":{}},"id":188}