{"abi":[{"type":"constructor","inputs":[],"stateMutability":"nonpayable"},{"type":"function","name":"allowance","inputs":[{"name":"owner","type":"address","internalType":"address"},{"name":"spender","type":"address","internalType":"address"}],"outputs":[{"name":"","type":"uint256","internalType":"uint256"}],"stateMutability":"view"},{"type":"function","name":"approve","inputs":[{"name":"spender","type":"address","internalType":"address"},{"name":"value","type":"uint256","internalType":"uint256"}],"outputs":[{"name":"","type":"bool","internalType":"bool"}],"stateMutability":"nonpayable"},{"type":"function","name":"balanceOf","inputs":[{"name":"account","type":"address","internalType":"address"}],"outputs":[{"name":"","type":"uint256","internalType":"uint256"}],"stateMutability":"view"},{"type":"function","name":"decimals","inputs":[],"outputs":[{"name":"","type":"uint8","internalType":"uint8"}],"stateMutability":"pure"},{"type":"function","name":"totalSupply","inputs":[],"outputs":[{"name":"","type":"uint256","internalType":"uint256"}],"stateMutability":"view"},{"type":"function","name":"transfer","inputs":[{"name":"to","type":"address","internalType":"address"},{"name":"value","type":"uint256","internalType":"uint256"}],"outputs":[{"name":"","type":"bool","internalType":"bool"}],"stateMutability":"nonpayable"},{"type":"function","name":"transferFrom","inputs":[{"name":"from","type":"address","internalType":"address"},{"name":"to","type":"address","internalType":"address"},{"name":"value","type":"uint256","internalType":"uint256"}],"outputs":[{"name":"","type":"bool","internalType":"bool"}],"stateMutability":"nonpayable"},{"type":"event","name":"Approval","inputs":[{"name":"owner","type":"address","indexed":true,"internalType":"address"},{"name":"spender","type":"address","indexed":true,"internalType":"address"},{"name":"value","type":"uint256","indexed":false,"internalType":"uint256"}],"anonymous":false},{"type":"event","name":"Transfer","inputs":[{"name":"from","type":"address","indexed":true,"internalType":"address"},{"name":"to","type":"address","indexed":true,"internalType":"address"},{"name":"value","type":"uint256","indexed":false,"internalType":"uint256"}],"anonymous":false}],"bytecode":{"object":"0x608060405234801561000f575f80fd5b506701351609ff7580005f81815533815260016020526040902055610488806100375f395ff3fe608060405234801561000f575f80fd5b506004361061007a575f3560e01c8063313ce56711610058578063313ce567146100cf57806370a08231146100de578063a9059cbb14610106578063dd62ed3e14610119575f80fd5b8063095ea7b31461007e57806318160ddd146100a657806323b872dd146100bc575b5f80fd5b61009161008c366004610366565b610151565b60405190151581526020015b60405180910390f35b6100ae5f5481565b60405190815260200161009d565b6100916100ca36600461038e565b6101bd565b6040516009815260200161009d565b6100ae6100ec3660046103c7565b6001600160a01b03165f9081526001602052604090205490565b610091610114366004610366565b6102b5565b6100ae6101273660046103e7565b6001600160a01b039182165f90815260026020908152604080832093909416825291909152205490565b335f8181526002602090815260408083206001600160a01b038716808552925280832085905551919290917f8c5be1e5ebec7d5bd14f71427d1e84f3dd0314c0f7b2291e5b200ac8c7c3b925906101ab9086815260200190565b60405180910390a35060015b92915050565b6001600160a01b038084165f908152600260209081526040808320338452825280832054938616835260019091528120549091906101fc90849061042c565b6001600160a01b038086165f90815260016020526040808220939093559087168152205461022b90849061043f565b6001600160a01b0386165f9081526001602052604090205561024d838261043f565b6001600160a01b038681165f81815260026020908152604080832033845282529182902094909455518681529187169290917fddf252ad1be2c89b69c2b068fc378daa952ba7f163c4a11628f55a4df523b3ef910160405180910390a3506001949350505050565b335f908152600160205260408120546102cf90839061043f565b335f90815260016020526040808220929092556001600160a01b038516815220546102fb90839061042c565b6001600160a01b0384165f818152600160205260409081902092909255905133907fddf252ad1be2c89b69c2b068fc378daa952ba7f163c4a11628f55a4df523b3ef906101ab9086815260200190565b80356001600160a01b0381168114610361575f80fd5b919050565b5f8060408385031215610377575f80fd5b6103808361034b565b946020939093013593505050565b5f805f606084860312156103a0575f80fd5b6103a98461034b565b92506103b76020850161034b565b9150604084013590509250925092565b5f602082840312156103d7575f80fd5b6103e08261034b565b9392505050565b5f80604083850312156103f8575f80fd5b6104018361034b565b915061040f6020840161034b565b90509250929050565b634e487b7160e01b5f52601160045260245ffd5b808201808211156101b7576101b7610418565b818103818111156101b7576101b761041856fea2646970667358221220153aabb760e890cee64c6ada9b805f5169826ffa981d6b8b4acf92b04f9512a964736f6c63430008170033","linkReferences":{}},"methodIdentifiers":{"allowance(address,address)":"dd62ed3e","approve(address,uint256)":"095ea7b3","balanceOf(address)":"70a08231","decimals()":"313ce567","totalSupply()":"18160ddd","transfer(address,uint256)":"a9059cbb","transferFrom(address,address,uint256)":"23b872dd"},"storageLayout":{"storage":[{"astId":100397,"contract":"test/units/mocks/RLCMock.sol:RLCMock","label":"totalSupply","offset":0,"slot":"0","type":"t_uint256"},{"astId":100401,"contract":"test/units/mocks/RLCMock.sol:RLCMock","label":"balances","offset":0,"slot":"1","type":"t_mapping(t_address,t_uint256)"},{"astId":100407,"contract":"test/units/mocks/RLCMock.sol:RLCMock","label":"allowed","offset":0,"slot":"2","type":"t_mapping(t_address,t_mapping(t_address,t_uint256))"}],"types":{"t_address":{"encoding":"inplace","label":"address","numberOfBytes":"20"},"t_mapping(t_address,t_mapping(t_address,t_uint256))":{"encoding":"mapping","key":"t_address","label":"mapping(address => mapping(address => uint256))","numberOfBytes":"32","value":"t_mapping(t_address,t_uint256)"},"t_mapping(t_address,t_uint256)":{"encoding":"mapping","key":"t_address","label":"mapping(address => uint256)","numberOfBytes":"32","value":"t_uint256"},"t_uint256":{"encoding":"inplace","label":"uint256","numberOfBytes":"32"}}},"id":210}