{"abi":[{"type":"function","name":"decode","inputs":[{"name":"_options","type":"bytes","internalType":"bytes"}],"outputs":[{"name":"executorOptions","type":"bytes","internalType":"bytes"},{"name":"dvnOptions","type":"bytes","internalType":"bytes"}],"stateMutability":"pure"},{"type":"error","name":"LZ_ULN_InvalidLegacyType1Option","inputs":[]},{"type":"error","name":"LZ_ULN_InvalidLegacyType2Option","inputs":[]},{"type":"error","name":"LZ_ULN_InvalidWorkerId","inputs":[{"name":"workerId","type":"uint8","internalType":"uint8"}]},{"type":"error","name":"LZ_ULN_InvalidWorkerOptions","inputs":[{"name":"cursor","type":"uint256","internalType":"uint256"}]},{"type":"error","name":"LZ_ULN_UnsupportedOptionType","inputs":[{"name":"optionType","type":"uint16","internalType":"uint16"}]},{"type":"error","name":"SafeCastOverflowedUintDowncast","inputs":[{"name":"bits","type":"uint8","internalType":"uint8"},{"name":"value","type":"uint256","internalType":"uint256"}]}],"bytecode":{"object":"0x608060405234801561000f575f80fd5b506107aa8061001d5f395ff3fe608060405234801561000f575f80fd5b5060043610610029575f3560e01c8063e5c5e9a31461002d575b5f80fd5b61004061003b366004610512565b610057565b60405161004e9291906105cb565b60405180910390f35b606080610064848461006f565b915091509250929050565b606080600283101561009b5760405163196499c760e21b81525f60048201526024015b60405180910390fd5b5f6100a960028286886105f8565b6100b29161061f565b60f01c90506002600219820161021157805f5b868310156101b7575f6100dd60018501858a8c6105f8565b6100e69161064f565b60f81c90505f81900361010e57604051636780cfaf60e01b81525f6004820152602401610092565b8160ff165f036101205780915061015c565b8160ff168160ff161461015c57365f61013b86868c8e6105f8565b9150915061014c8989868585610228565b9099509750859450919250829150505b60018401935f9061017290600301868b8d6105f8565b61017b9161061f565b60f01c90505f8190036101a45760405163196499c760e21b815260048101869052602401610092565b8060020161ffff168501945050506100c5565b8287146101da5760405163196499c760e21b815260048101849052602401610092565b600287111561020a57365f6101f185858b8d6105f8565b915091506102028888858585610228565b909850965050505b505061021f565b61021c828787610345565b93505b50509250929050565b6060805f1960ff8616016102a357865115610266578684846040516020016102529392919061067d565b60405160208183030381529060405261029c565b83838080601f0160208091040260200160405190810160405280939291908181526020018383808284375f920191909152505050505b965061033a565b60011960ff86160161031c578551156102df578584846040516020016102cb9392919061067d565b604051602081830303815290604052610315565b83838080601f0160208091040260200160405190810160405280939291908181526020018383808284375f920191909152505050505b955061033a565b604051636780cfaf60e01b815260ff86166004820152602401610092565b509495939450505050565b60605f1961ffff8516016103e35760228214610374576040516301b8ca5560e31b815260040160405180910390fd5b5f6103946103866022600286886105f8565b61038f916106a3565b6104d2565b604051600160f81b60208201819052601160f01b602183015260238201526001600160801b0319608083901b1660248201529091506034016040516020818303038152906040529150506104cb565b60011961ffff8516016104ac576042821115806104005750606282115b1561041e576040516360493e2b60e11b815260040160405180910390fd5b5f6104306103866022600286886105f8565b90505f6104446103866042602287896105f8565b90505f6041198501610459866042818a6105f8565b610462916106a3565b60405160086020938403029190911c9250610493916001916011918391889183916031916002918b918b91016106c1565b60405160208183030381529060405293505050506104cb565b604051630417051360e41b815261ffff85166004820152602401610092565b9392505050565b5f6fffffffffffffffffffffffffffffffff82111561050e576040516306dfcc6560e41b81526080600482015260248101839052604401610092565b5090565b5f8060208385031215610523575f80fd5b823567ffffffffffffffff8082111561053a575f80fd5b818501915085601f83011261054d575f80fd5b81358181111561055b575f80fd5b86602082850101111561056c575f80fd5b60209290920196919550909350505050565b5f5b83811015610598578181015183820152602001610580565b50505f910152565b5f81518084526105b781602086016020860161057e565b601f01601f19169290920160200192915050565b604081525f6105dd60408301856105a0565b82810360208401526105ef81856105a0565b95945050505050565b5f8085851115610606575f80fd5b83861115610612575f80fd5b5050820193919092039150565b6001600160f01b031981358181169160028510156106475780818660020360031b1b83161692505b505092915050565b6001600160f81b031981358181169160018510156106475760019490940360031b84901b1690921692915050565b5f845161068e81846020890161057e565b8201838582375f930192835250909392505050565b803560208310156106bb575f19602084900360031b1b165b92915050565b60f88a811b6001600160f81b0319908116835260f08b901b6001600160f01b031916600184015289821b81166003840152608089901b6001600160801b03191660048401529087901b1660148201525f61072a601583018760f01b6001600160f01b0319169052565b610743601783018660f81b6001600160f81b0319169052565b61075c601883018560801b6001600160801b0319169052565b5060288101919091526048019897505050505050505056fea26469706673582212207ff10641605f99a98989edf93e01daf1765022d54f37ec254657d8ccd090e16964736f6c63430008170033","linkReferences":{}},"methodIdentifiers":{"decode(bytes)":"e5c5e9a3"},"storageLayout":{"storage":[],"types":{}},"id":25}