{"abi":[{"type":"constructor","inputs":[{"name":"_priceUpdater","type":"address","internalType":"address"}],"stateMutability":"nonpayable"},{"type":"function","name":"ARBITRUM_COMPRESSION_PERCENT","inputs":[],"outputs":[{"name":"","type":"uint128","internalType":"uint128"}],"stateMutability":"view"},{"type":"function","name":"arbitrumPriceExt","inputs":[],"outputs":[{"name":"","type":"tuple","internalType":"struct ILayerZeroPriceFeed.ArbitrumPriceExt","components":[{"name":"gasPerL2Tx","type":"uint64","internalType":"uint64"},{"name":"gasPerL1CallDataByte","type":"uint32","internalType":"uint32"}]}],"stateMutability":"view"},{"type":"function","name":"endpoint","inputs":[],"outputs":[{"name":"","type":"address","internalType":"contract ILayerZeroEndpointV2"}],"stateMutability":"view"},{"type":"function","name":"estimateFeeByChain","inputs":[{"name":"_dstEid","type":"uint16","internalType":"uint16"},{"name":"_callDataSize","type":"uint256","internalType":"uint256"},{"name":"_gas","type":"uint256","internalType":"uint256"}],"outputs":[{"name":"fee","type":"uint256","internalType":"uint256"},{"name":"priceRatio","type":"uint128","internalType":"uint128"}],"stateMutability":"view"},{"type":"function","name":"estimateFeeByEid","inputs":[{"name":"_dstEid","type":"uint32","internalType":"uint32"},{"name":"_callDataSize","type":"uint256","internalType":"uint256"},{"name":"_gas","type":"uint256","internalType":"uint256"}],"outputs":[{"name":"","type":"uint256","internalType":"uint256"},{"name":"","type":"uint128","internalType":"uint128"},{"name":"","type":"uint128","internalType":"uint128"},{"name":"","type":"uint128","internalType":"uint128"}],"stateMutability":"view"},{"type":"function","name":"estimateFeeOnSend","inputs":[{"name":"_dstEid","type":"uint32","internalType":"uint32"},{"name":"_callDataSize","type":"uint256","internalType":"uint256"},{"name":"_gas","type":"uint256","internalType":"uint256"}],"outputs":[{"name":"","type":"uint256","internalType":"uint256"},{"name":"","type":"uint128","internalType":"uint128"},{"name":"","type":"uint128","internalType":"uint128"},{"name":"","type":"uint128","internalType":"uint128"}],"stateMutability":"payable"},{"type":"function","name":"getFee","inputs":[{"name":"","type":"uint32","internalType":"uint32"},{"name":"","type":"uint256","internalType":"uint256"},{"name":"","type":"uint256","internalType":"uint256"}],"outputs":[{"name":"","type":"uint256","internalType":"uint256"}],"stateMutability":"pure"},{"type":"function","name":"getPrice","inputs":[{"name":"_dstEid","type":"uint32","internalType":"uint32"}],"outputs":[{"name":"price","type":"tuple","internalType":"struct ILayerZeroPriceFeed.Price","components":[{"name":"priceRatio","type":"uint128","internalType":"uint128"},{"name":"gasPriceInUnit","type":"uint64","internalType":"uint64"},{"name":"gasPerByte","type":"uint32","internalType":"uint32"}]}],"stateMutability":"view"},{"type":"function","name":"getPrice","inputs":[{"name":"_dstEid","type":"uint16","internalType":"uint16"}],"outputs":[{"name":"price","type":"tuple","internalType":"struct ILayerZeroPriceFeed.Price","components":[{"name":"priceRatio","type":"uint128","internalType":"uint128"},{"name":"gasPriceInUnit","type":"uint64","internalType":"uint64"},{"name":"gasPerByte","type":"uint32","internalType":"uint32"}]}],"stateMutability":"view"},{"type":"function","name":"getPriceRatioDenominator","inputs":[],"outputs":[{"name":"","type":"uint128","internalType":"uint128"}],"stateMutability":"view"},{"type":"function","name":"nativeTokenPriceUSD","inputs":[],"outputs":[{"name":"","type":"uint128","internalType":"uint128"}],"stateMutability":"view"},{"type":"function","name":"owner","inputs":[],"outputs":[{"name":"","type":"address","internalType":"address"}],"stateMutability":"view"},{"type":"function","name":"priceUpdater","inputs":[{"name":"updater","type":"address","internalType":"address"}],"outputs":[{"name":"active","type":"bool","internalType":"bool"}],"stateMutability":"view"},{"type":"function","name":"renounceOwnership","inputs":[],"outputs":[],"stateMutability":"nonpayable"},{"type":"function","name":"setArbitrumCompressionPercent","inputs":[{"name":"_compressionPercent","type":"uint128","internalType":"uint128"}],"outputs":[],"stateMutability":"nonpayable"},{"type":"function","name":"setEndpoint","inputs":[{"name":"_endpoint","type":"address","internalType":"address"}],"outputs":[],"stateMutability":"nonpayable"},{"type":"function","name":"setNativeTokenPriceUSD","inputs":[{"name":"_nativeTokenPriceUSD","type":"uint128","internalType":"uint128"}],"outputs":[],"stateMutability":"nonpayable"},{"type":"function","name":"setPrice","inputs":[{"name":"_price","type":"tuple[]","internalType":"struct ILayerZeroPriceFeed.UpdatePrice[]","components":[{"name":"eid","type":"uint32","internalType":"uint32"},{"name":"price","type":"tuple","internalType":"struct ILayerZeroPriceFeed.Price","components":[{"name":"priceRatio","type":"uint128","internalType":"uint128"},{"name":"gasPriceInUnit","type":"uint64","internalType":"uint64"},{"name":"gasPerByte","type":"uint32","internalType":"uint32"}]}]}],"outputs":[],"stateMutability":"nonpayable"},{"type":"function","name":"setPriceForArbitrum","inputs":[{"name":"_update","type":"tuple","internalType":"struct ILayerZeroPriceFeed.UpdatePriceExt","components":[{"name":"eid","type":"uint32","internalType":"uint32"},{"name":"price","type":"tuple","internalType":"struct ILayerZeroPriceFeed.Price","components":[{"name":"priceRatio","type":"uint128","internalType":"uint128"},{"name":"gasPriceInUnit","type":"uint64","internalType":"uint64"},{"name":"gasPerByte","type":"uint32","internalType":"uint32"}]},{"name":"extend","type":"tuple","internalType":"struct ILayerZeroPriceFeed.ArbitrumPriceExt","components":[{"name":"gasPerL2Tx","type":"uint64","internalType":"uint64"},{"name":"gasPerL1CallDataByte","type":"uint32","internalType":"uint32"}]}]}],"outputs":[],"stateMutability":"nonpayable"},{"type":"function","name":"setPriceRatioDenominator","inputs":[{"name":"_denominator","type":"uint128","internalType":"uint128"}],"outputs":[],"stateMutability":"nonpayable"},{"type":"function","name":"setPriceUpdater","inputs":[{"name":"_addr","type":"address","internalType":"address"},{"name":"_active","type":"bool","internalType":"bool"}],"outputs":[],"stateMutability":"nonpayable"},{"type":"function","name":"transferOwnership","inputs":[{"name":"newOwner","type":"address","internalType":"address"}],"outputs":[],"stateMutability":"nonpayable"},{"type":"function","name":"withdrawFee","inputs":[{"name":"_to","type":"address","internalType":"address"},{"name":"_amount","type":"uint256","internalType":"uint256"}],"outputs":[],"stateMutability":"nonpayable"},{"type":"event","name":"OwnershipTransferred","inputs":[{"name":"previousOwner","type":"address","indexed":true,"internalType":"address"},{"name":"newOwner","type":"address","indexed":true,"internalType":"address"}],"anonymous":false},{"type":"error","name":"LZ_PriceFeed_InsufficientFee","inputs":[{"name":"provided","type":"uint256","internalType":"uint256"},{"name":"required","type":"uint256","internalType":"uint256"}]},{"type":"error","name":"LZ_PriceFeed_NotAnOPStack","inputs":[{"name":"l2Eid","type":"uint32","internalType":"uint32"}]},{"type":"error","name":"LZ_PriceFeed_OnlyPriceUpdater","inputs":[]},{"type":"error","name":"OwnableInvalidOwner","inputs":[{"name":"owner","type":"address","internalType":"address"}]},{"type":"error","name":"OwnableUnauthorizedAccount","inputs":[{"name":"account","type":"address","internalType":"address"}]},{"type":"error","name":"Transfer_NativeFailed","inputs":[{"name":"_to","type":"address","internalType":"address"},{"name":"_value","type":"uint256","internalType":"uint256"}]},{"type":"error","name":"Transfer_ToAddressIsZero","inputs":[]}],"bytecode":{"object":"0x608060405234801561000f575f80fd5b5060405161145738038061145783398101604081905261002e91610106565b338061005357604051631e4fbdf760e01b81525f600482015260240160405180910390fd5b61005c816100b7565b506001600160a01b03165f908152600260205260409020805460ff1916600190811790915580546001600160801b03191668056bc75e2d6310000017905560058054602f60801b6001600160801b0391909116179055610133565b5f80546001600160a01b038381166001600160a01b0319831681178455604051919092169283917f8be0079c531659141344cd1fd0a4f28419497f9722a3daafe3b4186f6b6457e09190a35050565b5f60208284031215610116575f80fd5b81516001600160a01b038116811461012c575f80fd5b9392505050565b611317806101405f395ff3fe60806040526004361061013c575f3560e01c80638ca2fb08116100b3578063d350ad251161006d578063d350ad2514610428578063da26663a14610447578063dbbb415514610506578063e0ad121a14610525578063f2fde38b146105ac578063fd9be522146105cb575f80fd5b80638ca2fb08146103475780638da5cb5b1461038557806392807f58146103a1578063c1723a1d146103d2578063c1840327146103e5578063cd68b79b14610402575f80fd5b80635d6d7ccb116101045780635d6d7ccb146102345780635e280f1114610253578063715018a61461028a5780637bc3c9ab1461029e5780637dc438a4146102da57806388a4124c146102f9575f80fd5b806311f2c343146101405780632f7cb0b4146101755780633161b7f61461019657806336a5beba146101b557806352a7251014610215575b5f80fd5b34801561014b575f80fd5b5061016261015a366004610fc4565b5f9392505050565b6040519081526020015b60405180910390f35b348015610180575f80fd5b5061019461018f36600461100a565b6105ea565b005b3480156101a1575f80fd5b506101946101b036600461102a565b610611565b3480156101c0575f80fd5b506040805180820182525f808252602091820152815180830183526004546001600160401b03811680835263ffffffff600160401b90920482169284019283528451908152915116918101919091520161016c565b348015610220575f80fd5b5061019461022f3660046110ae565b61074e565b34801561023f575f80fd5b5061019461024e36600461100a565b610780565b34801561025e575f80fd5b50600654610272906001600160a01b031681565b6040516001600160a01b03909116815260200161016c565b348015610295575f80fd5b506101946107f1565b3480156102a9575f80fd5b506102bd6102b83660046110f8565b610804565b604080519283526001600160801b0390911660208301520161016c565b3480156102e5575f80fd5b506101946102f4366004611113565b61089e565b348015610304575f80fd5b50610318610313366004610fc4565b61095b565b604080519485526001600160801b0393841660208601529183169184019190915216606082015260800161016c565b348015610352575f80fd5b50610375610361366004611129565b60026020525f908152604090205460ff1681565b604051901515815260200161016c565b348015610390575f80fd5b505f546001600160a01b0316610272565b3480156103ac575f80fd5b506005546001600160801b03165b6040516001600160801b03909116815260200161016c565b6103186103e0366004610fc4565b61097b565b3480156103f0575f80fd5b506001546001600160801b03166103ba565b34801561040d575f80fd5b506005546103ba90600160801b90046001600160801b031681565b348015610433575f80fd5b5061019461044236600461100a565b6109ab565b348015610452575f80fd5b506104cc610461366004611142565b60408051606080820183525f808352602080840182905292840181905263ffffffff94851681526003835283902083519182018452546001600160801b0381168252600160801b81046001600160401b031692820192909252600160c01b9091049092169082015290565b6040805182516001600160801b031681526020808401516001600160401b0316908201529181015163ffffffff169082015260600161016c565b348015610511575f80fd5b50610194610520366004611129565b6109d5565b348015610530575f80fd5b506104cc61053f36600461115b565b60408051606080820183525f808352602080840182905292840181905261ffff949094168452600382529282902082519384018352546001600160801b03811684526001600160401b03600160801b82041691840191909152600160c01b900463ffffffff169082015290565b3480156105b7575f80fd5b506101946105c6366004611129565b6109ff565b3480156105d6575f80fd5b506101946105e5366004611174565b610a3c565b6105f2610a52565b600580546001600160801b03928316600160801b029216919091179055565b336106235f546001600160a01b031690565b6001600160a01b03161461066057335f9081526002602052604090205460ff166106605760405163320ae52960e01b815260040160405180910390fd5b5f5b81811015610749573683838381811061067d5761067d61119c565b60800291909101915061074090506106986020830183611142565b6106aa368490038401602085016111c6565b805160208083015160409384015184516060810186526001600160801b0394851681526001600160401b0392831681850190815263ffffffff9283168288019081529783165f908152600390955295909320925183549551965194166001600160c01b031990951694909417600160801b95909116949094029390931763ffffffff60c01b1916600160c01b9190921602179055565b50600101610662565b505050565b610756610a52565b6001600160a01b03919091165f908152600260205260409020805460ff1916911515919091179055565b336107925f546001600160a01b031690565b6001600160a01b0316146107cf57335f9081526002602052604090205460ff166107cf5760405163320ae52960e01b815260040160405180910390fd5b600580546001600160801b0319166001600160801b0392909216919091179055565b6107f9610a52565b6108025f610a7e565b565b5f808461ffff16606e148061081e57508461ffff1661279f145b8061082e57508461ffff16614eaf145b1561084b576108428561ffff168585610acd565b91509150610896565b8461ffff16606f148061086357508461ffff16612794145b8061087357508461ffff16614ea4145b15610887576108428561ffff168585610bd7565b6108428561ffff168585610d1e565b935093915050565b336108b05f546001600160a01b031690565b6001600160a01b0316146108ed57335f9081526002602052604090205460ff166108ed5760405163320ae52960e01b815260040160405180910390fd5b6108fd6106986020830183611142565b5f61090e60a083016080840161123b565b90505f61092160c0840160a08501611142565b6004805463ffffffff909216600160401b026bffffffffffffffffffffffff199092166001600160401b0390941693909317179091555050565b5f805f8061096a878787610dbc565b935093509350935093509350935093565b5f8080808061098e565b60405180910390fd5b610999888888610dbc565b94509450945094505093509350935093565b6109b3610a52565b600180546001600160801b0319166001600160801b0392909216919091179055565b6109dd610a52565b600680546001600160a01b0319166001600160a01b0392909216919091179055565b610a07610a52565b6001600160a01b038116610a3057604051631e4fbdf760e01b81525f6004820152602401610985565b610a3981610a7e565b50565b610a44610a52565b610a4e8282610e89565b5050565b5f546001600160a01b031633146108025760405163118cdaa760e01b8152336004820152602401610985565b5f80546001600160a01b038381166001600160a01b0319831681178455604051919092169283917f8be0079c531659141344cd1fd0a4f28419497f9722a3daafe3b4186f6b6457e09190a35050565b63ffffffff8381165f908152600360205260408120600454600554929384938492600160401b900490911690606490610b1690600160801b90046001600160801b031689611268565b610b209190611299565b610b2a9190611268565b82549091505f90610b4890600160c01b900463ffffffff1688611268565b83546004549192505f916001600160401b03600160801b90920482169184918691610b7491168b6112ac565b610b7e91906112ac565b610b8891906112ac565b610b929190611268565b60015485549192506001600160801b0390811691610bb1911683611268565b610bbb9190611299565b935493996001600160801b039094169850929650505050505050565b5f805f610be386610f32565b63ffffffff8082165f9081526003602052604081208054939450929091610c1291600160c01b90041688611268565b610c1e90610c746112ac565b82549091505f90610c3f90600160801b90046001600160401b031683611268565b63ffffffff808b165f9081526003602052604081208054939450929091610c6e91600160c01b9004168b611268565b82549091505f90600160801b90046001600160401b0316610c8f8b846112ac565b610c999190611268565b60015487549192505f916001600160801b0391821691610cba911687611268565b610cc49190611299565b60015485549192505f916001600160801b0391821691610ce5911685611268565b610cef9190611299565b90505f610cfc82846112ac565b9554959f6001600160801b039096169e50949c50505050505050505050505050565b63ffffffff8084165f9081526003602052604081208054919283928391610d4d91600160c01b90041687611268565b82549091505f90600160801b90046001600160401b0316610d6e87846112ac565b610d789190611268565b60015484549192506001600160801b0390811691610d97911683611268565b610da19190611299565b925492986001600160801b0390931697509195505050505050565b5f80808080610dcd617530896112bf565b90508063ffffffff16606e1480610deb57508063ffffffff1661279f145b80610dfd57508063ffffffff16614eaf145b15610e1757610e0d818888610acd565b9095509350610e66565b8063ffffffff16606f1480610e3357508063ffffffff16612794145b80610e4557508063ffffffff16614ea4145b15610e5557610e0d818888610bd7565b610e60818888610d1e565b90955093505b505060015460055493979296506001600160801b03908116955090921692509050565b6001600160a01b038216610eb0576040516306b7a93160e41b815260040160405180910390fd5b5f826001600160a01b0316826040515f6040518083038185875af1925050503d805f8114610ef9576040519150601f19603f3d011682016040523d82523d5f602084013e610efe565b606091505b505090508061074957604051631196f20d60e21b81526001600160a01b038416600482015260248101839052604401610985565b5f80610f40617530846112bf565b90508063ffffffff16606f03610f595750606592915050565b8063ffffffff1661279403610f72575061278992915050565b8063ffffffff16614ea403610f8b5750614e9992915050565b604051633d0b0cf760e21b815263ffffffff82166004820152602401610985565b803563ffffffff81168114610fbf575f80fd5b919050565b5f805f60608486031215610fd6575f80fd5b610fdf84610fac565b95602085013595506040909401359392505050565b80356001600160801b0381168114610fbf575f80fd5b5f6020828403121561101a575f80fd5b61102382610ff4565b9392505050565b5f806020838503121561103b575f80fd5b82356001600160401b0380821115611051575f80fd5b818501915085601f830112611064575f80fd5b813581811115611072575f80fd5b8660208260071b8501011115611086575f80fd5b60209290920196919550909350505050565b80356001600160a01b0381168114610fbf575f80fd5b5f80604083850312156110bf575f80fd5b6110c883611098565b9150602083013580151581146110dc575f80fd5b809150509250929050565b803561ffff81168114610fbf575f80fd5b5f805f6060848603121561110a575f80fd5b610fdf846110e7565b5f60c08284031215611123575f80fd5b50919050565b5f60208284031215611139575f80fd5b61102382611098565b5f60208284031215611152575f80fd5b61102382610fac565b5f6020828403121561116b575f80fd5b611023826110e7565b5f8060408385031215611185575f80fd5b61118e83611098565b946020939093013593505050565b634e487b7160e01b5f52603260045260245ffd5b80356001600160401b0381168114610fbf575f80fd5b5f606082840312156111d6575f80fd5b604051606081018181106001600160401b038211171561120457634e487b7160e01b5f52604160045260245ffd5b60405261121083610ff4565b815261121e602084016111b0565b602082015261122f60408401610fac565b60408201529392505050565b5f6020828403121561124b575f80fd5b611023826111b0565b634e487b7160e01b5f52601160045260245ffd5b808202811582820484141761127f5761127f611254565b92915050565b634e487b7160e01b5f52601260045260245ffd5b5f826112a7576112a7611285565b500490565b8082018082111561127f5761127f611254565b5f63ffffffff808416806112d5576112d5611285565b9216919091069291505056fea2646970667358221220839deb491521d7825d0de338f43008a8fba3f96f1f9ee0466842c3d64baeed9d64736f6c63430008170033","linkReferences":{}},"methodIdentifiers":{"ARBITRUM_COMPRESSION_PERCENT()":"cd68b79b","arbitrumPriceExt()":"36a5beba","endpoint()":"5e280f11","estimateFeeByChain(uint16,uint256,uint256)":"7bc3c9ab","estimateFeeByEid(uint32,uint256,uint256)":"88a4124c","estimateFeeOnSend(uint32,uint256,uint256)":"c1723a1d","getFee(uint32,uint256,uint256)":"11f2c343","getPrice(uint16)":"e0ad121a","getPrice(uint32)":"da26663a","getPriceRatioDenominator()":"c1840327","nativeTokenPriceUSD()":"92807f58","owner()":"8da5cb5b","priceUpdater(address)":"8ca2fb08","renounceOwnership()":"715018a6","setArbitrumCompressionPercent(uint128)":"2f7cb0b4","setEndpoint(address)":"dbbb4155","setNativeTokenPriceUSD(uint128)":"5d6d7ccb","setPrice((uint32,(uint128,uint64,uint32))[])":"3161b7f6","setPriceForArbitrum((uint32,(uint128,uint64,uint32),(uint64,uint32)))":"7dc438a4","setPriceRatioDenominator(uint128)":"d350ad25","setPriceUpdater(address,bool)":"52a72510","transferOwnership(address)":"f2fde38b","withdrawFee(address,uint256)":"fd9be522"},"storageLayout":{"storage":[{"astId":70923,"contract":"lib/devtools/packages/test-devtools-evm-foundry/contracts/mocks/PriceFeedMock.sol:PriceFeedMock","label":"_owner","offset":0,"slot":"0","type":"t_address"},{"astId":13420,"contract":"lib/devtools/packages/test-devtools-evm-foundry/contracts/mocks/PriceFeedMock.sol:PriceFeedMock","label":"PRICE_RATIO_DENOMINATOR","offset":0,"slot":"1","type":"t_uint128"},{"astId":13424,"contract":"lib/devtools/packages/test-devtools-evm-foundry/contracts/mocks/PriceFeedMock.sol:PriceFeedMock","label":"priceUpdater","offset":0,"slot":"2","type":"t_mapping(t_address,t_bool)"},{"astId":13429,"contract":"lib/devtools/packages/test-devtools-evm-foundry/contracts/mocks/PriceFeedMock.sol:PriceFeedMock","label":"_defaultModelPrice","offset":0,"slot":"3","type":"t_mapping(t_uint32,t_struct(Price)58435_storage)"},{"astId":13432,"contract":"lib/devtools/packages/test-devtools-evm-foundry/contracts/mocks/PriceFeedMock.sol:PriceFeedMock","label":"_arbitrumPriceExt","offset":0,"slot":"4","type":"t_struct(ArbitrumPriceExt)58447_storage"},{"astId":13434,"contract":"lib/devtools/packages/test-devtools-evm-foundry/contracts/mocks/PriceFeedMock.sol:PriceFeedMock","label":"_nativePriceUSD","offset":0,"slot":"5","type":"t_uint128"},{"astId":13436,"contract":"lib/devtools/packages/test-devtools-evm-foundry/contracts/mocks/PriceFeedMock.sol:PriceFeedMock","label":"ARBITRUM_COMPRESSION_PERCENT","offset":16,"slot":"5","type":"t_uint128"},{"astId":13439,"contract":"lib/devtools/packages/test-devtools-evm-foundry/contracts/mocks/PriceFeedMock.sol:PriceFeedMock","label":"endpoint","offset":0,"slot":"6","type":"t_contract(ILayerZeroEndpointV2)65067"}],"types":{"t_address":{"encoding":"inplace","label":"address","numberOfBytes":"20"},"t_bool":{"encoding":"inplace","label":"bool","numberOfBytes":"1"},"t_contract(ILayerZeroEndpointV2)65067":{"encoding":"inplace","label":"contract ILayerZeroEndpointV2","numberOfBytes":"20"},"t_mapping(t_address,t_bool)":{"encoding":"mapping","key":"t_address","label":"mapping(address => bool)","numberOfBytes":"32","value":"t_bool"},"t_mapping(t_uint32,t_struct(Price)58435_storage)":{"encoding":"mapping","key":"t_uint32","label":"mapping(uint32 => struct ILayerZeroPriceFeed.Price)","numberOfBytes":"32","value":"t_struct(Price)58435_storage"},"t_struct(ArbitrumPriceExt)58447_storage":{"encoding":"inplace","label":"struct ILayerZeroPriceFeed.ArbitrumPriceExt","numberOfBytes":"32","members":[{"astId":58444,"contract":"lib/devtools/packages/test-devtools-evm-foundry/contracts/mocks/PriceFeedMock.sol:PriceFeedMock","label":"gasPerL2Tx","offset":0,"slot":"0","type":"t_uint64"},{"astId":58446,"contract":"lib/devtools/packages/test-devtools-evm-foundry/contracts/mocks/PriceFeedMock.sol:PriceFeedMock","label":"gasPerL1CallDataByte","offset":8,"slot":"0","type":"t_uint32"}]},"t_struct(Price)58435_storage":{"encoding":"inplace","label":"struct ILayerZeroPriceFeed.Price","numberOfBytes":"32","members":[{"astId":58430,"contract":"lib/devtools/packages/test-devtools-evm-foundry/contracts/mocks/PriceFeedMock.sol:PriceFeedMock","label":"priceRatio","offset":0,"slot":"0","type":"t_uint128"},{"astId":58432,"contract":"lib/devtools/packages/test-devtools-evm-foundry/contracts/mocks/PriceFeedMock.sol:PriceFeedMock","label":"gasPriceInUnit","offset":16,"slot":"0","type":"t_uint64"},{"astId":58434,"contract":"lib/devtools/packages/test-devtools-evm-foundry/contracts/mocks/PriceFeedMock.sol:PriceFeedMock","label":"gasPerByte","offset":24,"slot":"0","type":"t_uint32"}]},"t_uint128":{"encoding":"inplace","label":"uint128","numberOfBytes":"16"},"t_uint32":{"encoding":"inplace","label":"uint32","numberOfBytes":"4"},"t_uint64":{"encoding":"inplace","label":"uint64","numberOfBytes":"8"}}},"id":34}