{"abi":[{"type":"constructor","inputs":[{"name":"_localEidV2","type":"uint32","internalType":"uint32"}],"stateMutability":"nonpayable"},{"type":"receive","stateMutability":"payable"},{"type":"function","name":"getFee","inputs":[{"name":"_params","type":"tuple","internalType":"struct IExecutorFeeLib.FeeParamsForRead","components":[{"name":"priceFeed","type":"address","internalType":"address"},{"name":"sender","type":"address","internalType":"address"},{"name":"defaultMultiplierBps","type":"uint16","internalType":"uint16"}]},{"name":"_dstConfig","type":"tuple","internalType":"struct IExecutor.DstConfig","components":[{"name":"lzReceiveBaseGas","type":"uint64","internalType":"uint64"},{"name":"multiplierBps","type":"uint16","internalType":"uint16"},{"name":"floorMarginUSD","type":"uint128","internalType":"uint128"},{"name":"nativeCap","type":"uint128","internalType":"uint128"},{"name":"lzComposeBaseGas","type":"uint64","internalType":"uint64"}]},{"name":"_options","type":"bytes","internalType":"bytes"}],"outputs":[{"name":"fee","type":"uint256","internalType":"uint256"}],"stateMutability":"view"},{"type":"function","name":"getFee","inputs":[{"name":"_params","type":"tuple","internalType":"struct IExecutorFeeLib.FeeParams","components":[{"name":"priceFeed","type":"address","internalType":"address"},{"name":"dstEid","type":"uint32","internalType":"uint32"},{"name":"sender","type":"address","internalType":"address"},{"name":"calldataSize","type":"uint256","internalType":"uint256"},{"name":"defaultMultiplierBps","type":"uint16","internalType":"uint16"}]},{"name":"_dstConfig","type":"tuple","internalType":"struct IExecutor.DstConfig","components":[{"name":"lzReceiveBaseGas","type":"uint64","internalType":"uint64"},{"name":"multiplierBps","type":"uint16","internalType":"uint16"},{"name":"floorMarginUSD","type":"uint128","internalType":"uint128"},{"name":"nativeCap","type":"uint128","internalType":"uint128"},{"name":"lzComposeBaseGas","type":"uint64","internalType":"uint64"}]},{"name":"_options","type":"bytes","internalType":"bytes"}],"outputs":[{"name":"fee","type":"uint256","internalType":"uint256"}],"stateMutability":"view"},{"type":"function","name":"getFeeOnSend","inputs":[{"name":"_params","type":"tuple","internalType":"struct IExecutorFeeLib.FeeParams","components":[{"name":"priceFeed","type":"address","internalType":"address"},{"name":"dstEid","type":"uint32","internalType":"uint32"},{"name":"sender","type":"address","internalType":"address"},{"name":"calldataSize","type":"uint256","internalType":"uint256"},{"name":"defaultMultiplierBps","type":"uint16","internalType":"uint16"}]},{"name":"_dstConfig","type":"tuple","internalType":"struct IExecutor.DstConfig","components":[{"name":"lzReceiveBaseGas","type":"uint64","internalType":"uint64"},{"name":"multiplierBps","type":"uint16","internalType":"uint16"},{"name":"floorMarginUSD","type":"uint128","internalType":"uint128"},{"name":"nativeCap","type":"uint128","internalType":"uint128"},{"name":"lzComposeBaseGas","type":"uint64","internalType":"uint64"}]},{"name":"_options","type":"bytes","internalType":"bytes"}],"outputs":[{"name":"fee","type":"uint256","internalType":"uint256"}],"stateMutability":"view"},{"type":"function","name":"getFeeOnSend","inputs":[{"name":"_params","type":"tuple","internalType":"struct IExecutorFeeLib.FeeParamsForRead","components":[{"name":"priceFeed","type":"address","internalType":"address"},{"name":"sender","type":"address","internalType":"address"},{"name":"defaultMultiplierBps","type":"uint16","internalType":"uint16"}]},{"name":"_dstConfig","type":"tuple","internalType":"struct IExecutor.DstConfig","components":[{"name":"lzReceiveBaseGas","type":"uint64","internalType":"uint64"},{"name":"multiplierBps","type":"uint16","internalType":"uint16"},{"name":"floorMarginUSD","type":"uint128","internalType":"uint128"},{"name":"nativeCap","type":"uint128","internalType":"uint128"},{"name":"lzComposeBaseGas","type":"uint64","internalType":"uint64"}]},{"name":"_options","type":"bytes","internalType":"bytes"}],"outputs":[{"name":"fee","type":"uint256","internalType":"uint256"}],"stateMutability":"view"},{"type":"function","name":"owner","inputs":[],"outputs":[{"name":"","type":"address","internalType":"address"}],"stateMutability":"view"},{"type":"function","name":"renounceOwnership","inputs":[],"outputs":[],"stateMutability":"nonpayable"},{"type":"function","name":"transferOwnership","inputs":[{"name":"newOwner","type":"address","internalType":"address"}],"outputs":[],"stateMutability":"nonpayable"},{"type":"function","name":"version","inputs":[],"outputs":[{"name":"major","type":"uint64","internalType":"uint64"},{"name":"minor","type":"uint8","internalType":"uint8"}],"stateMutability":"pure"},{"type":"function","name":"withdrawToken","inputs":[{"name":"_token","type":"address","internalType":"address"},{"name":"_to","type":"address","internalType":"address"},{"name":"_amount","type":"uint256","internalType":"uint256"}],"outputs":[],"stateMutability":"nonpayable"},{"type":"event","name":"OwnershipTransferred","inputs":[{"name":"previousOwner","type":"address","indexed":true,"internalType":"address"},{"name":"newOwner","type":"address","indexed":true,"internalType":"address"}],"anonymous":false},{"type":"error","name":"Executor_EidNotSupported","inputs":[{"name":"eid","type":"uint32","internalType":"uint32"}]},{"type":"error","name":"Executor_InvalidExecutorOptions","inputs":[{"name":"cursor","type":"uint256","internalType":"uint256"}]},{"type":"error","name":"Executor_InvalidLzComposeOption","inputs":[]},{"type":"error","name":"Executor_InvalidLzReadOption","inputs":[]},{"type":"error","name":"Executor_InvalidLzReceiveOption","inputs":[]},{"type":"error","name":"Executor_InvalidNativeDropOption","inputs":[]},{"type":"error","name":"Executor_NativeAmountExceedsCap","inputs":[{"name":"amount","type":"uint256","internalType":"uint256"},{"name":"cap","type":"uint256","internalType":"uint256"}]},{"type":"error","name":"Executor_NoOptions","inputs":[]},{"type":"error","name":"Executor_UnsupportedOptionType","inputs":[{"name":"optionType","type":"uint8","internalType":"uint8"}]},{"type":"error","name":"Executor_ZeroCalldataSizeProvided","inputs":[]},{"type":"error","name":"Executor_ZeroLzComposeGasProvided","inputs":[]},{"type":"error","name":"Executor_ZeroLzReceiveGasProvided","inputs":[]},{"type":"error","name":"OwnableInvalidOwner","inputs":[{"name":"owner","type":"address","internalType":"address"}]},{"type":"error","name":"OwnableUnauthorizedAccount","inputs":[{"name":"account","type":"address","internalType":"address"}]},{"type":"error","name":"SafeERC20FailedOperation","inputs":[{"name":"token","type":"address","internalType":"address"}]},{"type":"error","name":"Transfer_NativeFailed","inputs":[{"name":"_to","type":"address","internalType":"address"},{"name":"_value","type":"uint256","internalType":"uint256"}]},{"type":"error","name":"Transfer_ToAddressIsZero","inputs":[]}],"bytecode":{"object":"0x60c060405234801561000f575f80fd5b5060405161159538038061159583398101604081905261002e916100c6565b338061005357604051631e4fbdf760e01b81525f600482015260240160405180910390fd5b61005c81610077565b5063ffffffff1660a052670de0b6b3a76400006080526100f0565b5f80546001600160a01b038381166001600160a01b0319831681178455604051919092169283917f8be0079c531659141344cd1fd0a4f28419497f9722a3daafe3b4186f6b6457e09190a35050565b5f602082840312156100d6575f80fd5b815163ffffffff811681146100e9575f80fd5b9392505050565b60805160a05161147d6101185f395f818161020501526102a001525f610730015261147d5ff3fe608060405260043610610087575f3560e01c8063566ef76211610057578063566ef762146101245780636500378414610143578063715018a6146101625780638da5cb5b14610176578063f2fde38b1461019c575f80fd5b806301e3366714610092578063337c7a9e146100b3578063434ee016146100e557806354fd4d5014610104575f80fd5b3661008e57005b5f80fd5b34801561009d575f80fd5b506100b16100ac36600461106b565b6101bb565b005b3480156100be575f80fd5b506100d26100cd3660046110ff565b6101d3565b6040519081526020015b60405180910390f35b3480156100f0575f80fd5b506100d26100ff366004611166565b6103ad565b34801561010f575f80fd5b506040805160018082526020820152016100dc565b34801561012f575f80fd5b506100d261013e366004611166565b610571565b34801561014e575f80fd5b506100d261015d3660046110ff565b610587565b34801561016d575f80fd5b506100b1610594565b348015610181575f80fd5b505f546040516001600160a01b0390911681526020016100dc565b3480156101a7575f80fd5b506100b16101b63660046111af565b6105a7565b6101c36105e4565b6101ce838383610610565b505050565b5f6101e160208501856111cf565b67ffffffffffffffff165f036102375760405163c3baa0b760e01b815263ffffffff7f00000000000000000000000000000000000000000000000000000000000000001660048201526024015b60405180910390fd5b5f808061027460018261024d60208b018b6111cf565b61025d60a08c0160808d016111cf565b61026d60808d0160608e0161120a565b8b8b610633565b919450925090505f80808061028c60208d018d6111af565b604051632229049360e21b815263ffffffff7f00000000000000000000000000000000000000000000000000000000000000008116600483015287166024820152604481018890526001600160a01b0391909116906388a4124c90606401608060405180830381865afa158015610305573d5f803e3d5ffd5b505050506040513d601f19601f820116820180604052508101906103299190611225565b929650909450925090506103738461034760408e0160208f01611277565b8e604001602081019061035a9190611277565b8e604001602081019061036d919061120a565b856106c3565b97506103938784848f604001602081019061038e9190611277565b610795565b61039d90896112ac565b9c9b505050505050505050505050565b5f6103bb60208501856111cf565b67ffffffffffffffff165f036103fd576103db60408601602087016112c5565b60405163c3baa0b760e01b815263ffffffff909116600482015260240161022e565b5f8061044f8161041b61041660408b0160208c016112c5565b505f90565b61042860208a018a6111cf565b61043860a08b0160808c016111cf565b61044860808c0160608d0161120a565b8a8a610633565b5090925090505f80808061046660208c018c6111af565b6001600160a01b03166388a4124c61048460408e0160208f016112c5565b6040516001600160e01b031960e084901b16815263ffffffff91909116600482015260608e0135602482015260448101889052606401608060405180830381865afa1580156104d5573d5f803e3d5ffd5b505050506040513d601f19601f820116820180604052508101906104f99190611225565b9296509094509250905061053d8461051760408d0160208e01611277565b8d608001602081019061052a9190611277565b8d604001602081019061036d919061120a565b96506105588684848e608001602081019061038e9190611277565b61056290886112ac565b9b9a5050505050505050505050565b5f61057e858585856103ad565b95945050505050565b5f61057e858585856101d3565b61059c6105e4565b6105a55f6107e9565b565b6105af6105e4565b6001600160a01b0381166105d857604051631e4fbdf760e01b81525f600482015260240161022e565b6105e1816107e9565b50565b5f546001600160a01b031633146105a55760405163118cdaa760e01b815233600482015260240161022e565b6001600160a01b038316610628576101ce8282610838565b6101ce8383836108e1565b5f805f8061064486868d8d8b61091c565b805160608201516080830151919650935090915061066c9067ffffffffffffffff8a166112e8565b60208201516106859067ffffffffffffffff8c166112ac565b61068f91906112ac565b92508060400151156106b55760646106a88460666112e8565b6106b291906112ff565b92505b509750975097945050505050565b5f8061ffff8616156106d557856106d7565b845b90505f6127106106eb61ffff84168a6112e8565b6106f591906112ff565b90506001600160801b038416158061071457506001600160801b038516155b1561072257915061057e9050565b5f88856001600160801b03167f0000000000000000000000000000000000000000000000000000000000000000886001600160801b031661076391906112e8565b61076d91906112ff565b61077791906112ac565b90508181116107865781610788565b805b9998505050505050505050565b5f84156107e1576127108261ffff16846001600160801b0316866001600160801b0316886107c391906112e8565b6107cd91906112ff565b6107d791906112e8565b61057e91906112ff565b949350505050565b5f80546001600160a01b038381166001600160a01b0319831681178455604051919092169283917f8be0079c531659141344cd1fd0a4f28419497f9722a3daafe3b4186f6b6457e09190a35050565b6001600160a01b03821661085f576040516306b7a93160e41b815260040160405180910390fd5b5f826001600160a01b0316826040515f6040518083038185875af1925050503d805f81146108a8576040519150601f19603f3d011682016040523d82523d5f602084013e6108ad565b606091505b50509050806101ce57604051631196f20d60e21b81526001600160a01b03841660048201526024810183905260440161022e565b6001600160a01b038216610908576040516306b7a93160e41b815260040160405180910390fd5b6101ce6001600160a01b0384168383610d10565b6109516040518060a001604052805f81526020015f81526020015f151581526020015f63ffffffff1681526020015f81525090565b5f8590036109715760405162575ea160e01b815260040160405180910390fd5b5f80805b87831015610c33575f36818061098c8d8d89610d62565b9950919550935091508690505f1960ff851601610a48578a156109c75760405163052e551560e01b815260ff8516600482015260240161022e565b5f806109d38585610db7565b915091508b80156109ec57505f816001600160801b0316115b15610a0f5760405163052e551560e01b815260ff8716600482015260240161022e565b806001600160801b03168a5f01818151610a2991906112ac565b905250610a3f6001600160801b038316896112ac565b97505050610c2a565b60011960ff851601610aaa578a15610a785760405163052e551560e01b815260ff8516600482015260240161022e565b5f610a838484610e19565b509050806001600160801b0316895f01818151610aa091906112ac565b905250610c2a9050565b60021960ff851601610b6c578915610ada5760405163052e551560e01b815260ff8516600482015260240161022e565b5f80610ae68585610e55565b9250925050816001600160801b03165f03610b145760405163a169d0e160e01b815260040160405180910390fd5b806001600160801b03168a5f01818151610b2e91906112ac565b90525060208a0180516001600160801b0384169190610b4e9083906112ac565b90525060808a01805190610b618261131e565b815250505050610c2a565b60031960ff851601610b845760016040890152610c2a565b60041960ff851601610c0c578a610bb35760405163052e551560e01b815260ff8516600482015260240161022e565b5f805f610bc08686610ec6565b925092509250806001600160801b03168b5f01818151610be091906112ac565b905250610bf66001600160801b0384168a6112ac565b9850610c028289611336565b9750505050610c2a565b60405163052e551560e01b815260ff8516600482015260240161022e565b50505050610975565b828814610c5657604051634c83bb7560e11b81526004810184905260240161022e565b83516001600160801b0386161015610c955783516040516242670160e11b815260048101919091526001600160801b038616602482015260440161022e565b815f03610cb557604051630e5eb8f360e41b815260040160405180910390fd5b868015610cc6575063ffffffff8116155b15610ce4576040516336619f8360e11b815260040160405180910390fd5b8184602001818151610cf691906112ac565b90525063ffffffff16606084015250909695505050505050565b604080516001600160a01b038416602482015260448082018490528251808303909101815260649091019091526020810180516001600160e01b031663a9059cbb60e01b1790526101ce908490610f2e565b5f36816001840181610d75888884610fa0565b600292909201919050610d89888884610fc6565b94506001820161ffff82168301610da281838b8d61135a565b979b909a50969850505061ffff160193505050565b5f8060108314801590610dcb575060208314155b15610de957604051634796aee160e01b815260040160405180910390fd5b610df484845f610fea565b915060208314610e04575f610e10565b610e1084846010610fea565b90509250929050565b5f8060308314610e3c576040516361d0c2c760e11b815260040160405180910390fd5b610e4784845f610fea565b9150610e1084846010611010565b5f808060128414801590610e6a575060228414155b15610e8857604051638b4aa70b60e01b815260040160405180910390fd5b610e9385855f610fa0565b9250610ea185856002610fea565b915060228414610eb1575f610ebd565b610ebd85856012610fea565b90509250925092565b5f808060148414801590610edb575060248414155b15610ef957604051636f5bff2160e11b815260040160405180910390fd5b610f0485855f610fea565b9250610f128585601061102a565b915060248414610f22575f610ebd565b610ebd85856014610fea565b5f8060205f8451602086015f885af180610f4d576040513d5f823e3d81fd5b50505f513d91508115610f64578060011415610f71565b6001600160a01b0384163b155b15610f9a57604051635274afe760e01b81526001600160a01b038516600482015260240161022e565b50505050565b5f60028201610fb18184868861135a565b610fba91611381565b60f01c95945050505050565b5f838383818110610fd957610fd96113b1565b919091013560f81c95945050505050565b5f60108201610ffb8184868861135a565b611004916113c5565b60801c95945050505050565b5f602082016110218184868861135a565b61057e916113fc565b5f6004820161103b8184868861135a565b61104491611419565b60e01c95945050505050565b80356001600160a01b0381168114611066575f80fd5b919050565b5f805f6060848603121561107d575f80fd5b61108684611050565b925061109460208501611050565b9150604084013590509250925092565b5f60a082840312156110b4575f80fd5b50919050565b5f8083601f8401126110ca575f80fd5b50813567ffffffffffffffff8111156110e1575f80fd5b6020830191508360208285010111156110f8575f80fd5b9250929050565b5f805f80848603610120811215611114575f80fd5b6060811215611121575f80fd5b5084935061113286606087016110a4565b925061010085013567ffffffffffffffff81111561114e575f80fd5b61115a878288016110ba565b95989497509550505050565b5f805f80610160858703121561117a575f80fd5b61118486866110a4565b93506111938660a087016110a4565b925061014085013567ffffffffffffffff81111561114e575f80fd5b5f602082840312156111bf575f80fd5b6111c882611050565b9392505050565b5f602082840312156111df575f80fd5b813567ffffffffffffffff811681146111c8575f80fd5b6001600160801b03811681146105e1575f80fd5b5f6020828403121561121a575f80fd5b81356111c8816111f6565b5f805f8060808587031215611238575f80fd5b84519350602085015161124a816111f6565b604086015190935061125b816111f6565b606086015190925061126c816111f6565b939692955090935050565b5f60208284031215611287575f80fd5b813561ffff811681146111c8575f80fd5b634e487b7160e01b5f52601160045260245ffd5b808201808211156112bf576112bf611298565b92915050565b5f602082840312156112d5575f80fd5b813563ffffffff811681146111c8575f80fd5b80820281158282048414176112bf576112bf611298565b5f8261131957634e487b7160e01b5f52601260045260245ffd5b500490565b5f6001820161132f5761132f611298565b5060010190565b63ffffffff81811683821601908082111561135357611353611298565b5092915050565b5f8085851115611368575f80fd5b83861115611374575f80fd5b5050820193919092039150565b6001600160f01b031981358181169160028510156113a95780818660020360031b1b83161692505b505092915050565b634e487b7160e01b5f52603260045260245ffd5b6fffffffffffffffffffffffffffffffff1981358181169160108510156113a95760109490940360031b84901b1690921692915050565b803560208310156112bf575f19602084900360031b1b1692915050565b6001600160e01b031981358181169160048510156113a95760049490940360031b84901b169092169291505056fea2646970667358221220520e20af6460149ffabff081c86f6518e4b10010f6bad3facbc3a24d0b57aeff64736f6c63430008170033","linkReferences":{}},"methodIdentifiers":{"getFee((address,address,uint16),(uint64,uint16,uint128,uint128,uint64),bytes)":"337c7a9e","getFee((address,uint32,address,uint256,uint16),(uint64,uint16,uint128,uint128,uint64),bytes)":"434ee016","getFeeOnSend((address,address,uint16),(uint64,uint16,uint128,uint128,uint64),bytes)":"65003784","getFeeOnSend((address,uint32,address,uint256,uint16),(uint64,uint16,uint128,uint128,uint64),bytes)":"566ef762","owner()":"8da5cb5b","renounceOwnership()":"715018a6","transferOwnership(address)":"f2fde38b","version()":"54fd4d50","withdrawToken(address,address,uint256)":"01e33667"},"storageLayout":{"storage":[{"astId":70923,"contract":"lib/devtools/packages/test-devtools-evm-foundry/contracts/mocks/ExecutorFeeLibMock.sol:ExecutorFeeLibMock","label":"_owner","offset":0,"slot":"0","type":"t_address"}],"types":{"t_address":{"encoding":"inplace","label":"address","numberOfBytes":"20"}}},"id":31}