{"abi":[{"type":"constructor","inputs":[{"name":"rlcToken","type":"address","internalType":"address"}],"stateMutability":"nonpayable"},{"type":"function","name":"DEFAULT_ADMIN_ROLE","inputs":[],"outputs":[{"name":"","type":"bytes32","internalType":"bytes32"}],"stateMutability":"view"},{"type":"function","name":"RLC_TOKEN","inputs":[],"outputs":[{"name":"","type":"address","internalType":"contract IERC20Metadata"}],"stateMutability":"view"},{"type":"function","name":"TOKEN_BRIDGE_ROLE","inputs":[],"outputs":[{"name":"","type":"bytes32","internalType":"bytes32"}],"stateMutability":"view"},{"type":"function","name":"UPGRADER_ROLE","inputs":[],"outputs":[{"name":"","type":"bytes32","internalType":"bytes32"}],"stateMutability":"view"},{"type":"function","name":"UPGRADE_INTERFACE_VERSION","inputs":[],"outputs":[{"name":"","type":"string","internalType":"string"}],"stateMutability":"view"},{"type":"function","name":"acceptDefaultAdminTransfer","inputs":[],"outputs":[],"stateMutability":"nonpayable"},{"type":"function","name":"beginDefaultAdminTransfer","inputs":[{"name":"newAdmin","type":"address","internalType":"address"}],"outputs":[],"stateMutability":"nonpayable"},{"type":"function","name":"cancelDefaultAdminTransfer","inputs":[],"outputs":[],"stateMutability":"nonpayable"},{"type":"function","name":"changeDefaultAdminDelay","inputs":[{"name":"newDelay","type":"uint48","internalType":"uint48"}],"outputs":[],"stateMutability":"nonpayable"},{"type":"function","name":"crosschainBurn","inputs":[{"name":"from","type":"address","internalType":"address"},{"name":"value","type":"uint256","internalType":"uint256"}],"outputs":[],"stateMutability":"nonpayable"},{"type":"function","name":"crosschainMint","inputs":[{"name":"to","type":"address","internalType":"address"},{"name":"value","type":"uint256","internalType":"uint256"}],"outputs":[],"stateMutability":"nonpayable"},{"type":"function","name":"decimals","inputs":[],"outputs":[{"name":"","type":"uint8","internalType":"uint8"}],"stateMutability":"pure"},{"type":"function","name":"defaultAdmin","inputs":[],"outputs":[{"name":"","type":"address","internalType":"address"}],"stateMutability":"view"},{"type":"function","name":"defaultAdminDelay","inputs":[],"outputs":[{"name":"","type":"uint48","internalType":"uint48"}],"stateMutability":"view"},{"type":"function","name":"defaultAdminDelayIncreaseWait","inputs":[],"outputs":[{"name":"","type":"uint48","internalType":"uint48"}],"stateMutability":"view"},{"type":"function","name":"getRoleAdmin","inputs":[{"name":"role","type":"bytes32","internalType":"bytes32"}],"outputs":[{"name":"","type":"bytes32","internalType":"bytes32"}],"stateMutability":"view"},{"type":"function","name":"grantRole","inputs":[{"name":"role","type":"bytes32","internalType":"bytes32"},{"name":"account","type":"address","internalType":"address"}],"outputs":[],"stateMutability":"nonpayable"},{"type":"function","name":"hasRole","inputs":[{"name":"role","type":"bytes32","internalType":"bytes32"},{"name":"account","type":"address","internalType":"address"}],"outputs":[{"name":"","type":"bool","internalType":"bool"}],"stateMutability":"view"},{"type":"function","name":"initialize","inputs":[{"name":"initialAdmin","type":"address","internalType":"address"},{"name":"initialUpgrader","type":"address","internalType":"address"}],"outputs":[],"stateMutability":"nonpayable"},{"type":"function","name":"owner","inputs":[],"outputs":[{"name":"","type":"address","internalType":"address"}],"stateMutability":"view"},{"type":"function","name":"pendingDefaultAdmin","inputs":[],"outputs":[{"name":"newAdmin","type":"address","internalType":"address"},{"name":"schedule","type":"uint48","internalType":"uint48"}],"stateMutability":"view"},{"type":"function","name":"pendingDefaultAdminDelay","inputs":[],"outputs":[{"name":"newDelay","type":"uint48","internalType":"uint48"},{"name":"schedule","type":"uint48","internalType":"uint48"}],"stateMutability":"view"},{"type":"function","name":"proxiableUUID","inputs":[],"outputs":[{"name":"","type":"bytes32","internalType":"bytes32"}],"stateMutability":"view"},{"type":"function","name":"renounceRole","inputs":[{"name":"role","type":"bytes32","internalType":"bytes32"},{"name":"account","type":"address","internalType":"address"}],"outputs":[],"stateMutability":"nonpayable"},{"type":"function","name":"revokeRole","inputs":[{"name":"role","type":"bytes32","internalType":"bytes32"},{"name":"account","type":"address","internalType":"address"}],"outputs":[],"stateMutability":"nonpayable"},{"type":"function","name":"rollbackDefaultAdminDelay","inputs":[],"outputs":[],"stateMutability":"nonpayable"},{"type":"function","name":"supportsInterface","inputs":[{"name":"interfaceId","type":"bytes4","internalType":"bytes4"}],"outputs":[{"name":"","type":"bool","internalType":"bool"}],"stateMutability":"view"},{"type":"function","name":"upgradeToAndCall","inputs":[{"name":"newImplementation","type":"address","internalType":"address"},{"name":"data","type":"bytes","internalType":"bytes"}],"outputs":[],"stateMutability":"payable"},{"type":"event","name":"CrosschainBurn","inputs":[{"name":"from","type":"address","indexed":true,"internalType":"address"},{"name":"amount","type":"uint256","indexed":false,"internalType":"uint256"},{"name":"sender","type":"address","indexed":true,"internalType":"address"}],"anonymous":false},{"type":"event","name":"CrosschainMint","inputs":[{"name":"to","type":"address","indexed":true,"internalType":"address"},{"name":"amount","type":"uint256","indexed":false,"internalType":"uint256"},{"name":"sender","type":"address","indexed":true,"internalType":"address"}],"anonymous":false},{"type":"event","name":"DefaultAdminDelayChangeCanceled","inputs":[],"anonymous":false},{"type":"event","name":"DefaultAdminDelayChangeScheduled","inputs":[{"name":"newDelay","type":"uint48","indexed":false,"internalType":"uint48"},{"name":"effectSchedule","type":"uint48","indexed":false,"internalType":"uint48"}],"anonymous":false},{"type":"event","name":"DefaultAdminTransferCanceled","inputs":[],"anonymous":false},{"type":"event","name":"DefaultAdminTransferScheduled","inputs":[{"name":"newAdmin","type":"address","indexed":true,"internalType":"address"},{"name":"acceptSchedule","type":"uint48","indexed":false,"internalType":"uint48"}],"anonymous":false},{"type":"event","name":"Initialized","inputs":[{"name":"version","type":"uint64","indexed":false,"internalType":"uint64"}],"anonymous":false},{"type":"event","name":"RoleAdminChanged","inputs":[{"name":"role","type":"bytes32","indexed":true,"internalType":"bytes32"},{"name":"previousAdminRole","type":"bytes32","indexed":true,"internalType":"bytes32"},{"name":"newAdminRole","type":"bytes32","indexed":true,"internalType":"bytes32"}],"anonymous":false},{"type":"event","name":"RoleGranted","inputs":[{"name":"role","type":"bytes32","indexed":true,"internalType":"bytes32"},{"name":"account","type":"address","indexed":true,"internalType":"address"},{"name":"sender","type":"address","indexed":true,"internalType":"address"}],"anonymous":false},{"type":"event","name":"RoleRevoked","inputs":[{"name":"role","type":"bytes32","indexed":true,"internalType":"bytes32"},{"name":"account","type":"address","indexed":true,"internalType":"address"},{"name":"sender","type":"address","indexed":true,"internalType":"address"}],"anonymous":false},{"type":"event","name":"Upgraded","inputs":[{"name":"implementation","type":"address","indexed":true,"internalType":"address"}],"anonymous":false},{"type":"error","name":"AccessControlBadConfirmation","inputs":[]},{"type":"error","name":"AccessControlEnforcedDefaultAdminDelay","inputs":[{"name":"schedule","type":"uint48","internalType":"uint48"}]},{"type":"error","name":"AccessControlEnforcedDefaultAdminRules","inputs":[]},{"type":"error","name":"AccessControlInvalidDefaultAdmin","inputs":[{"name":"defaultAdmin","type":"address","internalType":"address"}]},{"type":"error","name":"AccessControlUnauthorizedAccount","inputs":[{"name":"account","type":"address","internalType":"address"},{"name":"neededRole","type":"bytes32","internalType":"bytes32"}]},{"type":"error","name":"AddressEmptyCode","inputs":[{"name":"target","type":"address","internalType":"address"}]},{"type":"error","name":"ERC1967InvalidImplementation","inputs":[{"name":"implementation","type":"address","internalType":"address"}]},{"type":"error","name":"ERC1967NonPayable","inputs":[]},{"type":"error","name":"ERC7802InvalidFromAddress","inputs":[{"name":"addr","type":"address","internalType":"address"}]},{"type":"error","name":"ERC7802InvalidToAddress","inputs":[{"name":"addr","type":"address","internalType":"address"}]},{"type":"error","name":"FailedCall","inputs":[]},{"type":"error","name":"InvalidInitialization","inputs":[]},{"type":"error","name":"NotInitializing","inputs":[]},{"type":"error","name":"SafeCastOverflowedUintDowncast","inputs":[{"name":"bits","type":"uint8","internalType":"uint8"},{"name":"value","type":"uint256","internalType":"uint256"}]},{"type":"error","name":"SafeERC20FailedOperation","inputs":[{"name":"token","type":"address","internalType":"address"}]},{"type":"error","name":"UUPSUnauthorizedCallContext","inputs":[]},{"type":"error","name":"UUPSUnsupportedProxiableUUID","inputs":[{"name":"slot","type":"bytes32","internalType":"bytes32"}]}],"bytecode":{"object":"0x60c06040523060805234801562000014575f80fd5b5060405162001cb838038062001cb8833981016040819052620000379162000107565b6200004162000053565b6001600160a01b031660a05262000136565b7ff0c57e16840df040f15088dc2f81fe391c3923bec73e23a9662efc9c229c6a00805468010000000000000000900460ff1615620000a45760405163f92ee8a960e01b815260040160405180910390fd5b80546001600160401b0390811614620001045780546001600160401b0319166001600160401b0390811782556040519081527fc7f505b2f371ae2175ee4913f4499e1f2633a7b5936321eed1cdaeb6115181d29060200160405180910390a15b50565b5f6020828403121562000118575f80fd5b81516001600160a01b03811681146200012f575f80fd5b9392505050565b60805160a051611b44620001745f395f818161049301528181610621015261070e01525f8181610dc201528181610deb0152610f4c0152611b445ff3fe6080604052600436106101af575f3560e01c806384ef8ffc116100e7578063b25dd57211610087578063cf6eefb711610062578063cf6eefb7146104dd578063d547741f14610517578063d602b9fd14610536578063f72c0d8b1461054a575f80fd5b8063b25dd57214610482578063cc8463c8146104b5578063cefc1429146104c9575f80fd5b8063a1eda53c116100c2578063a1eda53c146103cc578063a217fddf146103ff578063a94ea30c14610412578063ad3cb1cc14610445575f80fd5b806384ef8ffc1461036d5780638da5cb5b1461039957806391d14854146103ad575f80fd5b8063313ce567116101525780634f1ef2861161012d5780634f1ef2861461030857806352d1902d1461031b578063634e93da1461032f578063649a5ec71461034e575f80fd5b8063313ce567146102af57806336568abe146102ca578063485cc955146102e9575f80fd5b806318bf50771161018d57806318bf507714610225578063248a9ca3146102445780632b8c49e3146102715780632f2ff15d14610290575f80fd5b806301ffc9a7146101b3578063022d63fb146101e75780630aa6220b1461020f575b5f80fd5b3480156101be575f80fd5b506101d26101cd3660046117d5565b61057d565b60405190151581526020015b60405180910390f35b3480156101f2575f80fd5b50620697805b60405165ffffffffffff90911681526020016101de565b34801561021a575f80fd5b506102236105a7565b005b348015610230575f80fd5b5061022361023f366004611817565b6105bc565b34801561024f575f80fd5b5061026361025e36600461183f565b61068e565b6040519081526020016101de565b34801561027c575f80fd5b5061022361028b366004611817565b6106ae565b34801561029b575f80fd5b506102236102aa366004611856565b610773565b3480156102ba575f80fd5b50604051600981526020016101de565b3480156102d5575f80fd5b506102236102e4366004611856565b61079f565b3480156102f4575f80fd5b50610223610303366004611880565b610861565b6102236103163660046118bc565b61098f565b348015610326575f80fd5b506102636109aa565b34801561033a575f80fd5b50610223610349366004611978565b6109c5565b348015610359575f80fd5b50610223610368366004611991565b6109d8565b348015610378575f80fd5b506103816109eb565b6040516001600160a01b0390911681526020016101de565b3480156103a4575f80fd5b50610381610a06565b3480156103b8575f80fd5b506101d26103c7366004611856565b610a14565b3480156103d7575f80fd5b506103e0610a4a565b6040805165ffffffffffff9384168152929091166020830152016101de565b34801561040a575f80fd5b506102635f81565b34801561041d575f80fd5b506102637fd7c4527c99f13bf6a80d3bc15ebce76f7f8256ab4fbf63363b10858db314c97881565b348015610450575f80fd5b50610475604051806040016040528060058152602001640352e302e360dc1b81525081565b6040516101de91906119d8565b34801561048d575f80fd5b506103817f000000000000000000000000000000000000000000000000000000000000000081565b3480156104c0575f80fd5b506101f8610ab9565b3480156104d4575f80fd5b50610223610b34565b3480156104e8575f80fd5b506104f1610b73565b604080516001600160a01b03909316835265ffffffffffff9091166020830152016101de565b348015610522575f80fd5b50610223610531366004611856565b610ba0565b348015610541575f80fd5b50610223610bc8565b348015610555575f80fd5b506102637f189ab7a9244df0848122154315af71fe140f3db0fe014031783b0946b8c9d2e381565b5f6001600160e01b03198216630cccc66560e21b14806105a157506105a182610bda565b92915050565b5f6105b181610bfe565b6105b9610c08565b50565b7fd7c4527c99f13bf6a80d3bc15ebce76f7f8256ab4fbf63363b10858db314c9786105e681610bfe565b6001600160a01b0383166106145760405163a5e1125760e01b81525f60048201526024015b60405180910390fd5b6106486001600160a01b037f0000000000000000000000000000000000000000000000000000000000000000168484610c14565b60405182815233906001600160a01b038516907fde22baff038e3a3e08407cbdf617deed74e869a7ba517df611e33131c6e6ea04906020015b60405180910390a3505050565b5f9081525f80516020611acf833981519152602052604090206001015490565b7fd7c4527c99f13bf6a80d3bc15ebce76f7f8256ab4fbf63363b10858db314c9786106d881610bfe565b6001600160a01b03831661070157604051637d37178d60e01b81525f600482015260240161060b565b6107366001600160a01b037f000000000000000000000000000000000000000000000000000000000000000016843085610c73565b60405182815233906001600160a01b038516907fb90795a66650155983e242cac3e1ac1a4dc26f8ed2987f3ce416a34e00111fd490602001610681565b8161079157604051631fe1e13d60e11b815260040160405180910390fd5b61079b8282610cb2565b5050565b5f80516020611aaf833981519152821580156107d357506107be6109eb565b6001600160a01b0316826001600160a01b0316145b15610852575f806107e2610b73565b90925090506001600160a01b038216151580610804575065ffffffffffff8116155b8061081757504265ffffffffffff821610155b1561083f576040516319ca5ebb60e01b815265ffffffffffff8216600482015260240161060b565b5050805465ffffffffffff60a01b191681555b61085c8383610cce565b505050565b5f61086a610d01565b805490915060ff600160401b820416159067ffffffffffffffff165f811580156108915750825b90505f8267ffffffffffffffff1660011480156108ad5750303b155b9050811580156108bb575080155b156108d95760405163f92ee8a960e01b815260040160405180910390fd5b845467ffffffffffffffff19166001178555831561090357845460ff60401b1916600160401b1785555b61090b610d29565b6109155f88610d31565b61093f7f189ab7a9244df0848122154315af71fe140f3db0fe014031783b0946b8c9d2e387610d43565b50831561098657845460ff60401b19168555604051600181527fc7f505b2f371ae2175ee4913f4499e1f2633a7b5936321eed1cdaeb6115181d29060200160405180910390a15b50505050505050565b610997610db7565b6109a082610e5b565b61079b8282610e85565b5f6109b3610f41565b505f80516020611a8f83398151915290565b5f6109cf81610bfe565b61079b82610f8a565b5f6109e281610bfe565b61079b82610ffc565b5f80516020611aef833981519152546001600160a01b031690565b5f610a0f6109eb565b905090565b5f9182525f80516020611acf833981519152602090815260408084206001600160a01b0393909316845291905290205460ff1690565b5f80516020611aef833981519152545f90600160d01b900465ffffffffffff165f80516020611aaf8339815191528115801590610a8f57504265ffffffffffff831610155b610a9a575f80610ab0565b6001810154600160a01b900465ffffffffffff16825b92509250509091565b5f80516020611aef833981519152545f905f80516020611aaf83398151915290600160d01b900465ffffffffffff168015801590610afe57504265ffffffffffff8216105b610b18578154600160d01b900465ffffffffffff16610b2d565b6001820154600160a01b900465ffffffffffff165b9250505090565b5f610b3d610b73565b509050336001600160a01b03821614610b6b57604051636116401160e11b815233600482015260240161060b565b6105b961106b565b5f80516020611aaf833981519152546001600160a01b03811691600160a01b90910465ffffffffffff1690565b81610bbe57604051631fe1e13d60e11b815260040160405180910390fd5b61079b8282611104565b5f610bd281610bfe565b6105b9611120565b5f6001600160e01b031982166318a4c3c360e11b14806105a157506105a18261112a565b6105b9813361115e565b610c125f80611197565b565b6040516001600160a01b0383811660248301526044820183905261085c91859182169063a9059cbb906064015b604051602081830303815290604052915060e01b6020820180516001600160e01b03838183161783525050505061126f565b6040516001600160a01b038481166024830152838116604483015260648201839052610cac9186918216906323b872dd90608401610c41565b50505050565b610cbb8261068e565b610cc481610bfe565b610cac8383610d43565b6001600160a01b0381163314610cf75760405163334bd91960e11b815260040160405180910390fd5b61085c82826112db565b5f807ff0c57e16840df040f15088dc2f81fe391c3923bec73e23a9662efc9c229c6a006105a1565b610c12611332565b610d39611332565b61079b8282611357565b5f5f80516020611aaf83398151915283610da5575f610d606109eb565b6001600160a01b031614610d8757604051631fe1e13d60e11b815260040160405180910390fd5b6001810180546001600160a01b0319166001600160a01b0385161790555b610daf84846113bd565b949350505050565b306001600160a01b037f0000000000000000000000000000000000000000000000000000000000000000161480610e3d57507f00000000000000000000000000000000000000000000000000000000000000006001600160a01b0316610e315f80516020611a8f833981519152546001600160a01b031690565b6001600160a01b031614155b15610c125760405163703e46dd60e11b815260040160405180910390fd5b7f189ab7a9244df0848122154315af71fe140f3db0fe014031783b0946b8c9d2e361079b81610bfe565b816001600160a01b03166352d1902d6040518163ffffffff1660e01b8152600401602060405180830381865afa925050508015610edf575060408051601f3d908101601f19168201909252610edc91810190611a0a565b60015b610f0757604051634c9c8ce360e01b81526001600160a01b038316600482015260240161060b565b5f80516020611a8f8339815191528114610f3757604051632a87526960e21b81526004810182905260240161060b565b61085c8383611465565b306001600160a01b037f00000000000000000000000000000000000000000000000000000000000000001614610c125760405163703e46dd60e11b815260040160405180910390fd5b5f610f93610ab9565b610f9c426114ba565b610fa69190611a35565b9050610fb282826114f0565b60405165ffffffffffff821681526001600160a01b038316907f3377dc44241e779dd06afab5b788a35ca5f3b778836e2990bdb26a2a4b2e5ed69060200160405180910390a25050565b5f6110068261157a565b61100f426114ba565b6110199190611a35565b90506110258282611197565b6040805165ffffffffffff8085168252831660208201527ff1038c18cf84a56e432fdbfaf746924b7ea511dfe03a6506a0ceba4888788d9b910160405180910390a15050565b5f80516020611aaf8339815191525f80611083610b73565b915091506110988165ffffffffffff16151590565b15806110ac57504265ffffffffffff821610155b156110d4576040516319ca5ebb60e01b815265ffffffffffff8216600482015260240161060b565b6110e55f6110e06109eb565b6112db565b506110f05f83610d43565b505081546001600160d01b03191690915550565b61110d8261068e565b61111681610bfe565b610cac83836112db565b610c125f806114f0565b5f6001600160e01b03198216637965db0b60e01b14806105a157506301ffc9a760e01b6001600160e01b03198316146105a1565b6111688282610a14565b61079b5760405163e2517d3f60e01b81526001600160a01b03821660048201526024810183905260440161060b565b5f80516020611aef833981519152545f80516020611aaf83398151915290600160d01b900465ffffffffffff168015611231574265ffffffffffff8216101561120857600182015482546001600160d01b0316600160a01b90910465ffffffffffff16600160d01b02178255611231565b6040517f2b1fa2edafe6f7b9e97c1a9e0c3660e645beb2dcaa2d45bdbf9beaf5472e1ec5905f90a15b5060010180546001600160a01b0316600160a01b65ffffffffffff948516026001600160d01b031617600160d01b9290931691909102919091179055565b5f8060205f8451602086015f885af18061128e576040513d5f823e3d81fd5b50505f513d915081156112a55780600114156112b2565b6001600160a01b0384163b155b15610cac57604051635274afe760e01b81526001600160a01b038516600482015260240161060b565b5f5f80516020611aaf8339815191528315801561131057506112fb6109eb565b6001600160a01b0316836001600160a01b0316145b15611328576001810180546001600160a01b03191690555b610daf84846115c8565b61133a611641565b610c1257604051631afcd79f60e31b815260040160405180910390fd5b61135f611332565b5f80516020611aaf8339815191526001600160a01b03821661139657604051636116401160e11b81525f600482015260240161060b565b80546001600160d01b0316600160d01b65ffffffffffff851602178155610cac5f83610d43565b5f5f80516020611acf8339815191526113d68484610a14565b611455575f848152602082815260408083206001600160a01b03871684529091529020805460ff1916600117905561140b3390565b6001600160a01b0316836001600160a01b0316857f2f8788117e7eff1d82e926ec794901d17c78024a50270940304540a733656f0d60405160405180910390a460019150506105a1565b5f9150506105a1565b5092915050565b61146e8261165a565b6040516001600160a01b038316907fbc7cd75a20ee27fd9adebab32041f755214dbc6bffa90cc0225b39da2e5c2d3b905f90a28051156114b25761085c82826116bd565b61079b61172f565b5f65ffffffffffff8211156114ec576040516306dfcc6560e41b8152603060048201526024810183905260440161060b565b5090565b5f80516020611aaf8339815191525f611507610b73565b835465ffffffffffff8616600160a01b026001600160d01b03199091166001600160a01b03881617178455915061154790508165ffffffffffff16151590565b15610cac576040517f8886ebfc4259abdbc16601dd8fb5678e54878f47b3c34836cfc51154a9605109905f90a150505050565b5f80611584610ab9565b90508065ffffffffffff168365ffffffffffff16116115ac576115a78382611a54565b6115c1565b6115c165ffffffffffff84166206978061174e565b9392505050565b5f5f80516020611acf8339815191526115e18484610a14565b15611455575f848152602082815260408083206001600160a01b0387168085529252808320805460ff1916905551339287917ff6391f5c32d9c69d2a47ea670b442974b53935d1edc7fd64eb21e047a839171b9190a460019150506105a1565b5f61164a610d01565b54600160401b900460ff16919050565b806001600160a01b03163b5f0361168f57604051634c9c8ce360e01b81526001600160a01b038216600482015260240161060b565b5f80516020611a8f83398151915280546001600160a01b0319166001600160a01b0392909216919091179055565b60605f80846001600160a01b0316846040516116d99190611a73565b5f60405180830381855af49150503d805f8114611711576040519150601f19603f3d011682016040523d82523d5f602084013e611716565b606091505b509150915061172685838361175d565b95945050505050565b3415610c125760405163b398979f60e01b815260040160405180910390fd5b5f8282188284100282186115c1565b60608261176d576115a7826117ad565b815115801561178457506001600160a01b0384163b155b1561145e57604051639996b31560e01b81526001600160a01b038516600482015260240161060b565b8051156117bc57805160208201fd5b60405163d6bda27560e01b815260040160405180910390fd5b5f602082840312156117e5575f80fd5b81356001600160e01b0319811681146115c1575f80fd5b80356001600160a01b0381168114611812575f80fd5b919050565b5f8060408385031215611828575f80fd5b611831836117fc565b946020939093013593505050565b5f6020828403121561184f575f80fd5b5035919050565b5f8060408385031215611867575f80fd5b82359150611877602084016117fc565b90509250929050565b5f8060408385031215611891575f80fd5b61189a836117fc565b9150611877602084016117fc565b634e487b7160e01b5f52604160045260245ffd5b5f80604083850312156118cd575f80fd5b6118d6836117fc565b9150602083013567ffffffffffffffff808211156118f2575f80fd5b818501915085601f830112611905575f80fd5b813581811115611917576119176118a8565b604051601f8201601f19908116603f0116810190838211818310171561193f5761193f6118a8565b81604052828152886020848701011115611957575f80fd5b826020860160208301375f6020848301015280955050505050509250929050565b5f60208284031215611988575f80fd5b6115c1826117fc565b5f602082840312156119a1575f80fd5b813565ffffffffffff811681146115c1575f80fd5b5f5b838110156119d05781810151838201526020016119b8565b50505f910152565b602081525f82518060208401526119f68160408501602087016119b6565b601f01601f19169190910160400192915050565b5f60208284031215611a1a575f80fd5b5051919050565b634e487b7160e01b5f52601160045260245ffd5b65ffffffffffff81811683821601908082111561145e5761145e611a21565b65ffffffffffff82811682821603908082111561145e5761145e611a21565b5f8251611a848184602087016119b6565b919091019291505056fe360894a13ba1a3210667c828492db98dca3e2076cc3735a920a3ca505d382bbceef3dac4538c82c8ace4063ab0acd2d15cdb5883aa1dff7c2673abb3d869840002dd7bc7dec4dceedda775e58dd541e08a116c6c53815c0bd028192f7b626800eef3dac4538c82c8ace4063ab0acd2d15cdb5883aa1dff7c2673abb3d8698401a264697066735822122089c4bca2d8dcf23a111760f4649ce33d9e6388acace1a9ea9d25e4e523832d6764736f6c63430008170033","linkReferences":{}},"methodIdentifiers":{"DEFAULT_ADMIN_ROLE()":"a217fddf","RLC_TOKEN()":"b25dd572","TOKEN_BRIDGE_ROLE()":"a94ea30c","UPGRADER_ROLE()":"f72c0d8b","UPGRADE_INTERFACE_VERSION()":"ad3cb1cc","acceptDefaultAdminTransfer()":"cefc1429","beginDefaultAdminTransfer(address)":"634e93da","cancelDefaultAdminTransfer()":"d602b9fd","changeDefaultAdminDelay(uint48)":"649a5ec7","crosschainBurn(address,uint256)":"2b8c49e3","crosschainMint(address,uint256)":"18bf5077","decimals()":"313ce567","defaultAdmin()":"84ef8ffc","defaultAdminDelay()":"cc8463c8","defaultAdminDelayIncreaseWait()":"022d63fb","getRoleAdmin(bytes32)":"248a9ca3","grantRole(bytes32,address)":"2f2ff15d","hasRole(bytes32,address)":"91d14854","initialize(address,address)":"485cc955","owner()":"8da5cb5b","pendingDefaultAdmin()":"cf6eefb7","pendingDefaultAdminDelay()":"a1eda53c","proxiableUUID()":"52d1902d","renounceRole(bytes32,address)":"36568abe","revokeRole(bytes32,address)":"d547741f","rollbackDefaultAdminDelay()":"0aa6220b","supportsInterface(bytes4)":"01ffc9a7","upgradeToAndCall(address,bytes)":"4f1ef286"},"storageLayout":{"storage":[],"types":{}},"id":189}