{"abi":[{"type":"fallback","stateMutability":"nonpayable"},{"type":"function","name":"isSupportedEid","inputs":[{"name":"","type":"uint32","internalType":"uint32"}],"outputs":[{"name":"","type":"bool","internalType":"bool"}],"stateMutability":"pure"},{"type":"function","name":"messageLibType","inputs":[],"outputs":[{"name":"","type":"uint8","internalType":"enum MessageLibType"}],"stateMutability":"pure"},{"type":"function","name":"supportsInterface","inputs":[{"name":"interfaceId","type":"bytes4","internalType":"bytes4"}],"outputs":[{"name":"","type":"bool","internalType":"bool"}],"stateMutability":"view"},{"type":"function","name":"version","inputs":[],"outputs":[{"name":"major","type":"uint64","internalType":"uint64"},{"name":"minor","type":"uint8","internalType":"uint8"},{"name":"endpointVersion","type":"uint8","internalType":"uint8"}],"stateMutability":"pure"},{"type":"error","name":"LZ_NotImplemented","inputs":[]}],"bytecode":{"object":"0x608060405234801561000f575f80fd5b506101b88061001d5f395ff3fe608060405234801561000f575f80fd5b506004361061004a575f3560e01c806301ffc9a7146100635780631881d94d1461008b57806354fd4d501461009a5780636750cd4c146100c1575b604051632657b6c360e01b815260040160405180910390fd5b61007661007136600461010b565b6100d5565b60405190151581526020015b60405180910390f35b60026040516100829190610139565b6040805167ffffffffffffffff815260ff6020820152600291810191909152606001610082565b6100766100cf36600461015f565b50600190565b5f6001600160e01b031982166325fc096160e21b148061010557506301ffc9a760e01b6001600160e01b03198316145b92915050565b5f6020828403121561011b575f80fd5b81356001600160e01b031981168114610132575f80fd5b9392505050565b602081016003831061015957634e487b7160e01b5f52602160045260245ffd5b91905290565b5f6020828403121561016f575f80fd5b813563ffffffff81168114610132575f80fdfea264697066735822122051674539c78ef08f84a9ae4686b19852283343a4883c6ab8704e094453f4870564736f6c63430008170033","linkReferences":{}},"methodIdentifiers":{"isSupportedEid(uint32)":"6750cd4c","messageLibType()":"1881d94d","supportsInterface(bytes4)":"01ffc9a7","version()":"54fd4d50"},"storageLayout":{"storage":[],"types":{}},"id":106}