{"abi":[{"type":"constructor","inputs":[{"name":"approvalRequired_","type":"bool","internalType":"bool"},{"name":"bridgeableToken","type":"address","internalType":"address"},{"name":"lzEndpoint","type":"address","internalType":"address"}],"stateMutability":"nonpayable"},{"type":"function","name":"BRIDGEABLE_TOKEN","inputs":[],"outputs":[{"name":"","type":"address","internalType":"address"}],"stateMutability":"view"},{"type":"function","name":"DEFAULT_ADMIN_ROLE","inputs":[],"outputs":[{"name":"","type":"bytes32","internalType":"bytes32"}],"stateMutability":"view"},{"type":"function","name":"PAUSER_ROLE","inputs":[],"outputs":[{"name":"","type":"bytes32","internalType":"bytes32"}],"stateMutability":"view"},{"type":"function","name":"SEND","inputs":[],"outputs":[{"name":"","type":"uint16","internalType":"uint16"}],"stateMutability":"view"},{"type":"function","name":"SEND_AND_CALL","inputs":[],"outputs":[{"name":"","type":"uint16","internalType":"uint16"}],"stateMutability":"view"},{"type":"function","name":"UPGRADER_ROLE","inputs":[],"outputs":[{"name":"","type":"bytes32","internalType":"bytes32"}],"stateMutability":"view"},{"type":"function","name":"UPGRADE_INTERFACE_VERSION","inputs":[],"outputs":[{"name":"","type":"string","internalType":"string"}],"stateMutability":"view"},{"type":"function","name":"acceptDefaultAdminTransfer","inputs":[],"outputs":[],"stateMutability":"nonpayable"},{"type":"function","name":"allowInitializePath","inputs":[{"name":"origin","type":"tuple","internalType":"struct Origin","components":[{"name":"srcEid","type":"uint32","internalType":"uint32"},{"name":"sender","type":"bytes32","internalType":"bytes32"},{"name":"nonce","type":"uint64","internalType":"uint64"}]}],"outputs":[{"name":"","type":"bool","internalType":"bool"}],"stateMutability":"view"},{"type":"function","name":"approvalRequired","inputs":[],"outputs":[{"name":"","type":"bool","internalType":"bool"}],"stateMutability":"view"},{"type":"function","name":"beginDefaultAdminTransfer","inputs":[{"name":"newAdmin","type":"address","internalType":"address"}],"outputs":[],"stateMutability":"nonpayable"},{"type":"function","name":"cancelDefaultAdminTransfer","inputs":[],"outputs":[],"stateMutability":"nonpayable"},{"type":"function","name":"changeDefaultAdminDelay","inputs":[{"name":"newDelay","type":"uint48","internalType":"uint48"}],"outputs":[],"stateMutability":"nonpayable"},{"type":"function","name":"combineOptions","inputs":[{"name":"_eid","type":"uint32","internalType":"uint32"},{"name":"_msgType","type":"uint16","internalType":"uint16"},{"name":"_extraOptions","type":"bytes","internalType":"bytes"}],"outputs":[{"name":"","type":"bytes","internalType":"bytes"}],"stateMutability":"view"},{"type":"function","name":"decimalConversionRate","inputs":[],"outputs":[{"name":"","type":"uint256","internalType":"uint256"}],"stateMutability":"view"},{"type":"function","name":"defaultAdmin","inputs":[],"outputs":[{"name":"","type":"address","internalType":"address"}],"stateMutability":"view"},{"type":"function","name":"defaultAdminDelay","inputs":[],"outputs":[{"name":"","type":"uint48","internalType":"uint48"}],"stateMutability":"view"},{"type":"function","name":"defaultAdminDelayIncreaseWait","inputs":[],"outputs":[{"name":"","type":"uint48","internalType":"uint48"}],"stateMutability":"view"},{"type":"function","name":"endpoint","inputs":[],"outputs":[{"name":"","type":"address","internalType":"contract ILayerZeroEndpointV2"}],"stateMutability":"view"},{"type":"function","name":"enforcedOptions","inputs":[{"name":"_eid","type":"uint32","internalType":"uint32"},{"name":"_msgType","type":"uint16","internalType":"uint16"}],"outputs":[{"name":"","type":"bytes","internalType":"bytes"}],"stateMutability":"view"},{"type":"function","name":"exposed_credit","inputs":[{"name":"to","type":"address","internalType":"address"},{"name":"amountLD","type":"uint256","internalType":"uint256"},{"name":"srcEid","type":"uint32","internalType":"uint32"}],"outputs":[{"name":"amountReceivedLD","type":"uint256","internalType":"uint256"}],"stateMutability":"nonpayable"},{"type":"function","name":"exposed_debit","inputs":[{"name":"from","type":"address","internalType":"address"},{"name":"amountLD","type":"uint256","internalType":"uint256"},{"name":"minAmountLD","type":"uint256","internalType":"uint256"},{"name":"dstEid","type":"uint32","internalType":"uint32"}],"outputs":[{"name":"amountSentLD","type":"uint256","internalType":"uint256"},{"name":"amountReceivedLD","type":"uint256","internalType":"uint256"}],"stateMutability":"nonpayable"},{"type":"function","name":"getRoleAdmin","inputs":[{"name":"role","type":"bytes32","internalType":"bytes32"}],"outputs":[{"name":"","type":"bytes32","internalType":"bytes32"}],"stateMutability":"view"},{"type":"function","name":"grantRole","inputs":[{"name":"role","type":"bytes32","internalType":"bytes32"},{"name":"account","type":"address","internalType":"address"}],"outputs":[],"stateMutability":"nonpayable"},{"type":"function","name":"hasRole","inputs":[{"name":"role","type":"bytes32","internalType":"bytes32"},{"name":"account","type":"address","internalType":"address"}],"outputs":[{"name":"","type":"bool","internalType":"bool"}],"stateMutability":"view"},{"type":"function","name":"initialize","inputs":[{"name":"initialAdmin","type":"address","internalType":"address"},{"name":"initialUpgrader","type":"address","internalType":"address"},{"name":"initialPauser","type":"address","internalType":"address"}],"outputs":[],"stateMutability":"nonpayable"},{"type":"function","name":"isComposeMsgSender","inputs":[{"name":"","type":"tuple","internalType":"struct Origin","components":[{"name":"srcEid","type":"uint32","internalType":"uint32"},{"name":"sender","type":"bytes32","internalType":"bytes32"},{"name":"nonce","type":"uint64","internalType":"uint64"}]},{"name":"","type":"bytes","internalType":"bytes"},{"name":"_sender","type":"address","internalType":"address"}],"outputs":[{"name":"","type":"bool","internalType":"bool"}],"stateMutability":"view"},{"type":"function","name":"isPeer","inputs":[{"name":"_eid","type":"uint32","internalType":"uint32"},{"name":"_peer","type":"bytes32","internalType":"bytes32"}],"outputs":[{"name":"","type":"bool","internalType":"bool"}],"stateMutability":"view"},{"type":"function","name":"lzReceive","inputs":[{"name":"_origin","type":"tuple","internalType":"struct Origin","components":[{"name":"srcEid","type":"uint32","internalType":"uint32"},{"name":"sender","type":"bytes32","internalType":"bytes32"},{"name":"nonce","type":"uint64","internalType":"uint64"}]},{"name":"_guid","type":"bytes32","internalType":"bytes32"},{"name":"_message","type":"bytes","internalType":"bytes"},{"name":"_executor","type":"address","internalType":"address"},{"name":"_extraData","type":"bytes","internalType":"bytes"}],"outputs":[],"stateMutability":"payable"},{"type":"function","name":"lzReceiveAndRevert","inputs":[{"name":"_packets","type":"tuple[]","internalType":"struct InboundPacket[]","components":[{"name":"origin","type":"tuple","internalType":"struct Origin","components":[{"name":"srcEid","type":"uint32","internalType":"uint32"},{"name":"sender","type":"bytes32","internalType":"bytes32"},{"name":"nonce","type":"uint64","internalType":"uint64"}]},{"name":"dstEid","type":"uint32","internalType":"uint32"},{"name":"receiver","type":"address","internalType":"address"},{"name":"guid","type":"bytes32","internalType":"bytes32"},{"name":"value","type":"uint256","internalType":"uint256"},{"name":"executor","type":"address","internalType":"address"},{"name":"message","type":"bytes","internalType":"bytes"},{"name":"extraData","type":"bytes","internalType":"bytes"}]}],"outputs":[],"stateMutability":"payable"},{"type":"function","name":"lzReceiveSimulate","inputs":[{"name":"_origin","type":"tuple","internalType":"struct Origin","components":[{"name":"srcEid","type":"uint32","internalType":"uint32"},{"name":"sender","type":"bytes32","internalType":"bytes32"},{"name":"nonce","type":"uint64","internalType":"uint64"}]},{"name":"_guid","type":"bytes32","internalType":"bytes32"},{"name":"_message","type":"bytes","internalType":"bytes"},{"name":"_executor","type":"address","internalType":"address"},{"name":"_extraData","type":"bytes","internalType":"bytes"}],"outputs":[],"stateMutability":"payable"},{"type":"function","name":"msgInspector","inputs":[],"outputs":[{"name":"","type":"address","internalType":"address"}],"stateMutability":"view"},{"type":"function","name":"nextNonce","inputs":[{"name":"","type":"uint32","internalType":"uint32"},{"name":"","type":"bytes32","internalType":"bytes32"}],"outputs":[{"name":"nonce","type":"uint64","internalType":"uint64"}],"stateMutability":"view"},{"type":"function","name":"oApp","inputs":[],"outputs":[{"name":"","type":"address","internalType":"address"}],"stateMutability":"view"},{"type":"function","name":"oAppVersion","inputs":[],"outputs":[{"name":"senderVersion","type":"uint64","internalType":"uint64"},{"name":"receiverVersion","type":"uint64","internalType":"uint64"}],"stateMutability":"pure"},{"type":"function","name":"oftVersion","inputs":[],"outputs":[{"name":"interfaceId","type":"bytes4","internalType":"bytes4"},{"name":"version","type":"uint64","internalType":"uint64"}],"stateMutability":"pure"},{"type":"function","name":"outboundTransfersPaused","inputs":[],"outputs":[{"name":"","type":"bool","internalType":"bool"}],"stateMutability":"view"},{"type":"function","name":"owner","inputs":[],"outputs":[{"name":"","type":"address","internalType":"address"}],"stateMutability":"view"},{"type":"function","name":"pause","inputs":[],"outputs":[],"stateMutability":"nonpayable"},{"type":"function","name":"pauseOutboundTransfers","inputs":[],"outputs":[],"stateMutability":"nonpayable"},{"type":"function","name":"pauseStatus","inputs":[],"outputs":[{"name":"fullyPaused","type":"bool","internalType":"bool"},{"name":"onlyOutboundTransfersPaused","type":"bool","internalType":"bool"}],"stateMutability":"view"},{"type":"function","name":"paused","inputs":[],"outputs":[{"name":"","type":"bool","internalType":"bool"}],"stateMutability":"view"},{"type":"function","name":"peers","inputs":[{"name":"_eid","type":"uint32","internalType":"uint32"}],"outputs":[{"name":"","type":"bytes32","internalType":"bytes32"}],"stateMutability":"view"},{"type":"function","name":"pendingDefaultAdmin","inputs":[],"outputs":[{"name":"newAdmin","type":"address","internalType":"address"},{"name":"schedule","type":"uint48","internalType":"uint48"}],"stateMutability":"view"},{"type":"function","name":"pendingDefaultAdminDelay","inputs":[],"outputs":[{"name":"newDelay","type":"uint48","internalType":"uint48"},{"name":"schedule","type":"uint48","internalType":"uint48"}],"stateMutability":"view"},{"type":"function","name":"preCrime","inputs":[],"outputs":[{"name":"","type":"address","internalType":"address"}],"stateMutability":"view"},{"type":"function","name":"proxiableUUID","inputs":[],"outputs":[{"name":"","type":"bytes32","internalType":"bytes32"}],"stateMutability":"view"},{"type":"function","name":"quoteOFT","inputs":[{"name":"_sendParam","type":"tuple","internalType":"struct SendParam","components":[{"name":"dstEid","type":"uint32","internalType":"uint32"},{"name":"to","type":"bytes32","internalType":"bytes32"},{"name":"amountLD","type":"uint256","internalType":"uint256"},{"name":"minAmountLD","type":"uint256","internalType":"uint256"},{"name":"extraOptions","type":"bytes","internalType":"bytes"},{"name":"composeMsg","type":"bytes","internalType":"bytes"},{"name":"oftCmd","type":"bytes","internalType":"bytes"}]}],"outputs":[{"name":"oftLimit","type":"tuple","internalType":"struct OFTLimit","components":[{"name":"minAmountLD","type":"uint256","internalType":"uint256"},{"name":"maxAmountLD","type":"uint256","internalType":"uint256"}]},{"name":"oftFeeDetails","type":"tuple[]","internalType":"struct OFTFeeDetail[]","components":[{"name":"feeAmountLD","type":"int256","internalType":"int256"},{"name":"description","type":"string","internalType":"string"}]},{"name":"oftReceipt","type":"tuple","internalType":"struct OFTReceipt","components":[{"name":"amountSentLD","type":"uint256","internalType":"uint256"},{"name":"amountReceivedLD","type":"uint256","internalType":"uint256"}]}],"stateMutability":"view"},{"type":"function","name":"quoteSend","inputs":[{"name":"_sendParam","type":"tuple","internalType":"struct SendParam","components":[{"name":"dstEid","type":"uint32","internalType":"uint32"},{"name":"to","type":"bytes32","internalType":"bytes32"},{"name":"amountLD","type":"uint256","internalType":"uint256"},{"name":"minAmountLD","type":"uint256","internalType":"uint256"},{"name":"extraOptions","type":"bytes","internalType":"bytes"},{"name":"composeMsg","type":"bytes","internalType":"bytes"},{"name":"oftCmd","type":"bytes","internalType":"bytes"}]},{"name":"_payInLzToken","type":"bool","internalType":"bool"}],"outputs":[{"name":"msgFee","type":"tuple","internalType":"struct MessagingFee","components":[{"name":"nativeFee","type":"uint256","internalType":"uint256"},{"name":"lzTokenFee","type":"uint256","internalType":"uint256"}]}],"stateMutability":"view"},{"type":"function","name":"renounceOwnership","inputs":[],"outputs":[],"stateMutability":"pure"},{"type":"function","name":"renounceRole","inputs":[{"name":"role","type":"bytes32","internalType":"bytes32"},{"name":"account","type":"address","internalType":"address"}],"outputs":[],"stateMutability":"nonpayable"},{"type":"function","name":"revokeRole","inputs":[{"name":"role","type":"bytes32","internalType":"bytes32"},{"name":"account","type":"address","internalType":"address"}],"outputs":[],"stateMutability":"nonpayable"},{"type":"function","name":"rollbackDefaultAdminDelay","inputs":[],"outputs":[],"stateMutability":"nonpayable"},{"type":"function","name":"send","inputs":[{"name":"_sendParam","type":"tuple","internalType":"struct SendParam","components":[{"name":"dstEid","type":"uint32","internalType":"uint32"},{"name":"to","type":"bytes32","internalType":"bytes32"},{"name":"amountLD","type":"uint256","internalType":"uint256"},{"name":"minAmountLD","type":"uint256","internalType":"uint256"},{"name":"extraOptions","type":"bytes","internalType":"bytes"},{"name":"composeMsg","type":"bytes","internalType":"bytes"},{"name":"oftCmd","type":"bytes","internalType":"bytes"}]},{"name":"_fee","type":"tuple","internalType":"struct MessagingFee","components":[{"name":"nativeFee","type":"uint256","internalType":"uint256"},{"name":"lzTokenFee","type":"uint256","internalType":"uint256"}]},{"name":"_refundAddress","type":"address","internalType":"address"}],"outputs":[{"name":"msgReceipt","type":"tuple","internalType":"struct MessagingReceipt","components":[{"name":"guid","type":"bytes32","internalType":"bytes32"},{"name":"nonce","type":"uint64","internalType":"uint64"},{"name":"fee","type":"tuple","internalType":"struct MessagingFee","components":[{"name":"nativeFee","type":"uint256","internalType":"uint256"},{"name":"lzTokenFee","type":"uint256","internalType":"uint256"}]}]},{"name":"oftReceipt","type":"tuple","internalType":"struct OFTReceipt","components":[{"name":"amountSentLD","type":"uint256","internalType":"uint256"},{"name":"amountReceivedLD","type":"uint256","internalType":"uint256"}]}],"stateMutability":"payable"},{"type":"function","name":"setDelegate","inputs":[{"name":"_delegate","type":"address","internalType":"address"}],"outputs":[],"stateMutability":"nonpayable"},{"type":"function","name":"setEnforcedOptions","inputs":[{"name":"_enforcedOptions","type":"tuple[]","internalType":"struct EnforcedOptionParam[]","components":[{"name":"eid","type":"uint32","internalType":"uint32"},{"name":"msgType","type":"uint16","internalType":"uint16"},{"name":"options","type":"bytes","internalType":"bytes"}]}],"outputs":[],"stateMutability":"nonpayable"},{"type":"function","name":"setMsgInspector","inputs":[{"name":"_msgInspector","type":"address","internalType":"address"}],"outputs":[],"stateMutability":"nonpayable"},{"type":"function","name":"setPeer","inputs":[{"name":"_eid","type":"uint32","internalType":"uint32"},{"name":"_peer","type":"bytes32","internalType":"bytes32"}],"outputs":[],"stateMutability":"nonpayable"},{"type":"function","name":"setPreCrime","inputs":[{"name":"_preCrime","type":"address","internalType":"address"}],"outputs":[],"stateMutability":"nonpayable"},{"type":"function","name":"sharedDecimals","inputs":[],"outputs":[{"name":"","type":"uint8","internalType":"uint8"}],"stateMutability":"pure"},{"type":"function","name":"supportsInterface","inputs":[{"name":"interfaceId","type":"bytes4","internalType":"bytes4"}],"outputs":[{"name":"","type":"bool","internalType":"bool"}],"stateMutability":"view"},{"type":"function","name":"token","inputs":[],"outputs":[{"name":"","type":"address","internalType":"address"}],"stateMutability":"view"},{"type":"function","name":"transferOwnership","inputs":[{"name":"","type":"address","internalType":"address"}],"outputs":[],"stateMutability":"pure"},{"type":"function","name":"unpause","inputs":[],"outputs":[],"stateMutability":"nonpayable"},{"type":"function","name":"unpauseOutboundTransfers","inputs":[],"outputs":[],"stateMutability":"nonpayable"},{"type":"function","name":"upgradeToAndCall","inputs":[{"name":"newImplementation","type":"address","internalType":"address"},{"name":"data","type":"bytes","internalType":"bytes"}],"outputs":[],"stateMutability":"payable"},{"type":"event","name":"DefaultAdminDelayChangeCanceled","inputs":[],"anonymous":false},{"type":"event","name":"DefaultAdminDelayChangeScheduled","inputs":[{"name":"newDelay","type":"uint48","indexed":false,"internalType":"uint48"},{"name":"effectSchedule","type":"uint48","indexed":false,"internalType":"uint48"}],"anonymous":false},{"type":"event","name":"DefaultAdminTransferCanceled","inputs":[],"anonymous":false},{"type":"event","name":"DefaultAdminTransferScheduled","inputs":[{"name":"newAdmin","type":"address","indexed":true,"internalType":"address"},{"name":"acceptSchedule","type":"uint48","indexed":false,"internalType":"uint48"}],"anonymous":false},{"type":"event","name":"EnforcedOptionSet","inputs":[{"name":"_enforcedOptions","type":"tuple[]","indexed":false,"internalType":"struct EnforcedOptionParam[]","components":[{"name":"eid","type":"uint32","internalType":"uint32"},{"name":"msgType","type":"uint16","internalType":"uint16"},{"name":"options","type":"bytes","internalType":"bytes"}]}],"anonymous":false},{"type":"event","name":"Initialized","inputs":[{"name":"version","type":"uint64","indexed":false,"internalType":"uint64"}],"anonymous":false},{"type":"event","name":"MsgInspectorSet","inputs":[{"name":"inspector","type":"address","indexed":false,"internalType":"address"}],"anonymous":false},{"type":"event","name":"OFTReceived","inputs":[{"name":"guid","type":"bytes32","indexed":true,"internalType":"bytes32"},{"name":"srcEid","type":"uint32","indexed":false,"internalType":"uint32"},{"name":"toAddress","type":"address","indexed":true,"internalType":"address"},{"name":"amountReceivedLD","type":"uint256","indexed":false,"internalType":"uint256"}],"anonymous":false},{"type":"event","name":"OFTSent","inputs":[{"name":"guid","type":"bytes32","indexed":true,"internalType":"bytes32"},{"name":"dstEid","type":"uint32","indexed":false,"internalType":"uint32"},{"name":"fromAddress","type":"address","indexed":true,"internalType":"address"},{"name":"amountSentLD","type":"uint256","indexed":false,"internalType":"uint256"},{"name":"amountReceivedLD","type":"uint256","indexed":false,"internalType":"uint256"}],"anonymous":false},{"type":"event","name":"OutboundTransfersPaused","inputs":[{"name":"account","type":"address","indexed":false,"internalType":"address"}],"anonymous":false},{"type":"event","name":"OutboundTransfersUnpaused","inputs":[{"name":"account","type":"address","indexed":false,"internalType":"address"}],"anonymous":false},{"type":"event","name":"OwnershipTransferred","inputs":[{"name":"previousOwner","type":"address","indexed":true,"internalType":"address"},{"name":"newOwner","type":"address","indexed":true,"internalType":"address"}],"anonymous":false},{"type":"event","name":"Paused","inputs":[{"name":"account","type":"address","indexed":false,"internalType":"address"}],"anonymous":false},{"type":"event","name":"PeerSet","inputs":[{"name":"eid","type":"uint32","indexed":false,"internalType":"uint32"},{"name":"peer","type":"bytes32","indexed":false,"internalType":"bytes32"}],"anonymous":false},{"type":"event","name":"PreCrimeSet","inputs":[{"name":"preCrimeAddress","type":"address","indexed":false,"internalType":"address"}],"anonymous":false},{"type":"event","name":"RoleAdminChanged","inputs":[{"name":"role","type":"bytes32","indexed":true,"internalType":"bytes32"},{"name":"previousAdminRole","type":"bytes32","indexed":true,"internalType":"bytes32"},{"name":"newAdminRole","type":"bytes32","indexed":true,"internalType":"bytes32"}],"anonymous":false},{"type":"event","name":"RoleGranted","inputs":[{"name":"role","type":"bytes32","indexed":true,"internalType":"bytes32"},{"name":"account","type":"address","indexed":true,"internalType":"address"},{"name":"sender","type":"address","indexed":true,"internalType":"address"}],"anonymous":false},{"type":"event","name":"RoleRevoked","inputs":[{"name":"role","type":"bytes32","indexed":true,"internalType":"bytes32"},{"name":"account","type":"address","indexed":true,"internalType":"address"},{"name":"sender","type":"address","indexed":true,"internalType":"address"}],"anonymous":false},{"type":"event","name":"Unpaused","inputs":[{"name":"account","type":"address","indexed":false,"internalType":"address"}],"anonymous":false},{"type":"event","name":"Upgraded","inputs":[{"name":"implementation","type":"address","indexed":true,"internalType":"address"}],"anonymous":false},{"type":"error","name":"AccessControlBadConfirmation","inputs":[]},{"type":"error","name":"AccessControlEnforcedDefaultAdminDelay","inputs":[{"name":"schedule","type":"uint48","internalType":"uint48"}]},{"type":"error","name":"AccessControlEnforcedDefaultAdminRules","inputs":[]},{"type":"error","name":"AccessControlInvalidDefaultAdmin","inputs":[{"name":"defaultAdmin","type":"address","internalType":"address"}]},{"type":"error","name":"AccessControlUnauthorizedAccount","inputs":[{"name":"account","type":"address","internalType":"address"},{"name":"neededRole","type":"bytes32","internalType":"bytes32"}]},{"type":"error","name":"AddressEmptyCode","inputs":[{"name":"target","type":"address","internalType":"address"}]},{"type":"error","name":"ERC1967InvalidImplementation","inputs":[{"name":"implementation","type":"address","internalType":"address"}]},{"type":"error","name":"ERC1967NonPayable","inputs":[]},{"type":"error","name":"EnforcedOutboundTransfersPause","inputs":[]},{"type":"error","name":"EnforcedPause","inputs":[]},{"type":"error","name":"ExpectedOutboundTransfersPause","inputs":[]},{"type":"error","name":"ExpectedPause","inputs":[]},{"type":"error","name":"FailedCall","inputs":[]},{"type":"error","name":"InvalidDelegate","inputs":[]},{"type":"error","name":"InvalidEndpointCall","inputs":[]},{"type":"error","name":"InvalidInitialization","inputs":[]},{"type":"error","name":"InvalidLocalDecimals","inputs":[]},{"type":"error","name":"InvalidOptions","inputs":[{"name":"options","type":"bytes","internalType":"bytes"}]},{"type":"error","name":"LzTokenUnavailable","inputs":[]},{"type":"error","name":"NoPeer","inputs":[{"name":"eid","type":"uint32","internalType":"uint32"}]},{"type":"error","name":"NotEnoughNative","inputs":[{"name":"msgValue","type":"uint256","internalType":"uint256"}]},{"type":"error","name":"NotInitializing","inputs":[]},{"type":"error","name":"OnlyEndpoint","inputs":[{"name":"addr","type":"address","internalType":"address"}]},{"type":"error","name":"OnlyPeer","inputs":[{"name":"eid","type":"uint32","internalType":"uint32"},{"name":"sender","type":"bytes32","internalType":"bytes32"}]},{"type":"error","name":"OnlySelf","inputs":[]},{"type":"error","name":"OperationNotAllowed","inputs":[{"name":"message","type":"string","internalType":"string"}]},{"type":"error","name":"OwnableInvalidOwner","inputs":[{"name":"owner","type":"address","internalType":"address"}]},{"type":"error","name":"OwnableUnauthorizedAccount","inputs":[{"name":"account","type":"address","internalType":"address"}]},{"type":"error","name":"SafeCastOverflowedUintDowncast","inputs":[{"name":"bits","type":"uint8","internalType":"uint8"},{"name":"value","type":"uint256","internalType":"uint256"}]},{"type":"error","name":"SafeERC20FailedOperation","inputs":[{"name":"token","type":"address","internalType":"address"}]},{"type":"error","name":"SimulationResult","inputs":[{"name":"result","type":"bytes","internalType":"bytes"}]},{"type":"error","name":"SlippageExceeded","inputs":[{"name":"amountLD","type":"uint256","internalType":"uint256"},{"name":"minAmountLD","type":"uint256","internalType":"uint256"}]},{"type":"error","name":"UUPSUnauthorizedCallContext","inputs":[]},{"type":"error","name":"UUPSUnsupportedProxiableUUID","inputs":[{"name":"slot","type":"bytes32","internalType":"bytes32"}]}],"bytecode":{"object":"0x6101206040523060805234801562000015575f80fd5b5060405162004d6c38038062004d6c833981016040819052620000389162000200565b828282816001600160a01b031663313ce5676040518163ffffffff1660e01b8152600401602060405180830381865afa15801562000078573d5f803e3d5ffd5b505050506040513d601f19601f820116820180604052508101906200009e91906200024c565b6001600160a01b03821660a05281600660ff83161015620000d2576040516301e9714b60e41b815260040160405180910390fd5b620000df60068362000289565b620000ec90600a6200039e565b60c05250620000fc905062000119565b506001600160a01b031660e05215156101005250620003ae915050565b5f62000124620001ba565b805490915068010000000000000000900460ff1615620001575760405163f92ee8a960e01b815260040160405180910390fd5b80546001600160401b0390811614620001b75780546001600160401b0319166001600160401b0390811782556040519081527fc7f505b2f371ae2175ee4913f4499e1f2633a7b5936321eed1cdaeb6115181d29060200160405180910390a15b50565b5f807ff0c57e16840df040f15088dc2f81fe391c3923bec73e23a9662efc9c229c6a005b92915050565b80516001600160a01b0381168114620001fb575f80fd5b919050565b5f805f6060848603121562000213575f80fd5b8351801515811462000223575f80fd5b92506200023360208501620001e4565b91506200024360408501620001e4565b90509250925092565b5f602082840312156200025d575f80fd5b815160ff811681146200026e575f80fd5b9392505050565b634e487b7160e01b5f52601160045260245ffd5b60ff8281168282160390811115620001de57620001de62000275565b600181815b80851115620002e557815f1904821115620002c957620002c962000275565b80851615620002d757918102915b93841c9390800290620002aa565b509250929050565b5f82620002fd57506001620001de565b816200030b57505f620001de565b81600181146200032457600281146200032f576200034f565b6001915050620001de565b60ff84111562000343576200034362000275565b50506001821b620001de565b5060208310610133831016604e8410600b841016171562000374575081810a620001de565b620003808383620002a5565b805f190482111562000396576200039662000275565b029392505050565b5f6200026e60ff841683620002ed565b60805160a05160c05160e051610100516148f4620004785f395f818161093e01528181611dab01526127a601525f81816108bc01528181611dd101528181611df50152818161241e015281816127d0015281816127f201526128ac01525f818161090e01528181612d5401528181612dc60152612ef201525f818161072101528181610d9901528181611b8a01528181611ff80152818161231201528181612b2d0152818161335c015261341301525f81816124e001528181612509015261266a01526148f45ff3fe6080604052600436106103c9575f3560e01c80638456cb59116101f4578063bc70b35411610113578063d045a0dc116100a8578063e63ab1e911610078578063e63ab1e914610bb4578063f2fde38b14610bd4578063f72c0d8b14610bf3578063fc0c546a14610c26578063ff7bd03d14610c3a575f80fd5b8063d045a0dc14610b4f578063d424388514610b62578063d547741f14610b81578063d602b9fd14610ba0575f80fd5b8063ca5eb5e1116100e3578063ca5eb5e114610ace578063cc8463c814610aed578063cefc142914610b01578063cf6eefb714610b15575f80fd5b8063bc70b35414610a5c578063bd815db014610a7b578063c0c53b8b14610a8e578063c7c7f5b314610aad575f80fd5b80639f68b96411610189578063ad3cb1cc11610159578063ad3cb1cc146109bc578063b731ea0a146109ec578063b98bd07014610a00578063bb0b6a5314610a1f575f80fd5b80639f68b96414610930578063a1eda53c14610962578063a217fddf14610995578063a8d2dab7146109a8575f80fd5b80638da5cb5b116101c45780638da5cb5b14610897578063903df521146108ab57806391d14854146108de578063963efcaa146108fd575f80fd5b80638456cb591461084057806384ef8ffc14610854578063857749b01461086857806386843aa114610883575f80fd5b80633deb01a6116102eb5780635c975abb116102805780636fc1b31e116102505780636fc1b31e14610781578063715018a6146107a057806378275f6c146107b45780637d25a05e146107e857806382413eac14610821575f80fd5b80635c975abb146106fc5780635e280f1114610710578063634e93da14610743578063649a5ec714610762575f80fd5b806352ae2879116102bb57806352ae28791461066957806352d1902d1461067b5780635535d4611461068f5780635a0dfe4d146106bb575f80fd5b80633deb01a6146105f85780633f4ba83a14610617578063466916ca1461062b5780634f1ef28614610656575f80fd5b80631657c3b8116103615780632f2ff15d116103315780632f2ff15d1461056f5780633400288b1461058e57806336568abe146105ad5780633b6f743b146105cc575f80fd5b80631657c3b8146104f957806317442b701461050d5780631f5e13341461052e578063248a9ca314610542575f80fd5b8063111ecdad1161039c578063111ecdad1461046d57806313137d6514610499578063134d4f25146104ac578063156a0d0f146104d3575f80fd5b806301ffc9a7146103cd578063022d63fb146104015780630aa6220b146104295780630d35b4151461043f575b5f80fd5b3480156103d8575f80fd5b506103ec6103e736600461383b565b610c59565b60405190151581526020015b60405180910390f35b34801561040c575f80fd5b50620697805b60405165ffffffffffff90911681526020016103f8565b348015610434575f80fd5b5061043d610c83565b005b34801561044a575f80fd5b5061045e610459366004613878565b610c98565b6040516103f8939291906138f6565b348015610478575f80fd5b50610481610d63565b6040516001600160a01b0390911681526020016103f8565b61043d6104a73660046139f5565b610d97565b3480156104b7575f80fd5b506104c0600281565b60405161ffff90911681526020016103f8565b3480156104de575f80fd5b506040805162b9270b60e21b815260016020820152016103f8565b348015610504575f80fd5b5061043d610e57565b348015610518575f80fd5b50604080516001815260026020820152016103f8565b348015610539575f80fd5b506104c0600181565b34801561054d575f80fd5b5061056161055c366004613a8d565b610e76565b6040519081526020016103f8565b34801561057a575f80fd5b5061043d610589366004613aa4565b610e96565b348015610599575f80fd5b5061043d6105a8366004613aea565b610ec2565b3480156105b8575f80fd5b5061043d6105c7366004613aa4565b610f2d565b3480156105d7575f80fd5b506105eb6105e6366004613b1f565b610fef565b6040516103f89190613b62565b348015610603575f80fd5b50610561610612366004613b79565b611053565b348015610622575f80fd5b5061043d611069565b348015610636575f80fd5b5061063f611088565b6040805192151583529015156020830152016103f8565b61043d610664366004613c46565b6110a2565b348015610674575f80fd5b5030610481565b348015610686575f80fd5b506105616110bd565b34801561069a575f80fd5b506106ae6106a9366004613ce3565b6110d8565b6040516103f89190613d14565b3480156106c6575f80fd5b506103ec6106d5366004613aea565b63ffffffff919091165f9081525f805160206147ff83398151915260205260409020541490565b348015610707575f80fd5b506103ec6111b0565b34801561071b575f80fd5b506104817f000000000000000000000000000000000000000000000000000000000000000081565b34801561074e575f80fd5b5061043d61075d366004613d26565b6111de565b34801561076d575f80fd5b5061043d61077c366004613d41565b6111f1565b34801561078c575f80fd5b5061043d61079b366004613d26565b611204565b3480156107ab575f80fd5b5061043d611280565b3480156107bf575f80fd5b506107d36107ce366004613d66565b6112e7565b604080519283526020830191909152016103f8565b3480156107f3575f80fd5b50610809610802366004613aea565b5f92915050565b6040516001600160401b0390911681526020016103f8565b34801561082c575f80fd5b506103ec61083b366004613dab565b611303565b34801561084b575f80fd5b5061043d611318565b34801561085f575f80fd5b50610481611337565b348015610873575f80fd5b50604051600681526020016103f8565b34801561088e575f80fd5b5061043d611352565b3480156108a2575f80fd5b50610481611371565b3480156108b6575f80fd5b506104817f000000000000000000000000000000000000000000000000000000000000000081565b3480156108e9575f80fd5b506103ec6108f8366004613aa4565b61137f565b348015610908575f80fd5b506105617f000000000000000000000000000000000000000000000000000000000000000081565b34801561093b575f80fd5b507f00000000000000000000000000000000000000000000000000000000000000006103ec565b34801561096d575f80fd5b506109766113b5565b6040805165ffffffffffff9384168152929091166020830152016103f8565b3480156109a0575f80fd5b506105615f81565b3480156109b3575f80fd5b506103ec611424565b3480156109c7575f80fd5b506106ae604051806040016040528060058152602001640352e302e360dc1b81525081565b3480156109f7575f80fd5b5061048161144c565b348015610a0b575f80fd5b5061043d610a1a366004613e4d565b611474565b348015610a2a575f80fd5b50610561610a39366004613e8b565b63ffffffff165f9081525f805160206147ff833981519152602052604090205490565b348015610a67575f80fd5b506106ae610a76366004613ea4565b6115f0565b61043d610a89366004613e4d565b611780565b348015610a99575f80fd5b5061043d610aa8366004613f00565b61190c565b610ac0610abb366004613f48565b611a6b565b6040516103f8929190613fa5565b348015610ad9575f80fd5b5061043d610ae8366004613d26565b611b63565b348015610af8575f80fd5b50610412611be4565b348015610b0c575f80fd5b5061043d611c5f565b348015610b20575f80fd5b50610b29611c9e565b604080516001600160a01b03909316835265ffffffffffff9091166020830152016103f8565b61043d610b5d3660046139f5565b611ccb565b348015610b6d575f80fd5b5061043d610b7c366004613d26565b611cfa565b348015610b8c575f80fd5b5061043d610b9b366004613aa4565b611d6e565b348015610bab575f80fd5b5061043d611d96565b348015610bbf575f80fd5b506105615f8051602061485f83398151915281565b348015610bdf575f80fd5b5061043d610bee366004613d26565b611280565b348015610bfe575f80fd5b506105617f189ab7a9244df0848122154315af71fe140f3db0fe014031783b0946b8c9d2e381565b348015610c31575f80fd5b50610481611da8565b348015610c45575f80fd5b506103ec610c54366004613ff6565b611e73565b5f6001600160e01b031982166318a4c3c360e11b1480610c7d5750610c7d82611e90565b92915050565b5f610c8d81611ec4565b610c95611ece565b50565b604080518082019091525f80825260208201526060610cc860405180604001604052805f81526020015f81525090565b6040805180820182525f8082526001600160401b03602080840182905284518381529081019094529195509182610d21565b604080518082019091525f815260606020820152815260200190600190039081610cfa5790505b5093505f80610d45604089013560608a0135610d4060208c018c613e8b565b611eda565b60408051808201909152918252602082015296989597505050505050565b5f807f41db8a78b0206aba5c54bcbfc2bda0d84082a84eb88e680379a57b9e9f653c005b546001600160a01b031692915050565b7f00000000000000000000000000000000000000000000000000000000000000006001600160a01b03163314610de7576040516391ac5e4f60e01b81523360048201526024015b60405180910390fd5b60208701803590610e0190610dfc908a613e8b565b611f1d565b14610e3f57610e136020880188613e8b565b60405163309afaf360e21b815263ffffffff909116600482015260208801356024820152604401610dde565b610e4e87878787878787611f66565b50505050505050565b5f8051602061485f833981519152610e6e81611ec4565b610c956120c4565b5f9081525f8051602061487f833981519152602052604090206001015490565b81610eb457604051631fe1e13d60e11b815260040160405180910390fd5b610ebe8282612136565b5050565b610eca612158565b63ffffffff82165f8181525f805160206147ff833981519152602081815260409283902085905582519384528301849052917f238399d427b947898edb290f5ff0f9109849b1c3ba196a42e35f00c50a54b98b91015b60405180910390a1505050565b5f8051602061483f83398151915282158015610f615750610f4c611337565b6001600160a01b0316826001600160a01b0316145b15610fe0575f80610f70611c9e565b90925090506001600160a01b038216151580610f92575065ffffffffffff8116155b80610fa557504265ffffffffffff821610155b15610fcd576040516319ca5ebb60e01b815265ffffffffffff82166004820152602401610dde565b5050805465ffffffffffff60a01b191681555b610fea838361218a565b505050565b604080518082019091525f80825260208201525f61101d60408501356060860135610d406020880188613e8b565b9150505f8061102c86846121bd565b90925090506110496110416020880188613e8b565b8383886122fd565b9695505050505050565b5f61105f8484846123db565b90505b9392505050565b5f8051602061485f83398151915261108081611ec4565b610c9561247d565b5f806110926111b0565b915061109c611424565b90509091565b6110aa6124d5565b6110b382612579565b610ebe82826125a3565b5f6110c661265f565b505f8051602061481f83398151915290565b63ffffffff82165f9081527f8d2bda5d9f6ffb5796910376005392955773acee5548d0fcdb10e7c264ea00006020818152604080842061ffff861685529091529091208054606092919061112b90614010565b80601f016020809104026020016040519081016040528092919081815260200182805461115790614010565b80156111a25780601f10611179576101008083540402835291602001916111a2565b820191905f5260205f20905b81548152906001019060200180831161118557829003601f168201915b505050505091505092915050565b5f807fcd5ed15c6e187e77e9aee88184c21f4f2182ab5827cb3b7e07fbedcd63f033005b5460ff1692915050565b5f6111e881611ec4565b610ebe826126a8565b5f6111fb81611ec4565b610ebe8261271a565b61120c612158565b7f41db8a78b0206aba5c54bcbfc2bda0d84082a84eb88e680379a57b9e9f653c0080546001600160a01b0319166001600160a01b03831690811782556040519081527ff0be4f1e87349231d80c36b33f9e8639658eeaf474014dee15a3e6a4d4414197906020015b60405180910390a15050565b6040516367f2b6d360e01b815260206004820152603560248201527f55736520416363657373436f6e74726f6c44656661756c7441646d696e52756c604482015274195cd55c19dc98591958589b19481a5b9cdd195859605a1b6064820152608401610dde565b5f806112f586868686612782565b915091505b94509492505050565b6001600160a01b03811630145b949350505050565b5f8051602061485f83398151915261132f81611ec4565b610c9561290c565b5f8051602061489f833981519152546001600160a01b031690565b5f8051602061485f83398151915261136981611ec4565b610c95612967565b5f61137a6129c2565b905090565b5f9182525f8051602061487f833981519152602090815260408084206001600160a01b0393909316845291905290205460ff1690565b5f8051602061489f833981519152545f90600160d01b900465ffffffffffff165f8051602061483f83398151915281158015906113fa57504265ffffffffffff831610155b611405575f8061141b565b6001810154600160a01b900465ffffffffffff16825b92509250509091565b5f807fcfbc5ec03206ba5826cf1103520b82c735e9bad14c6d8ed92dff9144ead3f4006111d4565b5f807fefb041d771d6daaa55702fff6eb740d63ba559a75d2d1d3e151c78ff2480b600610d87565b61147c612158565b7f8d2bda5d9f6ffb5796910376005392955773acee5548d0fcdb10e7c264ea00005f5b828110156115be576114e18484838181106114bc576114bc614042565b90506020028101906114ce9190614056565b6114dc906040810190614074565b6129cb565b8383828181106114f3576114f3614042565b90506020028101906115059190614056565b611513906040810190614074565b835f87878681811061152757611527614042565b90506020028101906115399190614056565b611547906020810190613e8b565b63ffffffff1663ffffffff1681526020019081526020015f205f87878681811061157357611573614042565b90506020028101906115859190614056565b6115969060408101906020016140b6565b61ffff16815260208101919091526040015f20916115b5919083614113565b5060010161149f565b507fbe4864a8e820971c0247f5992e2da559595f7bf076a21cb5928d443d2a13b6748383604051610f209291906141f4565b63ffffffff84165f9081527f8d2bda5d9f6ffb5796910376005392955773acee5548d0fcdb10e7c264ea00006020818152604080842061ffff8816855290915282208054606093919061164290614010565b80601f016020809104026020016040519081016040528092919081815260200182805461166e90614010565b80156116b95780601f10611690576101008083540402835291602001916116b9565b820191905f5260205f20905b81548152906001019060200180831161169c57829003601f168201915b5050505050905080515f036117085784848080601f0160208091040260200160405190810160405280939291908181526020018383808284375f92019190915250929550611310945050505050565b5f8490036117195791506113109050565b600284106117635761172b85856129cb565b8061173985600281896142d3565b60405160200161174b939291906142fa565b60405160208183030381529060405292505050611310565b8484604051639a6d49cd60e01b8152600401610dde929190614320565b5f5b8181101561188f573683838381811061179d5761179d614042565b90506020028101906117af9190614333565b90506117ed6117c16020830183613e8b565b602083013563ffffffff919091165f9081525f805160206147ff83398151915260205260409020541490565b6117f75750611887565b3063d045a0dc60c08301358360a0810135611816610100830183614074565b611827610100890160e08a01613d26565b6118356101208a018a614074565b6040518963ffffffff1660e01b8152600401611857979695949392919061435c565b5f604051808303818588803b15801561186e575f80fd5b505af1158015611880573d5f803e3d5ffd5b5050505050505b600101611782565b50336001600160a01b0316638e9e70996040518163ffffffff1660e01b81526004015f60405180830381865afa1580156118cb573d5f803e3d5ffd5b505050506040513d5f823e601f3d908101601f191682016040526118f291908101906143e1565b604051638351eea760e01b8152600401610dde9190613d14565b5f611915612a0c565b805490915060ff600160401b82041615906001600160401b03165f8115801561193b5750825b90505f826001600160401b031660011480156119565750303b155b905081158015611964575080155b156119825760405163f92ee8a960e01b815260040160405180910390fd5b845467ffffffffffffffff1916600117855583156119ac57845460ff60401b1916600160401b1785555b6119b4612a34565b6119be5f89612a3c565b6119e87f189ab7a9244df0848122154315af71fe140f3db0fe014031783b0946b8c9d2e388612a4e565b50611a005f8051602061485f83398151915287612a4e565b50611a0a88612aba565b611a1388612acb565b611a1b612aec565b8315611a6157845460ff60401b19168555604051600181527fc7f505b2f371ae2175ee4913f4499e1f2633a7b5936321eed1cdaeb6115181d29060200160405180910390a15b5050505050505050565b611a736137f8565b604080518082019091525f80825260208201525f80611aa833604089013560608a0135611aa360208c018c613e8b565b612782565b915091505f80611ab889846121bd565b9092509050611ae4611acd60208b018b613e8b565b8383611ade368d90038d018d614449565b8b612afc565b60408051808201909152858152602080820186905282519298509096503391907f85496b760a4b7f8d66384b9df21b381f5d1b1e79f229a47aaf4c232edc2fe59a90611b32908d018d613e8b565b6040805163ffffffff909216825260208201899052810187905260600160405180910390a350505050935093915050565b611b6b612158565b60405163ca5eb5e160e01b81526001600160a01b0382811660048301527f0000000000000000000000000000000000000000000000000000000000000000169063ca5eb5e1906024015f604051808303815f87803b158015611bcb575f80fd5b505af1158015611bdd573d5f803e3d5ffd5b5050505050565b5f8051602061489f833981519152545f905f8051602061483f83398151915290600160d01b900465ffffffffffff168015801590611c2957504265ffffffffffff8216105b611c43578154600160d01b900465ffffffffffff16611c58565b6001820154600160a01b900465ffffffffffff165b9250505090565b5f611c68611c9e565b509050336001600160a01b03821614611c9657604051636116401160e11b8152336004820152602401610dde565b610c95612c02565b5f8051602061483f833981519152546001600160a01b03811691600160a01b90910465ffffffffffff1690565b333014611ceb5760405163029a949d60e31b815260040160405180910390fd5b610e4e87878787878787610e3f565b611d02612158565b7fefb041d771d6daaa55702fff6eb740d63ba559a75d2d1d3e151c78ff2480b60080546001600160a01b0319166001600160a01b03831690811782556040519081527fd48d879cef83a1c0bdda516f27b13ddb1b3f8bbac1c9e1511bb2a659c242776090602001611274565b81611d8c57604051631fe1e13d60e11b815260040160405180910390fd5b610ebe8282612c1a565b5f611da081611ec4565b610c95612c36565b5f7f0000000000000000000000000000000000000000000000000000000000000000611df357507f000000000000000000000000000000000000000000000000000000000000000090565b7f00000000000000000000000000000000000000000000000000000000000000006001600160a01b031663b25dd5726040518163ffffffff1660e01b8152600401602060405180830381865afa158015611e4f573d5f803e3d5ffd5b505050506040513d601f19601f8201168201806040525081019061137a9190614479565b5f60208201803590611e8990610a399085613e8b565b1492915050565b5f6001600160e01b03198216637965db0b60e01b1480610c7d57506301ffc9a760e01b6001600160e01b0319831614610c7d565b610c958133612c40565b611ed85f80612c79565b565b5f80611ee585612d51565b915081905083811015611f15576040516371c4efed60e01b81526004810182905260248101859052604401610dde565b935093915050565b63ffffffff81165f9081525f805160206147ff83398151915260208190526040822054806110625760405163f6ff4fb760e01b815263ffffffff85166004820152602401610dde565b5f611f77611f748787612d87565b90565b90505f611fa282611f90611f8b8a8a612d9e565b612dc0565b611f9d60208d018d613e8b565b6123db565b90506028861115612062575f611fde611fc160608c0160408d01614494565b611fce60208d018d613e8b565b84611fd98c8c612df4565b612e3e565b604051633e5ac80960e11b81529091506001600160a01b037f00000000000000000000000000000000000000000000000000000000000000001690637cb59012906120339086908d905f9087906004016144af565b5f604051808303815f87803b15801561204a575f80fd5b505af115801561205c573d5f803e3d5ffd5b50505050505b6001600160a01b038216887fefed6d3500546b29533b128a29e3a94d70788727f0507505ac12eaf2e578fd9c61209b60208d018d613e8b565b6040805163ffffffff9092168252602082018690520160405180910390a3505050505050505050565b6120cc612e70565b7fcfbc5ec03206ba5826cf1103520b82c735e9bad14c6d8ed92dff9144ead3f400805460ff191681557f9ed48c125995b41003073267e8c8c29d453de042a0d58f41999add01bcf16fc6335b6040516001600160a01b03909116815260200160405180910390a150565b61213f82610e76565b61214881611ec4565b6121528383612a4e565b50505050565b33612161611371565b6001600160a01b031614611ed85760405163118cdaa760e01b8152336004820152602401610dde565b6001600160a01b03811633146121b35760405163334bd91960e11b815260040160405180910390fd5b610fea8282612e95565b6060805f61221885602001356121d286612eec565b6121df60a0890189614074565b8080601f0160208091040260200160405190810160405280939291908181526020018383808284375f92019190915250612f1792505050565b90935090505f8161222a57600161222d565b60025b905061224d61223f6020880188613e8b565b82610a7660808a018a614074565b7f41db8a78b0206aba5c54bcbfc2bda0d84082a84eb88e680379a57b9e9f653c008054919450906001600160a01b031680156122f25760405163043a78eb60e01b81526001600160a01b0382169063043a78eb906122b190899089906004016144df565b602060405180830381865afa1580156122cc573d5f803e3d5ffd5b505050506040513d601f19601f820116820180604052508101906122f09190614503565b505b505050509250929050565b604080518082019091525f80825260208201527f00000000000000000000000000000000000000000000000000000000000000006001600160a01b031663ddc28c586040518060a001604052808863ffffffff16815260200161235f89611f1d565b8152602001878152602001868152602001851515815250306040518363ffffffff1660e01b815260040161239492919061451e565b6040805180830381865afa1580156123ae573d5f803e3d5ffd5b505050506040513d601f19601f820116820180604052508101906123d291906145c4565b95945050505050565b5f6123e4612f91565b6001600160a01b0384166123f85761dead93505b6040516318bf507760e01b81526001600160a01b038581166004830152602482018590527f000000000000000000000000000000000000000000000000000000000000000016906318bf5077906044015f604051808303815f87803b15801561245f575f80fd5b505af1158015612471573d5f803e3d5ffd5b50949695505050505050565b612485612fb7565b7fcd5ed15c6e187e77e9aee88184c21f4f2182ab5827cb3b7e07fbedcd63f03300805460ff191681557f5db9ee0a495bf2e6ff9c91a7834c1ba4fdd244a5e8aa4e537bd38aeae4b073aa33612118565b306001600160a01b037f000000000000000000000000000000000000000000000000000000000000000016148061255b57507f00000000000000000000000000000000000000000000000000000000000000006001600160a01b031661254f5f8051602061481f833981519152546001600160a01b031690565b6001600160a01b031614155b15611ed85760405163703e46dd60e11b815260040160405180910390fd5b7f189ab7a9244df0848122154315af71fe140f3db0fe014031783b0946b8c9d2e3610ebe81611ec4565b816001600160a01b03166352d1902d6040518163ffffffff1660e01b8152600401602060405180830381865afa9250505080156125fd575060408051601f3d908101601f191682019092526125fa918101906145de565b60015b61262557604051634c9c8ce360e01b81526001600160a01b0383166004820152602401610dde565b5f8051602061481f833981519152811461265557604051632a87526960e21b815260048101829052602401610dde565b610fea8383612fdc565b306001600160a01b037f00000000000000000000000000000000000000000000000000000000000000001614611ed85760405163703e46dd60e11b815260040160405180910390fd5b5f6126b1611be4565b6126ba42613031565b6126c49190614609565b90506126d08282613067565b60405165ffffffffffff821681526001600160a01b038316907f3377dc44241e779dd06afab5b788a35ca5f3b778836e2990bdb26a2a4b2e5ed69060200160405180910390a25050565b5f612724826130f1565b61272d42613031565b6127379190614609565b90506127438282612c79565b6040805165ffffffffffff8085168252831660208201527ff1038c18cf84a56e432fdbfaf746924b7ea511dfe03a6506a0ceba4888788d9b9101611274565b5f8061278c612f91565b612794613138565b61279f858585611eda565b90925090507f00000000000000000000000000000000000000000000000000000000000000001561288657612881867f0000000000000000000000000000000000000000000000000000000000000000847f00000000000000000000000000000000000000000000000000000000000000006001600160a01b031663b25dd5726040518163ffffffff1660e01b8152600401602060405180830381865afa15801561284c573d5f803e3d5ffd5b505050506040513d601f19601f820116820180604052508101906128709190614479565b6001600160a01b031692919061315e565b6112fa565b604051632b8c49e360e01b81526001600160a01b038781166004830152602482018490527f00000000000000000000000000000000000000000000000000000000000000001690632b8c49e3906044015f604051808303815f87803b1580156128ed575f80fd5b505af11580156128ff573d5f803e3d5ffd5b5050505094509492505050565b612914612f91565b7fcd5ed15c6e187e77e9aee88184c21f4f2182ab5827cb3b7e07fbedcd63f03300805460ff191660011781557f62e78cea01bee320cd4e420270b5ea74000d11b0c9f74754ebdbfc544b05a25833612118565b61296f613138565b7fcfbc5ec03206ba5826cf1103520b82c735e9bad14c6d8ed92dff9144ead3f400805460ff191660011781557f4a46a72476e6fa7533f222e0ecb9f666286647790a3d128b4fe6b20fb82dde1933612118565b5f61137a611337565b5f6129d960028284866142d3565b6129e291614628565b60f01c905060038114610fea578282604051639a6d49cd60e01b8152600401610dde929190614320565b5f807ff0c57e16840df040f15088dc2f81fe391c3923bec73e23a9662efc9c229c6a00610c7d565b611ed86131b8565b612a446131b8565b610ebe82826131dd565b5f5f8051602061483f83398151915283612ab0575f612a6b611337565b6001600160a01b031614612a9257604051631fe1e13d60e11b815260040160405180910390fd5b6001810180546001600160a01b0319166001600160a01b0385161790555b6113108484613243565b612ac26131b8565b610c95816132eb565b612ad36131b8565b612adc81613325565b612ae4612a34565b610c95612a34565b612af46131b8565b611ed8612a34565b612b046137f8565b5f612b11845f0151613336565b602085015190915015612b2b57612b2b8460200151613359565b7f00000000000000000000000000000000000000000000000000000000000000006001600160a01b0316632637a450826040518060a001604052808b63ffffffff168152602001612b7b8c611f1d565b81526020018a81526020018981526020015f8960200151111515815250866040518463ffffffff1660e01b8152600401612bb692919061451e565b60806040518083038185885af1158015612bd2573d5f803e3d5ffd5b50505050506040513d601f19601f82011682018060405250810190612bf79190614658565b979650505050505050565b612c0a613438565b611ed8612c15611337565b6134d1565b612c2382610e76565b612c2c81611ec4565b6121528383612e95565b611ed85f80613067565b612c4a828261137f565b610ebe5760405163e2517d3f60e01b81526001600160a01b038216600482015260248101839052604401610dde565b5f8051602061489f833981519152545f8051602061483f83398151915290600160d01b900465ffffffffffff168015612d13574265ffffffffffff82161015612cea57600182015482546001600160d01b0316600160a01b90910465ffffffffffff16600160d01b02178255612d13565b6040517f2b1fa2edafe6f7b9e97c1a9e0c3660e645beb2dcaa2d45bdbf9beaf5472e1ec5905f90a15b5060010180546001600160a01b0316600160a01b65ffffffffffff948516026001600160d01b031617600160d01b9290931691909102919091179055565b5f7f0000000000000000000000000000000000000000000000000000000000000000612d7d81846146bd565b610c7d91906146dc565b5f612d9560208284866142d3565b611062916146f3565b5f612dad6028602084866142d3565b612db691614710565b60c01c9392505050565b5f610c7d7f00000000000000000000000000000000000000000000000000000000000000006001600160401b0384166146dc565b6060612e0382602881866142d3565b8080601f0160208091040260200160405190810160405280939291908181526020018383808284375f92019190915250929695505050505050565b606084848484604051602001612e57949392919061473e565b6040516020818303038152906040529050949350505050565b612e78611424565b611ed8576040516387c6bdf960e01b815260040160405180910390fd5b5f5f8051602061483f83398151915283158015612eca5750612eb5611337565b6001600160a01b0316836001600160a01b0316145b15612ee2576001810180546001600160a01b03191690555b6113108484613541565b5f610c7d7f0000000000000000000000000000000000000000000000000000000000000000836146bd565b8051606090151580612f60578484604051602001612f4c92919091825260c01b6001600160c01b031916602082015260280190565b604051602081830303815290604052612f87565b84843385604051602001612f77949392919061478c565b6040516020818303038152906040525b9150935093915050565b612f996111b0565b15611ed85760405163d93c066560e01b815260040160405180910390fd5b612fbf6111b0565b611ed857604051638dfc202b60e01b815260040160405180910390fd5b612fe5826135ba565b6040516001600160a01b038316907fbc7cd75a20ee27fd9adebab32041f755214dbc6bffa90cc0225b39da2e5c2d3b905f90a280511561302957610fea828261361d565b610ebe613686565b5f65ffffffffffff821115613063576040516306dfcc6560e41b81526030600482015260248101839052604401610dde565b5090565b5f8051602061483f8339815191525f61307e611c9e565b835465ffffffffffff8616600160a01b026001600160d01b03199091166001600160a01b0388161717845591506130be90508165ffffffffffff16151590565b15612152576040517f8886ebfc4259abdbc16601dd8fb5678e54878f47b3c34836cfc51154a9605109905f90a150505050565b5f806130fb611be4565b90508065ffffffffffff168365ffffffffffff16116131235761311e83826147ce565b611062565b61106265ffffffffffff8416620697806136a5565b613140611424565b15611ed857604051638eb1387b60e01b815260040160405180910390fd5b604080516001600160a01b0385811660248301528416604482015260648082018490528251808303909101815260849091019091526020810180516001600160e01b03166323b872dd60e01b1790526121529085906136b4565b6131c0613720565b611ed857604051631afcd79f60e31b815260040160405180910390fd5b6131e56131b8565b5f8051602061483f8339815191526001600160a01b03821661321c57604051636116401160e11b81525f6004820152602401610dde565b80546001600160d01b0316600160d01b65ffffffffffff8516021781556121525f83612a4e565b5f5f8051602061487f83398151915261325c848461137f565b6132db575f848152602082815260408083206001600160a01b03871684529091529020805460ff191660011790556132913390565b6001600160a01b0316836001600160a01b0316857f2f8788117e7eff1d82e926ec794901d17c78024a50270940304540a733656f0d60405160405180910390a46001915050610c7d565b5f915050610c7d565b5092915050565b6132f36131b8565b6001600160a01b03811661331c57604051631e4fbdf760e01b81525f6004820152602401610dde565b610c95816134d1565b61332d6131b8565b612adc81613739565b5f813414613063576040516304fb820960e51b8152346004820152602401610dde565b5f7f00000000000000000000000000000000000000000000000000000000000000006001600160a01b031663e4fe1d946040518163ffffffff1660e01b8152600401602060405180830381865afa1580156133b6573d5f803e3d5ffd5b505050506040513d601f19601f820116820180604052508101906133da9190614479565b90506001600160a01b038116613403576040516329b99a9560e11b815260040160405180910390fd5b610ebe6001600160a01b038216337f00000000000000000000000000000000000000000000000000000000000000008561315e565b5f8051602061483f8339815191525f80613450611c9e565b915091506134658165ffffffffffff16151590565b158061347957504265ffffffffffff821610155b156134a1576040516319ca5ebb60e01b815265ffffffffffff82166004820152602401610dde565b6134b25f6134ad611337565b612e95565b506134bd5f83612a4e565b505081546001600160d01b03191690915550565b7f9016d09d72d40fdae2fd8ceac6b6234c7706214fd39c1cd1e609a0528c19930080546001600160a01b031981166001600160a01b03848116918217845560405192169182907f8be0079c531659141344cd1fd0a4f28419497f9722a3daafe3b4186f6b6457e0905f90a3505050565b5f5f8051602061487f83398151915261355a848461137f565b156132db575f848152602082815260408083206001600160a01b0387168085529252808320805460ff1916905551339287917ff6391f5c32d9c69d2a47ea670b442974b53935d1edc7fd64eb21e047a839171b9190a46001915050610c7d565b806001600160a01b03163b5f036135ef57604051634c9c8ce360e01b81526001600160a01b0382166004820152602401610dde565b5f8051602061481f83398151915280546001600160a01b0319166001600160a01b0392909216919091179055565b60605f80846001600160a01b03168460405161363991906147ed565b5f60405180830381855af49150503d805f8114613671576040519150601f19603f3d011682016040523d82523d5f602084013e613676565b606091505b50915091506123d285838361374a565b3415611ed85760405163b398979f60e01b815260040160405180910390fd5b5f828218828410028218611062565b5f8060205f8451602086015f885af1806136d3576040513d5f823e3d81fd5b50505f513d915081156136ea5780600114156136f7565b6001600160a01b0384163b155b1561215257604051635274afe760e01b81526001600160a01b0385166004820152602401610dde565b5f613729612a0c565b54600160401b900460ff16919050565b6137416131b8565b610c95816137a1565b60608261375a5761311e826137d0565b815115801561377157506001600160a01b0384163b155b1561379a57604051639996b31560e01b81526001600160a01b0385166004820152602401610dde565b5080611062565b6137a96131b8565b6001600160a01b038116611b6b57604051632d618d8160e21b815260040160405180910390fd5b8051156137df57805160208201fd5b60405163d6bda27560e01b815260040160405180910390fd5b60405180606001604052805f80191681526020015f6001600160401b0316815260200161383660405180604001604052805f81526020015f81525090565b905290565b5f6020828403121561384b575f80fd5b81356001600160e01b031981168114611062575f80fd5b5f60e08284031215613872575f80fd5b50919050565b5f60208284031215613888575f80fd5b81356001600160401b0381111561389d575f80fd5b61131084828501613862565b5f5b838110156138c35781810151838201526020016138ab565b50505f910152565b5f81518084526138e28160208601602086016138a9565b601f01601f19169290920160200192915050565b83518152602080850151908201525f60a08201604060a0604085015281865180845260c08601915060c08160051b870101935060208089015f5b8381101561396f5788870360bf1901855281518051885283015183880187905261395c878901826138cb565b9750509382019390820190600101613930565b50508751606088015250505060208501516080850152509050611310565b5f60608284031215613872575f80fd5b5f8083601f8401126139ad575f80fd5b5081356001600160401b038111156139c3575f80fd5b6020830191508360208285010111156139da575f80fd5b9250929050565b6001600160a01b0381168114610c95575f80fd5b5f805f805f805f60e0888a031215613a0b575f80fd5b613a15898961398d565b96506060880135955060808801356001600160401b0380821115613a37575f80fd5b613a438b838c0161399d565b909750955060a08a01359150613a58826139e1565b90935060c08901359080821115613a6d575f80fd5b50613a7a8a828b0161399d565b989b979a50959850939692959293505050565b5f60208284031215613a9d575f80fd5b5035919050565b5f8060408385031215613ab5575f80fd5b823591506020830135613ac7816139e1565b809150509250929050565b803563ffffffff81168114613ae5575f80fd5b919050565b5f8060408385031215613afb575f80fd5b613b0483613ad2565b946020939093013593505050565b8015158114610c95575f80fd5b5f8060408385031215613b30575f80fd5b82356001600160401b03811115613b45575f80fd5b613b5185828601613862565b9250506020830135613ac781613b12565b815181526020808301519082015260408101610c7d565b5f805f60608486031215613b8b575f80fd5b8335613b96816139e1565b925060208401359150613bab60408501613ad2565b90509250925092565b634e487b7160e01b5f52604160045260245ffd5b604080519081016001600160401b0381118282101715613bea57613bea613bb4565b60405290565b604051601f8201601f191681016001600160401b0381118282101715613c1857613c18613bb4565b604052919050565b5f6001600160401b03821115613c3857613c38613bb4565b50601f01601f191660200190565b5f8060408385031215613c57575f80fd5b8235613c62816139e1565b915060208301356001600160401b03811115613c7c575f80fd5b8301601f81018513613c8c575f80fd5b8035613c9f613c9a82613c20565b613bf0565b818152866020838501011115613cb3575f80fd5b816020840160208301375f602083830101528093505050509250929050565b803561ffff81168114613ae5575f80fd5b5f8060408385031215613cf4575f80fd5b613cfd83613ad2565b9150613d0b60208401613cd2565b90509250929050565b602081525f61106260208301846138cb565b5f60208284031215613d36575f80fd5b8135611062816139e1565b5f60208284031215613d51575f80fd5b813565ffffffffffff81168114611062575f80fd5b5f805f8060808587031215613d79575f80fd5b8435613d84816139e1565b93506020850135925060408501359150613da060608601613ad2565b905092959194509250565b5f805f8060a08587031215613dbe575f80fd5b613dc8868661398d565b935060608501356001600160401b03811115613de2575f80fd5b613dee8782880161399d565b9094509250506080850135613e02816139e1565b939692955090935050565b5f8083601f840112613e1d575f80fd5b5081356001600160401b03811115613e33575f80fd5b6020830191508360208260051b85010111156139da575f80fd5b5f8060208385031215613e5e575f80fd5b82356001600160401b03811115613e73575f80fd5b613e7f85828601613e0d565b90969095509350505050565b5f60208284031215613e9b575f80fd5b61106282613ad2565b5f805f8060608587031215613eb7575f80fd5b613ec085613ad2565b9350613ece60208601613cd2565b925060408501356001600160401b03811115613ee8575f80fd5b613ef48782880161399d565b95989497509550505050565b5f805f60608486031215613f12575f80fd5b8335613f1d816139e1565b92506020840135613f2d816139e1565b91506040840135613f3d816139e1565b809150509250925092565b5f805f8385036080811215613f5b575f80fd5b84356001600160401b03811115613f70575f80fd5b613f7c87828801613862565b9450506040601f1982011215613f90575f80fd5b506020840191506060840135613f3d816139e1565b5f60c082019050835182526001600160401b0360208501511660208301526040840151613fdf604084018280518252602090810151910152565b5082516080830152602083015160a0830152611062565b5f60608284031215614006575f80fd5b611062838361398d565b600181811c9082168061402457607f821691505b60208210810361387257634e487b7160e01b5f52602260045260245ffd5b634e487b7160e01b5f52603260045260245ffd5b5f8235605e1983360301811261406a575f80fd5b9190910192915050565b5f808335601e19843603018112614089575f80fd5b8301803591506001600160401b038211156140a2575f80fd5b6020019150368190038213156139da575f80fd5b5f602082840312156140c6575f80fd5b61106282613cd2565b601f821115610fea57805f5260205f20601f840160051c810160208510156140f45750805b601f840160051c820191505b81811015611bdd575f8155600101614100565b6001600160401b0383111561412a5761412a613bb4565b61413e836141388354614010565b836140cf565b5f601f84116001811461416f575f85156141585750838201355b5f19600387901b1c1916600186901b178355611bdd565b5f83815260208120601f198716915b8281101561419e578685013582556020948501946001909201910161417e565b50868210156141ba575f1960f88860031b161c19848701351681555b505060018560011b0183555050505050565b81835281816020850137505f828201602090810191909152601f909101601f19169091010190565b60208082528181018390525f906040808401600586901b8501820187855b888110156142c557878303603f190184528135368b9003605e19018112614237575f80fd5b8a01606063ffffffff61424983613ad2565b16855261ffff61425a898401613cd2565b168886015286820135601e19833603018112614274575f80fd5b9091018781019190356001600160401b03811115614290575f80fd5b80360383131561429e575f80fd5b81888701526142b082870182856141cc565b96890196955050509186019150600101614212565b509098975050505050505050565b5f80858511156142e1575f80fd5b838611156142ed575f80fd5b5050820193919092039150565b5f845161430b8184602089016138a9565b8201838582375f930192835250909392505050565b602081525f61105f6020830184866141cc565b5f823561013e1983360301811261406a575f80fd5b6001600160401b0381168114610c95575f80fd5b63ffffffff61436a89613ad2565b168152602088013560208201525f604089013561438681614348565b6001600160401b03811660408401525087606083015260e060808301526143b160e0830187896141cc565b6001600160a01b03861660a084015282810360c08401526143d38185876141cc565b9a9950505050505050505050565b5f602082840312156143f1575f80fd5b81516001600160401b03811115614406575f80fd5b8201601f81018413614416575f80fd5b8051614424613c9a82613c20565b818152856020838501011115614438575f80fd5b6123d28260208301602086016138a9565b5f60408284031215614459575f80fd5b614461613bc8565b82358152602083013560208201528091505092915050565b5f60208284031215614489575f80fd5b8151611062816139e1565b5f602082840312156144a4575f80fd5b813561106281614348565b60018060a01b038516815283602082015261ffff83166040820152608060608201525f61104960808301846138cb565b604081525f6144f160408301856138cb565b82810360208401526123d281856138cb565b5f60208284031215614513575f80fd5b815161106281613b12565b6040815263ffffffff8351166040820152602083015160608201525f604084015160a0608084015261455360e08401826138cb565b90506060850151603f198483030160a085015261457082826138cb565b60809690960151151560c08501525050506001600160a01b039190911660209091015290565b5f604082840312156145a6575f80fd5b6145ae613bc8565b9050815181526020820151602082015292915050565b5f604082840312156145d4575f80fd5b6110628383614596565b5f602082840312156145ee575f80fd5b5051919050565b634e487b7160e01b5f52601160045260245ffd5b65ffffffffffff8181168382160190808211156132e4576132e46145f5565b6001600160f01b031981358181169160028510156146505780818660020360031b1b83161692505b505092915050565b5f60808284031215614668575f80fd5b604051606081018181106001600160401b038211171561468a5761468a613bb4565b60405282518152602083015161469f81614348565b60208201526146b18460408501614596565b60408201529392505050565b5f826146d757634e487b7160e01b5f52601260045260245ffd5b500490565b8082028115828204841417610c7d57610c7d6145f5565b80356020831015610c7d575f19602084900360031b1b1692915050565b6001600160c01b031981358181169160088510156146505760089490940360031b84901b1690921692915050565b6001600160401b0360c01b8560c01b16815263ffffffff60e01b8460e01b16600882015282600c8201525f825161477c81602c8501602087016138a9565b91909101602c0195945050505050565b8481526001600160401b0360c01b8460c01b1660208201528260288201525f82516147be8160488501602087016138a9565b9190910160480195945050505050565b65ffffffffffff8281168282160390808211156132e4576132e46145f5565b5f825161406a8184602087016138a956fe72ab1bc1039b79dc4724ffca13de82c96834302d3c7e0d4252232d4b2dd8f900360894a13ba1a3210667c828492db98dca3e2076cc3735a920a3ca505d382bbceef3dac4538c82c8ace4063ab0acd2d15cdb5883aa1dff7c2673abb3d869840065d7a28e3265b37a6474929f336521b332c1681b933f6cb9f3376673440d862a02dd7bc7dec4dceedda775e58dd541e08a116c6c53815c0bd028192f7b626800eef3dac4538c82c8ace4063ab0acd2d15cdb5883aa1dff7c2673abb3d8698401a2646970667358221220f51b3dc7ca062894c46338d881972076d1c50c280cdfbfb6461d57ebe3105fe464736f6c63430008170033","linkReferences":{}},"methodIdentifiers":{"BRIDGEABLE_TOKEN()":"903df521","DEFAULT_ADMIN_ROLE()":"a217fddf","PAUSER_ROLE()":"e63ab1e9","SEND()":"1f5e1334","SEND_AND_CALL()":"134d4f25","UPGRADER_ROLE()":"f72c0d8b","UPGRADE_INTERFACE_VERSION()":"ad3cb1cc","acceptDefaultAdminTransfer()":"cefc1429","allowInitializePath((uint32,bytes32,uint64))":"ff7bd03d","approvalRequired()":"9f68b964","beginDefaultAdminTransfer(address)":"634e93da","cancelDefaultAdminTransfer()":"d602b9fd","changeDefaultAdminDelay(uint48)":"649a5ec7","combineOptions(uint32,uint16,bytes)":"bc70b354","decimalConversionRate()":"963efcaa","defaultAdmin()":"84ef8ffc","defaultAdminDelay()":"cc8463c8","defaultAdminDelayIncreaseWait()":"022d63fb","endpoint()":"5e280f11","enforcedOptions(uint32,uint16)":"5535d461","exposed_credit(address,uint256,uint32)":"3deb01a6","exposed_debit(address,uint256,uint256,uint32)":"78275f6c","getRoleAdmin(bytes32)":"248a9ca3","grantRole(bytes32,address)":"2f2ff15d","hasRole(bytes32,address)":"91d14854","initialize(address,address,address)":"c0c53b8b","isComposeMsgSender((uint32,bytes32,uint64),bytes,address)":"82413eac","isPeer(uint32,bytes32)":"5a0dfe4d","lzReceive((uint32,bytes32,uint64),bytes32,bytes,address,bytes)":"13137d65","lzReceiveAndRevert(((uint32,bytes32,uint64),uint32,address,bytes32,uint256,address,bytes,bytes)[])":"bd815db0","lzReceiveSimulate((uint32,bytes32,uint64),bytes32,bytes,address,bytes)":"d045a0dc","msgInspector()":"111ecdad","nextNonce(uint32,bytes32)":"7d25a05e","oApp()":"52ae2879","oAppVersion()":"17442b70","oftVersion()":"156a0d0f","outboundTransfersPaused()":"a8d2dab7","owner()":"8da5cb5b","pause()":"8456cb59","pauseOutboundTransfers()":"86843aa1","pauseStatus()":"466916ca","paused()":"5c975abb","peers(uint32)":"bb0b6a53","pendingDefaultAdmin()":"cf6eefb7","pendingDefaultAdminDelay()":"a1eda53c","preCrime()":"b731ea0a","proxiableUUID()":"52d1902d","quoteOFT((uint32,bytes32,uint256,uint256,bytes,bytes,bytes))":"0d35b415","quoteSend((uint32,bytes32,uint256,uint256,bytes,bytes,bytes),bool)":"3b6f743b","renounceOwnership()":"715018a6","renounceRole(bytes32,address)":"36568abe","revokeRole(bytes32,address)":"d547741f","rollbackDefaultAdminDelay()":"0aa6220b","send((uint32,bytes32,uint256,uint256,bytes,bytes,bytes),(uint256,uint256),address)":"c7c7f5b3","setDelegate(address)":"ca5eb5e1","setEnforcedOptions((uint32,uint16,bytes)[])":"b98bd070","setMsgInspector(address)":"6fc1b31e","setPeer(uint32,bytes32)":"3400288b","setPreCrime(address)":"d4243885","sharedDecimals()":"857749b0","supportsInterface(bytes4)":"01ffc9a7","token()":"fc0c546a","transferOwnership(address)":"f2fde38b","unpause()":"3f4ba83a","unpauseOutboundTransfers()":"1657c3b8","upgradeToAndCall(address,bytes)":"4f1ef286"},"storageLayout":{"storage":[],"types":{}},"id":209}