{"abi":[{"type":"constructor","inputs":[{"name":"approvalRequired","type":"bool","internalType":"bool"},{"name":"token","type":"address","internalType":"address"},{"name":"lzEndpoint","type":"address","internalType":"address"}],"stateMutability":"nonpayable"},{"type":"function","name":"BRIDGEABLE_TOKEN","inputs":[],"outputs":[{"name":"","type":"address","internalType":"address"}],"stateMutability":"view"},{"type":"function","name":"DEFAULT_ADMIN_ROLE","inputs":[],"outputs":[{"name":"","type":"bytes32","internalType":"bytes32"}],"stateMutability":"view"},{"type":"function","name":"PAUSER_ROLE","inputs":[],"outputs":[{"name":"","type":"bytes32","internalType":"bytes32"}],"stateMutability":"view"},{"type":"function","name":"SEND","inputs":[],"outputs":[{"name":"","type":"uint16","internalType":"uint16"}],"stateMutability":"view"},{"type":"function","name":"SEND_AND_CALL","inputs":[],"outputs":[{"name":"","type":"uint16","internalType":"uint16"}],"stateMutability":"view"},{"type":"function","name":"UPGRADER_ROLE","inputs":[],"outputs":[{"name":"","type":"bytes32","internalType":"bytes32"}],"stateMutability":"view"},{"type":"function","name":"UPGRADE_INTERFACE_VERSION","inputs":[],"outputs":[{"name":"","type":"string","internalType":"string"}],"stateMutability":"view"},{"type":"function","name":"acceptDefaultAdminTransfer","inputs":[],"outputs":[],"stateMutability":"nonpayable"},{"type":"function","name":"allowInitializePath","inputs":[{"name":"origin","type":"tuple","internalType":"struct Origin","components":[{"name":"srcEid","type":"uint32","internalType":"uint32"},{"name":"sender","type":"bytes32","internalType":"bytes32"},{"name":"nonce","type":"uint64","internalType":"uint64"}]}],"outputs":[{"name":"","type":"bool","internalType":"bool"}],"stateMutability":"view"},{"type":"function","name":"approvalRequired","inputs":[],"outputs":[{"name":"","type":"bool","internalType":"bool"}],"stateMutability":"view"},{"type":"function","name":"beginDefaultAdminTransfer","inputs":[{"name":"newAdmin","type":"address","internalType":"address"}],"outputs":[],"stateMutability":"nonpayable"},{"type":"function","name":"cancelDefaultAdminTransfer","inputs":[],"outputs":[],"stateMutability":"nonpayable"},{"type":"function","name":"changeDefaultAdminDelay","inputs":[{"name":"newDelay","type":"uint48","internalType":"uint48"}],"outputs":[],"stateMutability":"nonpayable"},{"type":"function","name":"combineOptions","inputs":[{"name":"_eid","type":"uint32","internalType":"uint32"},{"name":"_msgType","type":"uint16","internalType":"uint16"},{"name":"_extraOptions","type":"bytes","internalType":"bytes"}],"outputs":[{"name":"","type":"bytes","internalType":"bytes"}],"stateMutability":"view"},{"type":"function","name":"decimalConversionRate","inputs":[],"outputs":[{"name":"","type":"uint256","internalType":"uint256"}],"stateMutability":"view"},{"type":"function","name":"defaultAdmin","inputs":[],"outputs":[{"name":"","type":"address","internalType":"address"}],"stateMutability":"view"},{"type":"function","name":"defaultAdminDelay","inputs":[],"outputs":[{"name":"","type":"uint48","internalType":"uint48"}],"stateMutability":"view"},{"type":"function","name":"defaultAdminDelayIncreaseWait","inputs":[],"outputs":[{"name":"","type":"uint48","internalType":"uint48"}],"stateMutability":"view"},{"type":"function","name":"endpoint","inputs":[],"outputs":[{"name":"","type":"address","internalType":"contract ILayerZeroEndpointV2"}],"stateMutability":"view"},{"type":"function","name":"enforcedOptions","inputs":[{"name":"_eid","type":"uint32","internalType":"uint32"},{"name":"_msgType","type":"uint16","internalType":"uint16"}],"outputs":[{"name":"","type":"bytes","internalType":"bytes"}],"stateMutability":"view"},{"type":"function","name":"getRoleAdmin","inputs":[{"name":"role","type":"bytes32","internalType":"bytes32"}],"outputs":[{"name":"","type":"bytes32","internalType":"bytes32"}],"stateMutability":"view"},{"type":"function","name":"grantRole","inputs":[{"name":"role","type":"bytes32","internalType":"bytes32"},{"name":"account","type":"address","internalType":"address"}],"outputs":[],"stateMutability":"nonpayable"},{"type":"function","name":"hasRole","inputs":[{"name":"role","type":"bytes32","internalType":"bytes32"},{"name":"account","type":"address","internalType":"address"}],"outputs":[{"name":"","type":"bool","internalType":"bool"}],"stateMutability":"view"},{"type":"function","name":"initialize","inputs":[{"name":"initialAdmin","type":"address","internalType":"address"},{"name":"initialUpgrader","type":"address","internalType":"address"},{"name":"initialPauser","type":"address","internalType":"address"}],"outputs":[],"stateMutability":"nonpayable"},{"type":"function","name":"initializeV2","inputs":[{"name":"_newStateVariable","type":"uint256","internalType":"uint256"}],"outputs":[],"stateMutability":"nonpayable"},{"type":"function","name":"isComposeMsgSender","inputs":[{"name":"","type":"tuple","internalType":"struct Origin","components":[{"name":"srcEid","type":"uint32","internalType":"uint32"},{"name":"sender","type":"bytes32","internalType":"bytes32"},{"name":"nonce","type":"uint64","internalType":"uint64"}]},{"name":"","type":"bytes","internalType":"bytes"},{"name":"_sender","type":"address","internalType":"address"}],"outputs":[{"name":"","type":"bool","internalType":"bool"}],"stateMutability":"view"},{"type":"function","name":"isPeer","inputs":[{"name":"_eid","type":"uint32","internalType":"uint32"},{"name":"_peer","type":"bytes32","internalType":"bytes32"}],"outputs":[{"name":"","type":"bool","internalType":"bool"}],"stateMutability":"view"},{"type":"function","name":"lzReceive","inputs":[{"name":"_origin","type":"tuple","internalType":"struct Origin","components":[{"name":"srcEid","type":"uint32","internalType":"uint32"},{"name":"sender","type":"bytes32","internalType":"bytes32"},{"name":"nonce","type":"uint64","internalType":"uint64"}]},{"name":"_guid","type":"bytes32","internalType":"bytes32"},{"name":"_message","type":"bytes","internalType":"bytes"},{"name":"_executor","type":"address","internalType":"address"},{"name":"_extraData","type":"bytes","internalType":"bytes"}],"outputs":[],"stateMutability":"payable"},{"type":"function","name":"lzReceiveAndRevert","inputs":[{"name":"_packets","type":"tuple[]","internalType":"struct InboundPacket[]","components":[{"name":"origin","type":"tuple","internalType":"struct Origin","components":[{"name":"srcEid","type":"uint32","internalType":"uint32"},{"name":"sender","type":"bytes32","internalType":"bytes32"},{"name":"nonce","type":"uint64","internalType":"uint64"}]},{"name":"dstEid","type":"uint32","internalType":"uint32"},{"name":"receiver","type":"address","internalType":"address"},{"name":"guid","type":"bytes32","internalType":"bytes32"},{"name":"value","type":"uint256","internalType":"uint256"},{"name":"executor","type":"address","internalType":"address"},{"name":"message","type":"bytes","internalType":"bytes"},{"name":"extraData","type":"bytes","internalType":"bytes"}]}],"outputs":[],"stateMutability":"payable"},{"type":"function","name":"lzReceiveSimulate","inputs":[{"name":"_origin","type":"tuple","internalType":"struct Origin","components":[{"name":"srcEid","type":"uint32","internalType":"uint32"},{"name":"sender","type":"bytes32","internalType":"bytes32"},{"name":"nonce","type":"uint64","internalType":"uint64"}]},{"name":"_guid","type":"bytes32","internalType":"bytes32"},{"name":"_message","type":"bytes","internalType":"bytes"},{"name":"_executor","type":"address","internalType":"address"},{"name":"_extraData","type":"bytes","internalType":"bytes"}],"outputs":[],"stateMutability":"payable"},{"type":"function","name":"msgInspector","inputs":[],"outputs":[{"name":"","type":"address","internalType":"address"}],"stateMutability":"view"},{"type":"function","name":"newStateVariable","inputs":[],"outputs":[{"name":"","type":"uint256","internalType":"uint256"}],"stateMutability":"view"},{"type":"function","name":"nextNonce","inputs":[{"name":"","type":"uint32","internalType":"uint32"},{"name":"","type":"bytes32","internalType":"bytes32"}],"outputs":[{"name":"nonce","type":"uint64","internalType":"uint64"}],"stateMutability":"view"},{"type":"function","name":"oApp","inputs":[],"outputs":[{"name":"","type":"address","internalType":"address"}],"stateMutability":"view"},{"type":"function","name":"oAppVersion","inputs":[],"outputs":[{"name":"senderVersion","type":"uint64","internalType":"uint64"},{"name":"receiverVersion","type":"uint64","internalType":"uint64"}],"stateMutability":"pure"},{"type":"function","name":"oftVersion","inputs":[],"outputs":[{"name":"interfaceId","type":"bytes4","internalType":"bytes4"},{"name":"version","type":"uint64","internalType":"uint64"}],"stateMutability":"pure"},{"type":"function","name":"outboundTransfersPaused","inputs":[],"outputs":[{"name":"","type":"bool","internalType":"bool"}],"stateMutability":"view"},{"type":"function","name":"owner","inputs":[],"outputs":[{"name":"","type":"address","internalType":"address"}],"stateMutability":"view"},{"type":"function","name":"pause","inputs":[],"outputs":[],"stateMutability":"nonpayable"},{"type":"function","name":"pauseOutboundTransfers","inputs":[],"outputs":[],"stateMutability":"nonpayable"},{"type":"function","name":"pauseStatus","inputs":[],"outputs":[{"name":"fullyPaused","type":"bool","internalType":"bool"},{"name":"onlyOutboundTransfersPaused","type":"bool","internalType":"bool"}],"stateMutability":"view"},{"type":"function","name":"paused","inputs":[],"outputs":[{"name":"","type":"bool","internalType":"bool"}],"stateMutability":"view"},{"type":"function","name":"peers","inputs":[{"name":"_eid","type":"uint32","internalType":"uint32"}],"outputs":[{"name":"","type":"bytes32","internalType":"bytes32"}],"stateMutability":"view"},{"type":"function","name":"pendingDefaultAdmin","inputs":[],"outputs":[{"name":"newAdmin","type":"address","internalType":"address"},{"name":"schedule","type":"uint48","internalType":"uint48"}],"stateMutability":"view"},{"type":"function","name":"pendingDefaultAdminDelay","inputs":[],"outputs":[{"name":"newDelay","type":"uint48","internalType":"uint48"},{"name":"schedule","type":"uint48","internalType":"uint48"}],"stateMutability":"view"},{"type":"function","name":"preCrime","inputs":[],"outputs":[{"name":"","type":"address","internalType":"address"}],"stateMutability":"view"},{"type":"function","name":"proxiableUUID","inputs":[],"outputs":[{"name":"","type":"bytes32","internalType":"bytes32"}],"stateMutability":"view"},{"type":"function","name":"quoteOFT","inputs":[{"name":"_sendParam","type":"tuple","internalType":"struct SendParam","components":[{"name":"dstEid","type":"uint32","internalType":"uint32"},{"name":"to","type":"bytes32","internalType":"bytes32"},{"name":"amountLD","type":"uint256","internalType":"uint256"},{"name":"minAmountLD","type":"uint256","internalType":"uint256"},{"name":"extraOptions","type":"bytes","internalType":"bytes"},{"name":"composeMsg","type":"bytes","internalType":"bytes"},{"name":"oftCmd","type":"bytes","internalType":"bytes"}]}],"outputs":[{"name":"oftLimit","type":"tuple","internalType":"struct OFTLimit","components":[{"name":"minAmountLD","type":"uint256","internalType":"uint256"},{"name":"maxAmountLD","type":"uint256","internalType":"uint256"}]},{"name":"oftFeeDetails","type":"tuple[]","internalType":"struct OFTFeeDetail[]","components":[{"name":"feeAmountLD","type":"int256","internalType":"int256"},{"name":"description","type":"string","internalType":"string"}]},{"name":"oftReceipt","type":"tuple","internalType":"struct OFTReceipt","components":[{"name":"amountSentLD","type":"uint256","internalType":"uint256"},{"name":"amountReceivedLD","type":"uint256","internalType":"uint256"}]}],"stateMutability":"view"},{"type":"function","name":"quoteSend","inputs":[{"name":"_sendParam","type":"tuple","internalType":"struct SendParam","components":[{"name":"dstEid","type":"uint32","internalType":"uint32"},{"name":"to","type":"bytes32","internalType":"bytes32"},{"name":"amountLD","type":"uint256","internalType":"uint256"},{"name":"minAmountLD","type":"uint256","internalType":"uint256"},{"name":"extraOptions","type":"bytes","internalType":"bytes"},{"name":"composeMsg","type":"bytes","internalType":"bytes"},{"name":"oftCmd","type":"bytes","internalType":"bytes"}]},{"name":"_payInLzToken","type":"bool","internalType":"bool"}],"outputs":[{"name":"msgFee","type":"tuple","internalType":"struct MessagingFee","components":[{"name":"nativeFee","type":"uint256","internalType":"uint256"},{"name":"lzTokenFee","type":"uint256","internalType":"uint256"}]}],"stateMutability":"view"},{"type":"function","name":"renounceOwnership","inputs":[],"outputs":[],"stateMutability":"pure"},{"type":"function","name":"renounceRole","inputs":[{"name":"role","type":"bytes32","internalType":"bytes32"},{"name":"account","type":"address","internalType":"address"}],"outputs":[],"stateMutability":"nonpayable"},{"type":"function","name":"revokeRole","inputs":[{"name":"role","type":"bytes32","internalType":"bytes32"},{"name":"account","type":"address","internalType":"address"}],"outputs":[],"stateMutability":"nonpayable"},{"type":"function","name":"rollbackDefaultAdminDelay","inputs":[],"outputs":[],"stateMutability":"nonpayable"},{"type":"function","name":"send","inputs":[{"name":"_sendParam","type":"tuple","internalType":"struct SendParam","components":[{"name":"dstEid","type":"uint32","internalType":"uint32"},{"name":"to","type":"bytes32","internalType":"bytes32"},{"name":"amountLD","type":"uint256","internalType":"uint256"},{"name":"minAmountLD","type":"uint256","internalType":"uint256"},{"name":"extraOptions","type":"bytes","internalType":"bytes"},{"name":"composeMsg","type":"bytes","internalType":"bytes"},{"name":"oftCmd","type":"bytes","internalType":"bytes"}]},{"name":"_fee","type":"tuple","internalType":"struct MessagingFee","components":[{"name":"nativeFee","type":"uint256","internalType":"uint256"},{"name":"lzTokenFee","type":"uint256","internalType":"uint256"}]},{"name":"_refundAddress","type":"address","internalType":"address"}],"outputs":[{"name":"msgReceipt","type":"tuple","internalType":"struct MessagingReceipt","components":[{"name":"guid","type":"bytes32","internalType":"bytes32"},{"name":"nonce","type":"uint64","internalType":"uint64"},{"name":"fee","type":"tuple","internalType":"struct MessagingFee","components":[{"name":"nativeFee","type":"uint256","internalType":"uint256"},{"name":"lzTokenFee","type":"uint256","internalType":"uint256"}]}]},{"name":"oftReceipt","type":"tuple","internalType":"struct OFTReceipt","components":[{"name":"amountSentLD","type":"uint256","internalType":"uint256"},{"name":"amountReceivedLD","type":"uint256","internalType":"uint256"}]}],"stateMutability":"payable"},{"type":"function","name":"setDelegate","inputs":[{"name":"_delegate","type":"address","internalType":"address"}],"outputs":[],"stateMutability":"nonpayable"},{"type":"function","name":"setEnforcedOptions","inputs":[{"name":"_enforcedOptions","type":"tuple[]","internalType":"struct EnforcedOptionParam[]","components":[{"name":"eid","type":"uint32","internalType":"uint32"},{"name":"msgType","type":"uint16","internalType":"uint16"},{"name":"options","type":"bytes","internalType":"bytes"}]}],"outputs":[],"stateMutability":"nonpayable"},{"type":"function","name":"setMsgInspector","inputs":[{"name":"_msgInspector","type":"address","internalType":"address"}],"outputs":[],"stateMutability":"nonpayable"},{"type":"function","name":"setPeer","inputs":[{"name":"_eid","type":"uint32","internalType":"uint32"},{"name":"_peer","type":"bytes32","internalType":"bytes32"}],"outputs":[],"stateMutability":"nonpayable"},{"type":"function","name":"setPreCrime","inputs":[{"name":"_preCrime","type":"address","internalType":"address"}],"outputs":[],"stateMutability":"nonpayable"},{"type":"function","name":"sharedDecimals","inputs":[],"outputs":[{"name":"","type":"uint8","internalType":"uint8"}],"stateMutability":"pure"},{"type":"function","name":"supportsInterface","inputs":[{"name":"interfaceId","type":"bytes4","internalType":"bytes4"}],"outputs":[{"name":"","type":"bool","internalType":"bool"}],"stateMutability":"view"},{"type":"function","name":"token","inputs":[],"outputs":[{"name":"","type":"address","internalType":"address"}],"stateMutability":"view"},{"type":"function","name":"transferOwnership","inputs":[{"name":"","type":"address","internalType":"address"}],"outputs":[],"stateMutability":"pure"},{"type":"function","name":"unpause","inputs":[],"outputs":[],"stateMutability":"nonpayable"},{"type":"function","name":"unpauseOutboundTransfers","inputs":[],"outputs":[],"stateMutability":"nonpayable"},{"type":"function","name":"upgradeToAndCall","inputs":[{"name":"newImplementation","type":"address","internalType":"address"},{"name":"data","type":"bytes","internalType":"bytes"}],"outputs":[],"stateMutability":"payable"},{"type":"event","name":"DefaultAdminDelayChangeCanceled","inputs":[],"anonymous":false},{"type":"event","name":"DefaultAdminDelayChangeScheduled","inputs":[{"name":"newDelay","type":"uint48","indexed":false,"internalType":"uint48"},{"name":"effectSchedule","type":"uint48","indexed":false,"internalType":"uint48"}],"anonymous":false},{"type":"event","name":"DefaultAdminTransferCanceled","inputs":[],"anonymous":false},{"type":"event","name":"DefaultAdminTransferScheduled","inputs":[{"name":"newAdmin","type":"address","indexed":true,"internalType":"address"},{"name":"acceptSchedule","type":"uint48","indexed":false,"internalType":"uint48"}],"anonymous":false},{"type":"event","name":"EnforcedOptionSet","inputs":[{"name":"_enforcedOptions","type":"tuple[]","indexed":false,"internalType":"struct EnforcedOptionParam[]","components":[{"name":"eid","type":"uint32","internalType":"uint32"},{"name":"msgType","type":"uint16","internalType":"uint16"},{"name":"options","type":"bytes","internalType":"bytes"}]}],"anonymous":false},{"type":"event","name":"Initialized","inputs":[{"name":"version","type":"uint64","indexed":false,"internalType":"uint64"}],"anonymous":false},{"type":"event","name":"MsgInspectorSet","inputs":[{"name":"inspector","type":"address","indexed":false,"internalType":"address"}],"anonymous":false},{"type":"event","name":"OFTReceived","inputs":[{"name":"guid","type":"bytes32","indexed":true,"internalType":"bytes32"},{"name":"srcEid","type":"uint32","indexed":false,"internalType":"uint32"},{"name":"toAddress","type":"address","indexed":true,"internalType":"address"},{"name":"amountReceivedLD","type":"uint256","indexed":false,"internalType":"uint256"}],"anonymous":false},{"type":"event","name":"OFTSent","inputs":[{"name":"guid","type":"bytes32","indexed":true,"internalType":"bytes32"},{"name":"dstEid","type":"uint32","indexed":false,"internalType":"uint32"},{"name":"fromAddress","type":"address","indexed":true,"internalType":"address"},{"name":"amountSentLD","type":"uint256","indexed":false,"internalType":"uint256"},{"name":"amountReceivedLD","type":"uint256","indexed":false,"internalType":"uint256"}],"anonymous":false},{"type":"event","name":"OutboundTransfersPaused","inputs":[{"name":"account","type":"address","indexed":false,"internalType":"address"}],"anonymous":false},{"type":"event","name":"OutboundTransfersUnpaused","inputs":[{"name":"account","type":"address","indexed":false,"internalType":"address"}],"anonymous":false},{"type":"event","name":"OwnershipTransferred","inputs":[{"name":"previousOwner","type":"address","indexed":true,"internalType":"address"},{"name":"newOwner","type":"address","indexed":true,"internalType":"address"}],"anonymous":false},{"type":"event","name":"Paused","inputs":[{"name":"account","type":"address","indexed":false,"internalType":"address"}],"anonymous":false},{"type":"event","name":"PeerSet","inputs":[{"name":"eid","type":"uint32","indexed":false,"internalType":"uint32"},{"name":"peer","type":"bytes32","indexed":false,"internalType":"bytes32"}],"anonymous":false},{"type":"event","name":"PreCrimeSet","inputs":[{"name":"preCrimeAddress","type":"address","indexed":false,"internalType":"address"}],"anonymous":false},{"type":"event","name":"RoleAdminChanged","inputs":[{"name":"role","type":"bytes32","indexed":true,"internalType":"bytes32"},{"name":"previousAdminRole","type":"bytes32","indexed":true,"internalType":"bytes32"},{"name":"newAdminRole","type":"bytes32","indexed":true,"internalType":"bytes32"}],"anonymous":false},{"type":"event","name":"RoleGranted","inputs":[{"name":"role","type":"bytes32","indexed":true,"internalType":"bytes32"},{"name":"account","type":"address","indexed":true,"internalType":"address"},{"name":"sender","type":"address","indexed":true,"internalType":"address"}],"anonymous":false},{"type":"event","name":"RoleRevoked","inputs":[{"name":"role","type":"bytes32","indexed":true,"internalType":"bytes32"},{"name":"account","type":"address","indexed":true,"internalType":"address"},{"name":"sender","type":"address","indexed":true,"internalType":"address"}],"anonymous":false},{"type":"event","name":"Unpaused","inputs":[{"name":"account","type":"address","indexed":false,"internalType":"address"}],"anonymous":false},{"type":"event","name":"Upgraded","inputs":[{"name":"implementation","type":"address","indexed":true,"internalType":"address"}],"anonymous":false},{"type":"error","name":"AccessControlBadConfirmation","inputs":[]},{"type":"error","name":"AccessControlEnforcedDefaultAdminDelay","inputs":[{"name":"schedule","type":"uint48","internalType":"uint48"}]},{"type":"error","name":"AccessControlEnforcedDefaultAdminRules","inputs":[]},{"type":"error","name":"AccessControlInvalidDefaultAdmin","inputs":[{"name":"defaultAdmin","type":"address","internalType":"address"}]},{"type":"error","name":"AccessControlUnauthorizedAccount","inputs":[{"name":"account","type":"address","internalType":"address"},{"name":"neededRole","type":"bytes32","internalType":"bytes32"}]},{"type":"error","name":"AddressEmptyCode","inputs":[{"name":"target","type":"address","internalType":"address"}]},{"type":"error","name":"ERC1967InvalidImplementation","inputs":[{"name":"implementation","type":"address","internalType":"address"}]},{"type":"error","name":"ERC1967NonPayable","inputs":[]},{"type":"error","name":"EnforcedOutboundTransfersPause","inputs":[]},{"type":"error","name":"EnforcedPause","inputs":[]},{"type":"error","name":"ExpectedOutboundTransfersPause","inputs":[]},{"type":"error","name":"ExpectedPause","inputs":[]},{"type":"error","name":"FailedCall","inputs":[]},{"type":"error","name":"InvalidDelegate","inputs":[]},{"type":"error","name":"InvalidEndpointCall","inputs":[]},{"type":"error","name":"InvalidInitialization","inputs":[]},{"type":"error","name":"InvalidLocalDecimals","inputs":[]},{"type":"error","name":"InvalidOptions","inputs":[{"name":"options","type":"bytes","internalType":"bytes"}]},{"type":"error","name":"LzTokenUnavailable","inputs":[]},{"type":"error","name":"NoPeer","inputs":[{"name":"eid","type":"uint32","internalType":"uint32"}]},{"type":"error","name":"NotEnoughNative","inputs":[{"name":"msgValue","type":"uint256","internalType":"uint256"}]},{"type":"error","name":"NotInitializing","inputs":[]},{"type":"error","name":"OnlyEndpoint","inputs":[{"name":"addr","type":"address","internalType":"address"}]},{"type":"error","name":"OnlyPeer","inputs":[{"name":"eid","type":"uint32","internalType":"uint32"},{"name":"sender","type":"bytes32","internalType":"bytes32"}]},{"type":"error","name":"OnlySelf","inputs":[]},{"type":"error","name":"OperationNotAllowed","inputs":[{"name":"message","type":"string","internalType":"string"}]},{"type":"error","name":"OwnableInvalidOwner","inputs":[{"name":"owner","type":"address","internalType":"address"}]},{"type":"error","name":"OwnableUnauthorizedAccount","inputs":[{"name":"account","type":"address","internalType":"address"}]},{"type":"error","name":"SafeCastOverflowedUintDowncast","inputs":[{"name":"bits","type":"uint8","internalType":"uint8"},{"name":"value","type":"uint256","internalType":"uint256"}]},{"type":"error","name":"SafeERC20FailedOperation","inputs":[{"name":"token","type":"address","internalType":"address"}]},{"type":"error","name":"SimulationResult","inputs":[{"name":"result","type":"bytes","internalType":"bytes"}]},{"type":"error","name":"SlippageExceeded","inputs":[{"name":"amountLD","type":"uint256","internalType":"uint256"},{"name":"minAmountLD","type":"uint256","internalType":"uint256"}]},{"type":"error","name":"UUPSUnauthorizedCallContext","inputs":[]},{"type":"error","name":"UUPSUnsupportedProxiableUUID","inputs":[{"name":"slot","type":"bytes32","internalType":"bytes32"}]}],"bytecode":{"object":"0x6101206040523060805234801562000015575f80fd5b5060405162004d5438038062004d54833981016040819052620000389162000200565b828282816001600160a01b031663313ce5676040518163ffffffff1660e01b8152600401602060405180830381865afa15801562000078573d5f803e3d5ffd5b505050506040513d601f19601f820116820180604052508101906200009e91906200024c565b6001600160a01b03821660a05281600660ff83161015620000d2576040516301e9714b60e41b815260040160405180910390fd5b620000df60068362000289565b620000ec90600a6200039e565b60c05250620000fc905062000119565b506001600160a01b031660e05215156101005250620003ae915050565b5f62000124620001ba565b805490915068010000000000000000900460ff1615620001575760405163f92ee8a960e01b815260040160405180910390fd5b80546001600160401b0390811614620001b75780546001600160401b0319166001600160401b0390811782556040519081527fc7f505b2f371ae2175ee4913f4499e1f2633a7b5936321eed1cdaeb6115181d29060200160405180910390a15b50565b5f807ff0c57e16840df040f15088dc2f81fe391c3923bec73e23a9662efc9c229c6a005b92915050565b80516001600160a01b0381168114620001fb575f80fd5b919050565b5f805f6060848603121562000213575f80fd5b8351801515811462000223575f80fd5b92506200023360208501620001e4565b91506200024360408501620001e4565b90509250925092565b5f602082840312156200025d575f80fd5b815160ff811681146200026e575f80fd5b9392505050565b634e487b7160e01b5f52601160045260245ffd5b60ff8281168282160390811115620001de57620001de62000275565b600181815b80851115620002e557815f1904821115620002c957620002c962000275565b80851615620002d757918102915b93841c9390800290620002aa565b509250929050565b5f82620002fd57506001620001de565b816200030b57505f620001de565b81600181146200032457600281146200032f576200034f565b6001915050620001de565b60ff84111562000343576200034362000275565b50506001821b620001de565b5060208310610133831016604e8410600b841016171562000374575081810a620001de565b620003808383620002a5565b805f190482111562000396576200039662000275565b029392505050565b5f6200026e60ff841683620002ed565b60805160a05160c05160e051610100516148dc620004785f395f818161091e01528181611e0b015261295b01525f818161089c01528181611e3101528181611e5501528181612985015281816129a701528181612a610152612dfd01525f81816108ee01528181612d1a01528181612d8c0152612f5a01525f818161073501528181610d7901528181611bea0152818161205f0152818161237901528181612af3015281816133c4015261347b01525f81816124a5015281816124ce015261262f01526148dc5ff3fe6080604052600436106103c9575f3560e01c80638456cb59116101f4578063bc70b35411610113578063d045a0dc116100a8578063e63ab1e911610078578063e63ab1e914610b94578063f2fde38b14610bb4578063f72c0d8b14610bd3578063fc0c546a14610c06578063ff7bd03d14610c1a575f80fd5b8063d045a0dc14610b2f578063d424388514610b42578063d547741f14610b61578063d602b9fd14610b80575f80fd5b8063ca5eb5e1116100e3578063ca5eb5e114610aae578063cc8463c814610acd578063cefc142914610ae1578063cf6eefb714610af5575f80fd5b8063bc70b35414610a3c578063bd815db014610a5b578063c0c53b8b14610a6e578063c7c7f5b314610a8d575f80fd5b80639f68b96411610189578063ad3cb1cc11610159578063ad3cb1cc1461099c578063b731ea0a146109cc578063b98bd070146109e0578063bb0b6a53146109ff575f80fd5b80639f68b96414610910578063a1eda53c14610942578063a217fddf14610975578063a8d2dab714610988575f80fd5b80638da5cb5b116101c45780638da5cb5b14610877578063903df5211461088b57806391d14854146108be578063963efcaa146108dd575f80fd5b80638456cb591461082057806384ef8ffc14610834578063857749b01461084857806386843aa114610863575f80fd5b80633b6f743b116102eb5780635b4e128c11610280578063649a5ec711610250578063649a5ec7146107765780636fc1b31e14610795578063715018a6146107b45780637d25a05e146107c857806382413eac14610801575f80fd5b80635b4e128c146106f15780635c975abb146107105780635e280f1114610724578063634e93da14610757575f80fd5b806352ae2879116102bb57806352ae28791461065e57806352d1902d146106705780635535d461146106845780635a0dfe4d146106b0575f80fd5b80633b6f743b146105e05780633f4ba83a1461060c578063466916ca146106205780634f1ef2861461064b575f80fd5b80631657c3b8116103615780632f2ff15d116103315780632f2ff15d1461056f5780633400288b1461058e57806336568abe146105ad57806336916c77146105cc575f80fd5b80631657c3b8146104f957806317442b701461050d5780631f5e13341461052e578063248a9ca314610542575f80fd5b8063111ecdad1161039c578063111ecdad1461046d57806313137d6514610499578063134d4f25146104ac578063156a0d0f146104d3575f80fd5b806301ffc9a7146103cd578063022d63fb146104015780630aa6220b146104295780630d35b4151461043f575b5f80fd5b3480156103d8575f80fd5b506103ec6103e73660046138a3565b610c39565b60405190151581526020015b60405180910390f35b34801561040c575f80fd5b50620697805b60405165ffffffffffff90911681526020016103f8565b348015610434575f80fd5b5061043d610c63565b005b34801561044a575f80fd5b5061045e6104593660046138e0565b610c78565b6040516103f89392919061395e565b348015610478575f80fd5b50610481610d43565b6040516001600160a01b0390911681526020016103f8565b61043d6104a7366004613a5d565b610d77565b3480156104b7575f80fd5b506104c0600281565b60405161ffff90911681526020016103f8565b3480156104de575f80fd5b506040805162b9270b60e21b815260016020820152016103f8565b348015610504575f80fd5b5061043d610e37565b348015610518575f80fd5b50604080516001815260026020820152016103f8565b348015610539575f80fd5b506104c0600181565b34801561054d575f80fd5b5061056161055c366004613af5565b610e56565b6040519081526020016103f8565b34801561057a575f80fd5b5061043d610589366004613b0c565b610e76565b348015610599575f80fd5b5061043d6105a8366004613b52565b610ea2565b3480156105b8575f80fd5b5061043d6105c7366004613b0c565b610f0d565b3480156105d7575f80fd5b506105615f5481565b3480156105eb575f80fd5b506105ff6105fa366004613b87565b610fcf565b6040516103f89190613bca565b348015610617575f80fd5b5061043d611033565b34801561062b575f80fd5b50610634611052565b6040805192151583529015156020830152016103f8565b61043d610659366004613c73565b61106c565b348015610669575f80fd5b5030610481565b34801561067b575f80fd5b50610561611087565b34801561068f575f80fd5b506106a361069e366004613d10565b6110a2565b6040516103f89190613d41565b3480156106bb575f80fd5b506103ec6106ca366004613b52565b63ffffffff919091165f9081525f805160206147e783398151915260205260409020541490565b3480156106fc575f80fd5b5061043d61070b366004613af5565b61117a565b34801561071b575f80fd5b506103ec61122c565b34801561072f575f80fd5b506104817f000000000000000000000000000000000000000000000000000000000000000081565b348015610762575f80fd5b5061043d610771366004613d53565b61125a565b348015610781575f80fd5b5061043d610790366004613d6e565b61126d565b3480156107a0575f80fd5b5061043d6107af366004613d53565b611280565b3480156107bf575f80fd5b5061043d6112fc565b3480156107d3575f80fd5b506107e96107e2366004613b52565b5f92915050565b6040516001600160401b0390911681526020016103f8565b34801561080c575f80fd5b506103ec61081b366004613d93565b611363565b34801561082b575f80fd5b5061043d611378565b34801561083f575f80fd5b50610481611397565b348015610853575f80fd5b50604051600681526020016103f8565b34801561086e575f80fd5b5061043d6113b2565b348015610882575f80fd5b506104816113d1565b348015610896575f80fd5b506104817f000000000000000000000000000000000000000000000000000000000000000081565b3480156108c9575f80fd5b506103ec6108d8366004613b0c565b6113df565b3480156108e8575f80fd5b506105617f000000000000000000000000000000000000000000000000000000000000000081565b34801561091b575f80fd5b507f00000000000000000000000000000000000000000000000000000000000000006103ec565b34801561094d575f80fd5b50610956611415565b6040805165ffffffffffff9384168152929091166020830152016103f8565b348015610980575f80fd5b506105615f81565b348015610993575f80fd5b506103ec611484565b3480156109a7575f80fd5b506106a3604051806040016040528060058152602001640352e302e360dc1b81525081565b3480156109d7575f80fd5b506104816114ac565b3480156109eb575f80fd5b5061043d6109fa366004613e35565b6114d4565b348015610a0a575f80fd5b50610561610a19366004613e73565b63ffffffff165f9081525f805160206147e7833981519152602052604090205490565b348015610a47575f80fd5b506106a3610a56366004613e8c565b611650565b61043d610a69366004613e35565b6117e0565b348015610a79575f80fd5b5061043d610a88366004613ee8565b61196c565b610aa0610a9b366004613f30565b611acb565b6040516103f8929190613f8d565b348015610ab9575f80fd5b5061043d610ac8366004613d53565b611bc3565b348015610ad8575f80fd5b50610412611c44565b348015610aec575f80fd5b5061043d611cbf565b348015610b00575f80fd5b50610b09611cfe565b604080516001600160a01b03909316835265ffffffffffff9091166020830152016103f8565b61043d610b3d366004613a5d565b611d2b565b348015610b4d575f80fd5b5061043d610b5c366004613d53565b611d5a565b348015610b6c575f80fd5b5061043d610b7b366004613b0c565b611dce565b348015610b8b575f80fd5b5061043d611df6565b348015610b9f575f80fd5b506105615f8051602061484783398151915281565b348015610bbf575f80fd5b5061043d610bce366004613d53565b6112fc565b348015610bde575f80fd5b506105617f189ab7a9244df0848122154315af71fe140f3db0fe014031783b0946b8c9d2e381565b348015610c11575f80fd5b50610481611e08565b348015610c25575f80fd5b506103ec610c34366004613fde565b611ed3565b5f6001600160e01b031982166318a4c3c360e11b1480610c5d5750610c5d82611ef0565b92915050565b5f610c6d81611f24565b610c75611f2e565b50565b604080518082019091525f80825260208201526060610ca860405180604001604052805f81526020015f81525090565b6040805180820182525f8082526001600160401b03602080840182905284518381529081019094529195509182610d01565b604080518082019091525f815260606020820152815260200190600190039081610cda5790505b5093505f80610d25604089013560608a0135610d2060208c018c613e73565b611f3a565b60408051808201909152918252602082015296989597505050505050565b5f807f41db8a78b0206aba5c54bcbfc2bda0d84082a84eb88e680379a57b9e9f653c005b546001600160a01b031692915050565b7f00000000000000000000000000000000000000000000000000000000000000006001600160a01b03163314610dc7576040516391ac5e4f60e01b81523360048201526024015b60405180910390fd5b60208701803590610de190610ddc908a613e73565b611f7d565b14610e1f57610df36020880188613e73565b60405163309afaf360e21b815263ffffffff909116600482015260208801356024820152604401610dbe565b610e2e87878787878787611fcd565b50505050505050565b5f80516020614847833981519152610e4e81611f24565b610c7561212b565b5f9081525f80516020614867833981519152602052604090206001015490565b81610e9457604051631fe1e13d60e11b815260040160405180910390fd5b610e9e828261219d565b5050565b610eaa6121bf565b63ffffffff82165f8181525f805160206147e7833981519152602081815260409283902085905582519384528301849052917f238399d427b947898edb290f5ff0f9109849b1c3ba196a42e35f00c50a54b98b91015b60405180910390a1505050565b5f8051602061482783398151915282158015610f415750610f2c611397565b6001600160a01b0316826001600160a01b0316145b15610fc0575f80610f50611cfe565b90925090506001600160a01b038216151580610f72575065ffffffffffff8116155b80610f8557504265ffffffffffff821610155b15610fad576040516319ca5ebb60e01b815265ffffffffffff82166004820152602401610dbe565b5050805465ffffffffffff60a01b191681555b610fca83836121f1565b505050565b604080518082019091525f80825260208201525f610ffd60408501356060860135610d206020880188613e73565b9150505f8061100c8684612224565b90925090506110296110216020880188613e73565b838388612364565b9695505050505050565b5f8051602061484783398151915261104a81611f24565b610c75612442565b5f8061105c61122c565b9150611066611484565b90509091565b61107461249a565b61107d8261253e565b610e9e8282612568565b5f611090612624565b505f8051602061480783398151915290565b63ffffffff82165f9081527f8d2bda5d9f6ffb5796910376005392955773acee5548d0fcdb10e7c264ea00006020818152604080842061ffff86168552909152909120805460609291906110f590613ff8565b80601f016020809104026020016040519081016040528092919081815260200182805461112190613ff8565b801561116c5780601f106111435761010080835404028352916020019161116c565b820191905f5260205f20905b81548152906001019060200180831161114f57829003601f168201915b505050505091505092915050565b60025f61118561266d565b8054909150600160401b900460ff16806111ac575080546001600160401b03808416911610155b156111ca5760405163f92ee8a960e01b815260040160405180910390fd5b805468ffffffffffffffffff19166001600160401b038316908117600160401b1782555f849055815460ff60401b191682556040519081527fc7f505b2f371ae2175ee4913f4499e1f2633a7b5936321eed1cdaeb6115181d290602001610f00565b5f807fcd5ed15c6e187e77e9aee88184c21f4f2182ab5827cb3b7e07fbedcd63f033005b5460ff1692915050565b5f61126481611f24565b610e9e82612695565b5f61127781611f24565b610e9e82612707565b6112886121bf565b7f41db8a78b0206aba5c54bcbfc2bda0d84082a84eb88e680379a57b9e9f653c0080546001600160a01b0319166001600160a01b03831690811782556040519081527ff0be4f1e87349231d80c36b33f9e8639658eeaf474014dee15a3e6a4d4414197906020015b60405180910390a15050565b6040516367f2b6d360e01b815260206004820152603560248201527f55736520416363657373436f6e74726f6c44656661756c7441646d696e52756c604482015274195cd55c19dc98591958589b19481a5b9cdd195859605a1b6064820152608401610dbe565b6001600160a01b03811630145b949350505050565b5f8051602061484783398151915261138f81611f24565b610c7561276f565b5f80516020614887833981519152546001600160a01b031690565b5f805160206148478339815191526113c981611f24565b610c756127ca565b5f6113da612825565b905090565b5f9182525f80516020614867833981519152602090815260408084206001600160a01b0393909316845291905290205460ff1690565b5f80516020614887833981519152545f90600160d01b900465ffffffffffff165f80516020614827833981519152811580159061145a57504265ffffffffffff831610155b611465575f8061147b565b6001810154600160a01b900465ffffffffffff16825b92509250509091565b5f807fcfbc5ec03206ba5826cf1103520b82c735e9bad14c6d8ed92dff9144ead3f400611250565b5f807fefb041d771d6daaa55702fff6eb740d63ba559a75d2d1d3e151c78ff2480b600610d67565b6114dc6121bf565b7f8d2bda5d9f6ffb5796910376005392955773acee5548d0fcdb10e7c264ea00005f5b8281101561161e5761154184848381811061151c5761151c61402a565b905060200281019061152e919061403e565b61153c90604081019061405c565b61282e565b8383828181106115535761155361402a565b9050602002810190611565919061403e565b61157390604081019061405c565b835f8787868181106115875761158761402a565b9050602002810190611599919061403e565b6115a7906020810190613e73565b63ffffffff1663ffffffff1681526020019081526020015f205f8787868181106115d3576115d361402a565b90506020028101906115e5919061403e565b6115f690604081019060200161409e565b61ffff16815260208101919091526040015f20916116159190836140fb565b506001016114ff565b507fbe4864a8e820971c0247f5992e2da559595f7bf076a21cb5928d443d2a13b6748383604051610f009291906141dc565b63ffffffff84165f9081527f8d2bda5d9f6ffb5796910376005392955773acee5548d0fcdb10e7c264ea00006020818152604080842061ffff881685529091528220805460609391906116a290613ff8565b80601f01602080910402602001604051908101604052809291908181526020018280546116ce90613ff8565b80156117195780601f106116f057610100808354040283529160200191611719565b820191905f5260205f20905b8154815290600101906020018083116116fc57829003601f168201915b5050505050905080515f036117685784848080601f0160208091040260200160405190810160405280939291908181526020018383808284375f92019190915250929550611370945050505050565b5f8490036117795791506113709050565b600284106117c35761178b858561282e565b8061179985600281896142bb565b6040516020016117ab939291906142e2565b60405160208183030381529060405292505050611370565b8484604051639a6d49cd60e01b8152600401610dbe929190614308565b5f5b818110156118ef57368383838181106117fd576117fd61402a565b905060200281019061180f919061431b565b905061184d6118216020830183613e73565b602083013563ffffffff919091165f9081525f805160206147e783398151915260205260409020541490565b61185757506118e7565b3063d045a0dc60c08301358360a081013561187661010083018361405c565b611887610100890160e08a01613d53565b6118956101208a018a61405c565b6040518963ffffffff1660e01b81526004016118b79796959493929190614344565b5f604051808303818588803b1580156118ce575f80fd5b505af11580156118e0573d5f803e3d5ffd5b5050505050505b6001016117e2565b50336001600160a01b0316638e9e70996040518163ffffffff1660e01b81526004015f60405180830381865afa15801561192b573d5f803e3d5ffd5b505050506040513d5f823e601f3d908101601f1916820160405261195291908101906143c9565b604051638351eea760e01b8152600401610dbe9190613d41565b5f61197561266d565b805490915060ff600160401b82041615906001600160401b03165f8115801561199b5750825b90505f826001600160401b031660011480156119b65750303b155b9050811580156119c4575080155b156119e25760405163f92ee8a960e01b815260040160405180910390fd5b845467ffffffffffffffff191660011785558315611a0c57845460ff60401b1916600160401b1785555b611a1461286f565b611a1e5f89612877565b611a487f189ab7a9244df0848122154315af71fe140f3db0fe014031783b0946b8c9d2e388612889565b50611a605f8051602061484783398151915287612889565b50611a6a886128f5565b611a7388612906565b611a7b612927565b8315611ac157845460ff60401b19168555604051600181527fc7f505b2f371ae2175ee4913f4499e1f2633a7b5936321eed1cdaeb6115181d29060200160405180910390a15b5050505050505050565b611ad3613860565b604080518082019091525f80825260208201525f80611b0833604089013560608a0135611b0360208c018c613e73565b612937565b915091505f80611b188984612224565b9092509050611b44611b2d60208b018b613e73565b8383611b3e368d90038d018d614431565b8b612ac2565b60408051808201909152858152602080820186905282519298509096503391907f85496b760a4b7f8d66384b9df21b381f5d1b1e79f229a47aaf4c232edc2fe59a90611b92908d018d613e73565b6040805163ffffffff909216825260208201899052810187905260600160405180910390a350505050935093915050565b611bcb6121bf565b60405163ca5eb5e160e01b81526001600160a01b0382811660048301527f0000000000000000000000000000000000000000000000000000000000000000169063ca5eb5e1906024015f604051808303815f87803b158015611c2b575f80fd5b505af1158015611c3d573d5f803e3d5ffd5b5050505050565b5f80516020614887833981519152545f905f8051602061482783398151915290600160d01b900465ffffffffffff168015801590611c8957504265ffffffffffff8216105b611ca3578154600160d01b900465ffffffffffff16611cb8565b6001820154600160a01b900465ffffffffffff165b9250505090565b5f611cc8611cfe565b509050336001600160a01b03821614611cf657604051636116401160e11b8152336004820152602401610dbe565b610c75612bc8565b5f80516020614827833981519152546001600160a01b03811691600160a01b90910465ffffffffffff1690565b333014611d4b5760405163029a949d60e31b815260040160405180910390fd5b610e2e87878787878787610e1f565b611d626121bf565b7fefb041d771d6daaa55702fff6eb740d63ba559a75d2d1d3e151c78ff2480b60080546001600160a01b0319166001600160a01b03831690811782556040519081527fd48d879cef83a1c0bdda516f27b13ddb1b3f8bbac1c9e1511bb2a659c2427760906020016112f0565b81611dec57604051631fe1e13d60e11b815260040160405180910390fd5b610e9e8282612be0565b5f611e0081611f24565b610c75612bfc565b5f7f0000000000000000000000000000000000000000000000000000000000000000611e5357507f000000000000000000000000000000000000000000000000000000000000000090565b7f00000000000000000000000000000000000000000000000000000000000000006001600160a01b031663b25dd5726040518163ffffffff1660e01b8152600401602060405180830381865afa158015611eaf573d5f803e3d5ffd5b505050506040513d601f19601f820116820180604052508101906113da9190614461565b5f60208201803590611ee990610a199085613e73565b1492915050565b5f6001600160e01b03198216637965db0b60e01b1480610c5d57506301ffc9a760e01b6001600160e01b0319831614610c5d565b610c758133612c06565b611f385f80612c3f565b565b5f80611f4585612d17565b915081905083811015611f75576040516371c4efed60e01b81526004810182905260248101859052604401610dbe565b935093915050565b63ffffffff81165f9081525f805160206147e78339815191526020819052604082205480611fc65760405163f6ff4fb760e01b815263ffffffff85166004820152602401610dbe565b9392505050565b5f611fde611fdb8787612d4d565b90565b90505f61200982611ff7611ff28a8a612d64565b612d86565b61200460208d018d613e73565b612dba565b905060288611156120c9575f61204561202860608c0160408d0161447c565b61203560208d018d613e73565b846120408c8c612e5c565b612ea6565b604051633e5ac80960e11b81529091506001600160a01b037f00000000000000000000000000000000000000000000000000000000000000001690637cb590129061209a9086908d905f908790600401614497565b5f604051808303815f87803b1580156120b1575f80fd5b505af11580156120c3573d5f803e3d5ffd5b50505050505b6001600160a01b038216887fefed6d3500546b29533b128a29e3a94d70788727f0507505ac12eaf2e578fd9c61210260208d018d613e73565b6040805163ffffffff9092168252602082018690520160405180910390a3505050505050505050565b612133612ed8565b7fcfbc5ec03206ba5826cf1103520b82c735e9bad14c6d8ed92dff9144ead3f400805460ff191681557f9ed48c125995b41003073267e8c8c29d453de042a0d58f41999add01bcf16fc6335b6040516001600160a01b03909116815260200160405180910390a150565b6121a682610e56565b6121af81611f24565b6121b98383612889565b50505050565b336121c86113d1565b6001600160a01b031614611f385760405163118cdaa760e01b8152336004820152602401610dbe565b6001600160a01b038116331461221a5760405163334bd91960e11b815260040160405180910390fd5b610fca8282612efd565b6060805f61227f856020013561223986612f54565b61224660a089018961405c565b8080601f0160208091040260200160405190810160405280939291908181526020018383808284375f92019190915250612f7f92505050565b90935090505f81612291576001612294565b60025b90506122b46122a66020880188613e73565b82610a5660808a018a61405c565b7f41db8a78b0206aba5c54bcbfc2bda0d84082a84eb88e680379a57b9e9f653c008054919450906001600160a01b031680156123595760405163043a78eb60e01b81526001600160a01b0382169063043a78eb9061231890899089906004016144c7565b602060405180830381865afa158015612333573d5f803e3d5ffd5b505050506040513d601f19601f8201168201806040525081019061235791906144eb565b505b505050509250929050565b604080518082019091525f80825260208201527f00000000000000000000000000000000000000000000000000000000000000006001600160a01b031663ddc28c586040518060a001604052808863ffffffff1681526020016123c689611f7d565b8152602001878152602001868152602001851515815250306040518363ffffffff1660e01b81526004016123fb929190614506565b6040805180830381865afa158015612415573d5f803e3d5ffd5b505050506040513d601f19601f8201168201806040525081019061243991906145ac565b95945050505050565b61244a612ff9565b7fcd5ed15c6e187e77e9aee88184c21f4f2182ab5827cb3b7e07fbedcd63f03300805460ff191681557f5db9ee0a495bf2e6ff9c91a7834c1ba4fdd244a5e8aa4e537bd38aeae4b073aa3361217f565b306001600160a01b037f000000000000000000000000000000000000000000000000000000000000000016148061252057507f00000000000000000000000000000000000000000000000000000000000000006001600160a01b03166125145f80516020614807833981519152546001600160a01b031690565b6001600160a01b031614155b15611f385760405163703e46dd60e11b815260040160405180910390fd5b7f189ab7a9244df0848122154315af71fe140f3db0fe014031783b0946b8c9d2e3610e9e81611f24565b816001600160a01b03166352d1902d6040518163ffffffff1660e01b8152600401602060405180830381865afa9250505080156125c2575060408051601f3d908101601f191682019092526125bf918101906145c6565b60015b6125ea57604051634c9c8ce360e01b81526001600160a01b0383166004820152602401610dbe565b5f80516020614807833981519152811461261a57604051632a87526960e21b815260048101829052602401610dbe565b610fca838361301e565b306001600160a01b037f00000000000000000000000000000000000000000000000000000000000000001614611f385760405163703e46dd60e11b815260040160405180910390fd5b5f807ff0c57e16840df040f15088dc2f81fe391c3923bec73e23a9662efc9c229c6a00610c5d565b5f61269e611c44565b6126a742613073565b6126b191906145f1565b90506126bd82826130a9565b60405165ffffffffffff821681526001600160a01b038316907f3377dc44241e779dd06afab5b788a35ca5f3b778836e2990bdb26a2a4b2e5ed69060200160405180910390a25050565b5f61271182613133565b61271a42613073565b61272491906145f1565b90506127308282612c3f565b6040805165ffffffffffff8085168252831660208201527ff1038c18cf84a56e432fdbfaf746924b7ea511dfe03a6506a0ceba4888788d9b91016112f0565b61277761317a565b7fcd5ed15c6e187e77e9aee88184c21f4f2182ab5827cb3b7e07fbedcd63f03300805460ff191660011781557f62e78cea01bee320cd4e420270b5ea74000d11b0c9f74754ebdbfc544b05a2583361217f565b6127d26131a0565b7fcfbc5ec03206ba5826cf1103520b82c735e9bad14c6d8ed92dff9144ead3f400805460ff191660011781557f4a46a72476e6fa7533f222e0ecb9f666286647790a3d128b4fe6b20fb82dde193361217f565b5f6113da611397565b5f61283c60028284866142bb565b61284591614610565b60f01c905060038114610fca578282604051639a6d49cd60e01b8152600401610dbe929190614308565b611f386131c6565b61287f6131c6565b610e9e82826131eb565b5f5f80516020614827833981519152836128eb575f6128a6611397565b6001600160a01b0316146128cd57604051631fe1e13d60e11b815260040160405180910390fd5b6001810180546001600160a01b0319166001600160a01b0385161790555b6113708484613251565b6128fd6131c6565b610c75816132f9565b61290e6131c6565b61291781613333565b61291f61286f565b610c7561286f565b61292f6131c6565b611f3861286f565b5f8061294161317a565b6129496131a0565b612954858585611f3a565b90925090507f000000000000000000000000000000000000000000000000000000000000000015612a3b57612a36867f0000000000000000000000000000000000000000000000000000000000000000847f00000000000000000000000000000000000000000000000000000000000000006001600160a01b031663b25dd5726040518163ffffffff1660e01b8152600401602060405180830381865afa158015612a01573d5f803e3d5ffd5b505050506040513d601f19601f82011682018060405250810190612a259190614461565b6001600160a01b0316929190613344565b612ab9565b604051632b8c49e360e01b81526001600160a01b038781166004830152602482018490527f00000000000000000000000000000000000000000000000000000000000000001690632b8c49e3906044015f604051808303815f87803b158015612aa2575f80fd5b505af1158015612ab4573d5f803e3d5ffd5b505050505b94509492505050565b612aca613860565b5f612ad7845f015161339e565b602085015190915015612af157612af184602001516133c1565b7f00000000000000000000000000000000000000000000000000000000000000006001600160a01b0316632637a450826040518060a001604052808b63ffffffff168152602001612b418c611f7d565b81526020018a81526020018981526020015f8960200151111515815250866040518463ffffffff1660e01b8152600401612b7c929190614506565b60806040518083038185885af1158015612b98573d5f803e3d5ffd5b50505050506040513d601f19601f82011682018060405250810190612bbd9190614640565b979650505050505050565b612bd06134a0565b611f38612bdb611397565b613539565b612be982610e56565b612bf281611f24565b6121b98383612efd565b611f385f806130a9565b612c1082826113df565b610e9e5760405163e2517d3f60e01b81526001600160a01b038216600482015260248101839052604401610dbe565b5f80516020614887833981519152545f8051602061482783398151915290600160d01b900465ffffffffffff168015612cd9574265ffffffffffff82161015612cb057600182015482546001600160d01b0316600160a01b90910465ffffffffffff16600160d01b02178255612cd9565b6040517f2b1fa2edafe6f7b9e97c1a9e0c3660e645beb2dcaa2d45bdbf9beaf5472e1ec5905f90a15b5060010180546001600160a01b0316600160a01b65ffffffffffff948516026001600160d01b031617600160d01b9290931691909102919091179055565b5f7f0000000000000000000000000000000000000000000000000000000000000000612d4381846146a5565b610c5d91906146c4565b5f612d5b60208284866142bb565b611fc6916146db565b5f612d736028602084866142bb565b612d7c916146f8565b60c01c9392505050565b5f610c5d7f00000000000000000000000000000000000000000000000000000000000000006001600160401b0384166146c4565b5f612dc361317a565b6001600160a01b038416612dd75761dead93505b6040516318bf507760e01b81526001600160a01b038581166004830152602482018590527f000000000000000000000000000000000000000000000000000000000000000016906318bf5077906044015f604051808303815f87803b158015612e3e575f80fd5b505af1158015612e50573d5f803e3d5ffd5b50949695505050505050565b6060612e6b82602881866142bb565b8080601f0160208091040260200160405190810160405280939291908181526020018383808284375f92019190915250929695505050505050565b606084848484604051602001612ebf9493929190614726565b6040516020818303038152906040529050949350505050565b612ee0611484565b611f38576040516387c6bdf960e01b815260040160405180910390fd5b5f5f8051602061482783398151915283158015612f325750612f1d611397565b6001600160a01b0316836001600160a01b0316145b15612f4a576001810180546001600160a01b03191690555b61137084846135a9565b5f610c5d7f0000000000000000000000000000000000000000000000000000000000000000836146a5565b8051606090151580612fc8578484604051602001612fb492919091825260c01b6001600160c01b031916602082015260280190565b604051602081830303815290604052612fef565b84843385604051602001612fdf9493929190614774565b6040516020818303038152906040525b9150935093915050565b61300161122c565b611f3857604051638dfc202b60e01b815260040160405180910390fd5b61302782613622565b6040516001600160a01b038316907fbc7cd75a20ee27fd9adebab32041f755214dbc6bffa90cc0225b39da2e5c2d3b905f90a280511561306b57610fca8282613685565b610e9e6136ee565b5f65ffffffffffff8211156130a5576040516306dfcc6560e41b81526030600482015260248101839052604401610dbe565b5090565b5f805160206148278339815191525f6130c0611cfe565b835465ffffffffffff8616600160a01b026001600160d01b03199091166001600160a01b03881617178455915061310090508165ffffffffffff16151590565b156121b9576040517f8886ebfc4259abdbc16601dd8fb5678e54878f47b3c34836cfc51154a9605109905f90a150505050565b5f8061313d611c44565b90508065ffffffffffff168365ffffffffffff16116131655761316083826147b6565b611fc6565b611fc665ffffffffffff84166206978061370d565b61318261122c565b15611f385760405163d93c066560e01b815260040160405180910390fd5b6131a8611484565b15611f3857604051638eb1387b60e01b815260040160405180910390fd5b6131ce61371c565b611f3857604051631afcd79f60e31b815260040160405180910390fd5b6131f36131c6565b5f805160206148278339815191526001600160a01b03821661322a57604051636116401160e11b81525f6004820152602401610dbe565b80546001600160d01b0316600160d01b65ffffffffffff8516021781556121b95f83612889565b5f5f8051602061486783398151915261326a84846113df565b6132e9575f848152602082815260408083206001600160a01b03871684529091529020805460ff1916600117905561329f3390565b6001600160a01b0316836001600160a01b0316857f2f8788117e7eff1d82e926ec794901d17c78024a50270940304540a733656f0d60405160405180910390a46001915050610c5d565b5f915050610c5d565b5092915050565b6133016131c6565b6001600160a01b03811661332a57604051631e4fbdf760e01b81525f6004820152602401610dbe565b610c7581613539565b61333b6131c6565b61291781613735565b604080516001600160a01b0385811660248301528416604482015260648082018490528251808303909101815260849091019091526020810180516001600160e01b03166323b872dd60e01b1790526121b9908590613746565b5f8134146130a5576040516304fb820960e51b8152346004820152602401610dbe565b5f7f00000000000000000000000000000000000000000000000000000000000000006001600160a01b031663e4fe1d946040518163ffffffff1660e01b8152600401602060405180830381865afa15801561341e573d5f803e3d5ffd5b505050506040513d601f19601f820116820180604052508101906134429190614461565b90506001600160a01b03811661346b576040516329b99a9560e11b815260040160405180910390fd5b610e9e6001600160a01b038216337f000000000000000000000000000000000000000000000000000000000000000085613344565b5f805160206148278339815191525f806134b8611cfe565b915091506134cd8165ffffffffffff16151590565b15806134e157504265ffffffffffff821610155b15613509576040516319ca5ebb60e01b815265ffffffffffff82166004820152602401610dbe565b61351a5f613515611397565b612efd565b506135255f83612889565b505081546001600160d01b03191690915550565b7f9016d09d72d40fdae2fd8ceac6b6234c7706214fd39c1cd1e609a0528c19930080546001600160a01b031981166001600160a01b03848116918217845560405192169182907f8be0079c531659141344cd1fd0a4f28419497f9722a3daafe3b4186f6b6457e0905f90a3505050565b5f5f805160206148678339815191526135c284846113df565b156132e9575f848152602082815260408083206001600160a01b0387168085529252808320805460ff1916905551339287917ff6391f5c32d9c69d2a47ea670b442974b53935d1edc7fd64eb21e047a839171b9190a46001915050610c5d565b806001600160a01b03163b5f0361365757604051634c9c8ce360e01b81526001600160a01b0382166004820152602401610dbe565b5f8051602061480783398151915280546001600160a01b0319166001600160a01b0392909216919091179055565b60605f80846001600160a01b0316846040516136a191906147d5565b5f60405180830381855af49150503d805f81146136d9576040519150601f19603f3d011682016040523d82523d5f602084013e6136de565b606091505b50915091506124398583836137b2565b3415611f385760405163b398979f60e01b815260040160405180910390fd5b5f828218828410028218611fc6565b5f61372561266d565b54600160401b900460ff16919050565b61373d6131c6565b610c7581613809565b5f8060205f8451602086015f885af180613765576040513d5f823e3d81fd5b50505f513d9150811561377c578060011415613789565b6001600160a01b0384163b155b156121b957604051635274afe760e01b81526001600160a01b0385166004820152602401610dbe565b6060826137c25761316082613838565b81511580156137d957506001600160a01b0384163b155b1561380257604051639996b31560e01b81526001600160a01b0385166004820152602401610dbe565b5080611fc6565b6138116131c6565b6001600160a01b038116611bcb57604051632d618d8160e21b815260040160405180910390fd5b80511561384757805160208201fd5b60405163d6bda27560e01b815260040160405180910390fd5b60405180606001604052805f80191681526020015f6001600160401b0316815260200161389e60405180604001604052805f81526020015f81525090565b905290565b5f602082840312156138b3575f80fd5b81356001600160e01b031981168114611fc6575f80fd5b5f60e082840312156138da575f80fd5b50919050565b5f602082840312156138f0575f80fd5b81356001600160401b03811115613905575f80fd5b611370848285016138ca565b5f5b8381101561392b578181015183820152602001613913565b50505f910152565b5f815180845261394a816020860160208601613911565b601f01601f19169290920160200192915050565b83518152602080850151908201525f60a08201604060a0604085015281865180845260c08601915060c08160051b870101935060208089015f5b838110156139d75788870360bf190185528151805188528301518388018790526139c487890182613933565b9750509382019390820190600101613998565b50508751606088015250505060208501516080850152509050611370565b5f606082840312156138da575f80fd5b5f8083601f840112613a15575f80fd5b5081356001600160401b03811115613a2b575f80fd5b602083019150836020828501011115613a42575f80fd5b9250929050565b6001600160a01b0381168114610c75575f80fd5b5f805f805f805f60e0888a031215613a73575f80fd5b613a7d89896139f5565b96506060880135955060808801356001600160401b0380821115613a9f575f80fd5b613aab8b838c01613a05565b909750955060a08a01359150613ac082613a49565b90935060c08901359080821115613ad5575f80fd5b50613ae28a828b01613a05565b989b979a50959850939692959293505050565b5f60208284031215613b05575f80fd5b5035919050565b5f8060408385031215613b1d575f80fd5b823591506020830135613b2f81613a49565b809150509250929050565b803563ffffffff81168114613b4d575f80fd5b919050565b5f8060408385031215613b63575f80fd5b613b6c83613b3a565b946020939093013593505050565b8015158114610c75575f80fd5b5f8060408385031215613b98575f80fd5b82356001600160401b03811115613bad575f80fd5b613bb9858286016138ca565b9250506020830135613b2f81613b7a565b815181526020808301519082015260408101610c5d565b634e487b7160e01b5f52604160045260245ffd5b604080519081016001600160401b0381118282101715613c1757613c17613be1565b60405290565b604051601f8201601f191681016001600160401b0381118282101715613c4557613c45613be1565b604052919050565b5f6001600160401b03821115613c6557613c65613be1565b50601f01601f191660200190565b5f8060408385031215613c84575f80fd5b8235613c8f81613a49565b915060208301356001600160401b03811115613ca9575f80fd5b8301601f81018513613cb9575f80fd5b8035613ccc613cc782613c4d565b613c1d565b818152866020838501011115613ce0575f80fd5b816020840160208301375f602083830101528093505050509250929050565b803561ffff81168114613b4d575f80fd5b5f8060408385031215613d21575f80fd5b613d2a83613b3a565b9150613d3860208401613cff565b90509250929050565b602081525f611fc66020830184613933565b5f60208284031215613d63575f80fd5b8135611fc681613a49565b5f60208284031215613d7e575f80fd5b813565ffffffffffff81168114611fc6575f80fd5b5f805f8060a08587031215613da6575f80fd5b613db086866139f5565b935060608501356001600160401b03811115613dca575f80fd5b613dd687828801613a05565b9094509250506080850135613dea81613a49565b939692955090935050565b5f8083601f840112613e05575f80fd5b5081356001600160401b03811115613e1b575f80fd5b6020830191508360208260051b8501011115613a42575f80fd5b5f8060208385031215613e46575f80fd5b82356001600160401b03811115613e5b575f80fd5b613e6785828601613df5565b90969095509350505050565b5f60208284031215613e83575f80fd5b611fc682613b3a565b5f805f8060608587031215613e9f575f80fd5b613ea885613b3a565b9350613eb660208601613cff565b925060408501356001600160401b03811115613ed0575f80fd5b613edc87828801613a05565b95989497509550505050565b5f805f60608486031215613efa575f80fd5b8335613f0581613a49565b92506020840135613f1581613a49565b91506040840135613f2581613a49565b809150509250925092565b5f805f8385036080811215613f43575f80fd5b84356001600160401b03811115613f58575f80fd5b613f64878288016138ca565b9450506040601f1982011215613f78575f80fd5b506020840191506060840135613f2581613a49565b5f60c082019050835182526001600160401b0360208501511660208301526040840151613fc7604084018280518252602090810151910152565b5082516080830152602083015160a0830152611fc6565b5f60608284031215613fee575f80fd5b611fc683836139f5565b600181811c9082168061400c57607f821691505b6020821081036138da57634e487b7160e01b5f52602260045260245ffd5b634e487b7160e01b5f52603260045260245ffd5b5f8235605e19833603018112614052575f80fd5b9190910192915050565b5f808335601e19843603018112614071575f80fd5b8301803591506001600160401b0382111561408a575f80fd5b602001915036819003821315613a42575f80fd5b5f602082840312156140ae575f80fd5b611fc682613cff565b601f821115610fca57805f5260205f20601f840160051c810160208510156140dc5750805b601f840160051c820191505b81811015611c3d575f81556001016140e8565b6001600160401b0383111561411257614112613be1565b614126836141208354613ff8565b836140b7565b5f601f841160018114614157575f85156141405750838201355b5f19600387901b1c1916600186901b178355611c3d565b5f83815260208120601f198716915b828110156141865786850135825560209485019460019092019101614166565b50868210156141a2575f1960f88860031b161c19848701351681555b505060018560011b0183555050505050565b81835281816020850137505f828201602090810191909152601f909101601f19169091010190565b60208082528181018390525f906040808401600586901b8501820187855b888110156142ad57878303603f190184528135368b9003605e1901811261421f575f80fd5b8a01606063ffffffff61423183613b3a565b16855261ffff614242898401613cff565b168886015286820135601e1983360301811261425c575f80fd5b9091018781019190356001600160401b03811115614278575f80fd5b803603831315614286575f80fd5b818887015261429882870182856141b4565b968901969550505091860191506001016141fa565b509098975050505050505050565b5f80858511156142c9575f80fd5b838611156142d5575f80fd5b5050820193919092039150565b5f84516142f3818460208901613911565b8201838582375f930192835250909392505050565b602081525f6113706020830184866141b4565b5f823561013e19833603018112614052575f80fd5b6001600160401b0381168114610c75575f80fd5b63ffffffff61435289613b3a565b168152602088013560208201525f604089013561436e81614330565b6001600160401b03811660408401525087606083015260e0608083015261439960e0830187896141b4565b6001600160a01b03861660a084015282810360c08401526143bb8185876141b4565b9a9950505050505050505050565b5f602082840312156143d9575f80fd5b81516001600160401b038111156143ee575f80fd5b8201601f810184136143fe575f80fd5b805161440c613cc782613c4d565b818152856020838501011115614420575f80fd5b612439826020830160208601613911565b5f60408284031215614441575f80fd5b614449613bf5565b82358152602083013560208201528091505092915050565b5f60208284031215614471575f80fd5b8151611fc681613a49565b5f6020828403121561448c575f80fd5b8135611fc681614330565b60018060a01b038516815283602082015261ffff83166040820152608060608201525f6110296080830184613933565b604081525f6144d96040830185613933565b82810360208401526124398185613933565b5f602082840312156144fb575f80fd5b8151611fc681613b7a565b6040815263ffffffff8351166040820152602083015160608201525f604084015160a0608084015261453b60e0840182613933565b90506060850151603f198483030160a08501526145588282613933565b60809690960151151560c08501525050506001600160a01b039190911660209091015290565b5f6040828403121561458e575f80fd5b614596613bf5565b9050815181526020820151602082015292915050565b5f604082840312156145bc575f80fd5b611fc6838361457e565b5f602082840312156145d6575f80fd5b5051919050565b634e487b7160e01b5f52601160045260245ffd5b65ffffffffffff8181168382160190808211156132f2576132f26145dd565b6001600160f01b031981358181169160028510156146385780818660020360031b1b83161692505b505092915050565b5f60808284031215614650575f80fd5b604051606081018181106001600160401b038211171561467257614672613be1565b60405282518152602083015161468781614330565b6020820152614699846040850161457e565b60408201529392505050565b5f826146bf57634e487b7160e01b5f52601260045260245ffd5b500490565b8082028115828204841417610c5d57610c5d6145dd565b80356020831015610c5d575f19602084900360031b1b1692915050565b6001600160c01b031981358181169160088510156146385760089490940360031b84901b1690921692915050565b6001600160401b0360c01b8560c01b16815263ffffffff60e01b8460e01b16600882015282600c8201525f825161476481602c850160208701613911565b91909101602c0195945050505050565b8481526001600160401b0360c01b8460c01b1660208201528260288201525f82516147a6816048850160208701613911565b9190910160480195945050505050565b65ffffffffffff8281168282160390808211156132f2576132f26145dd565b5f825161405281846020870161391156fe72ab1bc1039b79dc4724ffca13de82c96834302d3c7e0d4252232d4b2dd8f900360894a13ba1a3210667c828492db98dca3e2076cc3735a920a3ca505d382bbceef3dac4538c82c8ace4063ab0acd2d15cdb5883aa1dff7c2673abb3d869840065d7a28e3265b37a6474929f336521b332c1681b933f6cb9f3376673440d862a02dd7bc7dec4dceedda775e58dd541e08a116c6c53815c0bd028192f7b626800eef3dac4538c82c8ace4063ab0acd2d15cdb5883aa1dff7c2673abb3d8698401a26469706673582212200468186ede030783e3a00ee44750a8d90bacf93de55540e396eec32385e4ee3064736f6c63430008170033","linkReferences":{}},"methodIdentifiers":{"BRIDGEABLE_TOKEN()":"903df521","DEFAULT_ADMIN_ROLE()":"a217fddf","PAUSER_ROLE()":"e63ab1e9","SEND()":"1f5e1334","SEND_AND_CALL()":"134d4f25","UPGRADER_ROLE()":"f72c0d8b","UPGRADE_INTERFACE_VERSION()":"ad3cb1cc","acceptDefaultAdminTransfer()":"cefc1429","allowInitializePath((uint32,bytes32,uint64))":"ff7bd03d","approvalRequired()":"9f68b964","beginDefaultAdminTransfer(address)":"634e93da","cancelDefaultAdminTransfer()":"d602b9fd","changeDefaultAdminDelay(uint48)":"649a5ec7","combineOptions(uint32,uint16,bytes)":"bc70b354","decimalConversionRate()":"963efcaa","defaultAdmin()":"84ef8ffc","defaultAdminDelay()":"cc8463c8","defaultAdminDelayIncreaseWait()":"022d63fb","endpoint()":"5e280f11","enforcedOptions(uint32,uint16)":"5535d461","getRoleAdmin(bytes32)":"248a9ca3","grantRole(bytes32,address)":"2f2ff15d","hasRole(bytes32,address)":"91d14854","initialize(address,address,address)":"c0c53b8b","initializeV2(uint256)":"5b4e128c","isComposeMsgSender((uint32,bytes32,uint64),bytes,address)":"82413eac","isPeer(uint32,bytes32)":"5a0dfe4d","lzReceive((uint32,bytes32,uint64),bytes32,bytes,address,bytes)":"13137d65","lzReceiveAndRevert(((uint32,bytes32,uint64),uint32,address,bytes32,uint256,address,bytes,bytes)[])":"bd815db0","lzReceiveSimulate((uint32,bytes32,uint64),bytes32,bytes,address,bytes)":"d045a0dc","msgInspector()":"111ecdad","newStateVariable()":"36916c77","nextNonce(uint32,bytes32)":"7d25a05e","oApp()":"52ae2879","oAppVersion()":"17442b70","oftVersion()":"156a0d0f","outboundTransfersPaused()":"a8d2dab7","owner()":"8da5cb5b","pause()":"8456cb59","pauseOutboundTransfers()":"86843aa1","pauseStatus()":"466916ca","paused()":"5c975abb","peers(uint32)":"bb0b6a53","pendingDefaultAdmin()":"cf6eefb7","pendingDefaultAdminDelay()":"a1eda53c","preCrime()":"b731ea0a","proxiableUUID()":"52d1902d","quoteOFT((uint32,bytes32,uint256,uint256,bytes,bytes,bytes))":"0d35b415","quoteSend((uint32,bytes32,uint256,uint256,bytes,bytes,bytes),bool)":"3b6f743b","renounceOwnership()":"715018a6","renounceRole(bytes32,address)":"36568abe","revokeRole(bytes32,address)":"d547741f","rollbackDefaultAdminDelay()":"0aa6220b","send((uint32,bytes32,uint256,uint256,bytes,bytes,bytes),(uint256,uint256),address)":"c7c7f5b3","setDelegate(address)":"ca5eb5e1","setEnforcedOptions((uint32,uint16,bytes)[])":"b98bd070","setMsgInspector(address)":"6fc1b31e","setPeer(uint32,bytes32)":"3400288b","setPreCrime(address)":"d4243885","sharedDecimals()":"857749b0","supportsInterface(bytes4)":"01ffc9a7","token()":"fc0c546a","transferOwnership(address)":"f2fde38b","unpause()":"3f4ba83a","unpauseOutboundTransfers()":"1657c3b8","upgradeToAndCall(address,bytes)":"4f1ef286"},"storageLayout":{"storage":[{"astId":88359,"contract":"src/mocks/IexecLayerZeroBridgeV2Mock.sol:IexecLayerZeroBridgeV2","label":"newStateVariable","offset":0,"slot":"0","type":"t_uint256"}],"types":{"t_uint256":{"encoding":"inplace","label":"uint256","numberOfBytes":"32"}}},"id":195}