{"abi":[{"type":"constructor","inputs":[{"name":"_token","type":"address","internalType":"address"}],"stateMutability":"nonpayable"},{"type":"function","name":"DEFAULT_ADMIN_ROLE","inputs":[],"outputs":[{"name":"","type":"bytes32","internalType":"bytes32"}],"stateMutability":"view"},{"type":"function","name":"RLC_TOKEN","inputs":[],"outputs":[{"name":"","type":"address","internalType":"contract IERC20Metadata"}],"stateMutability":"view"},{"type":"function","name":"TOKEN_BRIDGE_ROLE","inputs":[],"outputs":[{"name":"","type":"bytes32","internalType":"bytes32"}],"stateMutability":"view"},{"type":"function","name":"UPGRADER_ROLE","inputs":[],"outputs":[{"name":"","type":"bytes32","internalType":"bytes32"}],"stateMutability":"view"},{"type":"function","name":"UPGRADE_INTERFACE_VERSION","inputs":[],"outputs":[{"name":"","type":"string","internalType":"string"}],"stateMutability":"view"},{"type":"function","name":"acceptDefaultAdminTransfer","inputs":[],"outputs":[],"stateMutability":"nonpayable"},{"type":"function","name":"beginDefaultAdminTransfer","inputs":[{"name":"newAdmin","type":"address","internalType":"address"}],"outputs":[],"stateMutability":"nonpayable"},{"type":"function","name":"cancelDefaultAdminTransfer","inputs":[],"outputs":[],"stateMutability":"nonpayable"},{"type":"function","name":"changeDefaultAdminDelay","inputs":[{"name":"newDelay","type":"uint48","internalType":"uint48"}],"outputs":[],"stateMutability":"nonpayable"},{"type":"function","name":"crosschainBurn","inputs":[{"name":"from","type":"address","internalType":"address"},{"name":"value","type":"uint256","internalType":"uint256"}],"outputs":[],"stateMutability":"nonpayable"},{"type":"function","name":"crosschainMint","inputs":[{"name":"to","type":"address","internalType":"address"},{"name":"value","type":"uint256","internalType":"uint256"}],"outputs":[],"stateMutability":"nonpayable"},{"type":"function","name":"decimals","inputs":[],"outputs":[{"name":"","type":"uint8","internalType":"uint8"}],"stateMutability":"pure"},{"type":"function","name":"defaultAdmin","inputs":[],"outputs":[{"name":"","type":"address","internalType":"address"}],"stateMutability":"view"},{"type":"function","name":"defaultAdminDelay","inputs":[],"outputs":[{"name":"","type":"uint48","internalType":"uint48"}],"stateMutability":"view"},{"type":"function","name":"defaultAdminDelayIncreaseWait","inputs":[],"outputs":[{"name":"","type":"uint48","internalType":"uint48"}],"stateMutability":"view"},{"type":"function","name":"getRoleAdmin","inputs":[{"name":"role","type":"bytes32","internalType":"bytes32"}],"outputs":[{"name":"","type":"bytes32","internalType":"bytes32"}],"stateMutability":"view"},{"type":"function","name":"grantRole","inputs":[{"name":"role","type":"bytes32","internalType":"bytes32"},{"name":"account","type":"address","internalType":"address"}],"outputs":[],"stateMutability":"nonpayable"},{"type":"function","name":"hasRole","inputs":[{"name":"role","type":"bytes32","internalType":"bytes32"},{"name":"account","type":"address","internalType":"address"}],"outputs":[{"name":"","type":"bool","internalType":"bool"}],"stateMutability":"view"},{"type":"function","name":"initialize","inputs":[{"name":"initialAdmin","type":"address","internalType":"address"},{"name":"initialUpgrader","type":"address","internalType":"address"}],"outputs":[],"stateMutability":"nonpayable"},{"type":"function","name":"initializeV2","inputs":[{"name":"_newStateVariable","type":"uint256","internalType":"uint256"}],"outputs":[],"stateMutability":"nonpayable"},{"type":"function","name":"newStateVariable","inputs":[],"outputs":[{"name":"","type":"uint256","internalType":"uint256"}],"stateMutability":"view"},{"type":"function","name":"owner","inputs":[],"outputs":[{"name":"","type":"address","internalType":"address"}],"stateMutability":"view"},{"type":"function","name":"pendingDefaultAdmin","inputs":[],"outputs":[{"name":"newAdmin","type":"address","internalType":"address"},{"name":"schedule","type":"uint48","internalType":"uint48"}],"stateMutability":"view"},{"type":"function","name":"pendingDefaultAdminDelay","inputs":[],"outputs":[{"name":"newDelay","type":"uint48","internalType":"uint48"},{"name":"schedule","type":"uint48","internalType":"uint48"}],"stateMutability":"view"},{"type":"function","name":"proxiableUUID","inputs":[],"outputs":[{"name":"","type":"bytes32","internalType":"bytes32"}],"stateMutability":"view"},{"type":"function","name":"renounceRole","inputs":[{"name":"role","type":"bytes32","internalType":"bytes32"},{"name":"account","type":"address","internalType":"address"}],"outputs":[],"stateMutability":"nonpayable"},{"type":"function","name":"revokeRole","inputs":[{"name":"role","type":"bytes32","internalType":"bytes32"},{"name":"account","type":"address","internalType":"address"}],"outputs":[],"stateMutability":"nonpayable"},{"type":"function","name":"rollbackDefaultAdminDelay","inputs":[],"outputs":[],"stateMutability":"nonpayable"},{"type":"function","name":"supportsInterface","inputs":[{"name":"interfaceId","type":"bytes4","internalType":"bytes4"}],"outputs":[{"name":"","type":"bool","internalType":"bool"}],"stateMutability":"view"},{"type":"function","name":"upgradeToAndCall","inputs":[{"name":"newImplementation","type":"address","internalType":"address"},{"name":"data","type":"bytes","internalType":"bytes"}],"outputs":[],"stateMutability":"payable"},{"type":"event","name":"CrosschainBurn","inputs":[{"name":"from","type":"address","indexed":true,"internalType":"address"},{"name":"amount","type":"uint256","indexed":false,"internalType":"uint256"},{"name":"sender","type":"address","indexed":true,"internalType":"address"}],"anonymous":false},{"type":"event","name":"CrosschainMint","inputs":[{"name":"to","type":"address","indexed":true,"internalType":"address"},{"name":"amount","type":"uint256","indexed":false,"internalType":"uint256"},{"name":"sender","type":"address","indexed":true,"internalType":"address"}],"anonymous":false},{"type":"event","name":"DefaultAdminDelayChangeCanceled","inputs":[],"anonymous":false},{"type":"event","name":"DefaultAdminDelayChangeScheduled","inputs":[{"name":"newDelay","type":"uint48","indexed":false,"internalType":"uint48"},{"name":"effectSchedule","type":"uint48","indexed":false,"internalType":"uint48"}],"anonymous":false},{"type":"event","name":"DefaultAdminTransferCanceled","inputs":[],"anonymous":false},{"type":"event","name":"DefaultAdminTransferScheduled","inputs":[{"name":"newAdmin","type":"address","indexed":true,"internalType":"address"},{"name":"acceptSchedule","type":"uint48","indexed":false,"internalType":"uint48"}],"anonymous":false},{"type":"event","name":"Initialized","inputs":[{"name":"version","type":"uint64","indexed":false,"internalType":"uint64"}],"anonymous":false},{"type":"event","name":"RoleAdminChanged","inputs":[{"name":"role","type":"bytes32","indexed":true,"internalType":"bytes32"},{"name":"previousAdminRole","type":"bytes32","indexed":true,"internalType":"bytes32"},{"name":"newAdminRole","type":"bytes32","indexed":true,"internalType":"bytes32"}],"anonymous":false},{"type":"event","name":"RoleGranted","inputs":[{"name":"role","type":"bytes32","indexed":true,"internalType":"bytes32"},{"name":"account","type":"address","indexed":true,"internalType":"address"},{"name":"sender","type":"address","indexed":true,"internalType":"address"}],"anonymous":false},{"type":"event","name":"RoleRevoked","inputs":[{"name":"role","type":"bytes32","indexed":true,"internalType":"bytes32"},{"name":"account","type":"address","indexed":true,"internalType":"address"},{"name":"sender","type":"address","indexed":true,"internalType":"address"}],"anonymous":false},{"type":"event","name":"Upgraded","inputs":[{"name":"implementation","type":"address","indexed":true,"internalType":"address"}],"anonymous":false},{"type":"error","name":"AccessControlBadConfirmation","inputs":[]},{"type":"error","name":"AccessControlEnforcedDefaultAdminDelay","inputs":[{"name":"schedule","type":"uint48","internalType":"uint48"}]},{"type":"error","name":"AccessControlEnforcedDefaultAdminRules","inputs":[]},{"type":"error","name":"AccessControlInvalidDefaultAdmin","inputs":[{"name":"defaultAdmin","type":"address","internalType":"address"}]},{"type":"error","name":"AccessControlUnauthorizedAccount","inputs":[{"name":"account","type":"address","internalType":"address"},{"name":"neededRole","type":"bytes32","internalType":"bytes32"}]},{"type":"error","name":"AddressEmptyCode","inputs":[{"name":"target","type":"address","internalType":"address"}]},{"type":"error","name":"ERC1967InvalidImplementation","inputs":[{"name":"implementation","type":"address","internalType":"address"}]},{"type":"error","name":"ERC1967NonPayable","inputs":[]},{"type":"error","name":"ERC7802InvalidFromAddress","inputs":[{"name":"addr","type":"address","internalType":"address"}]},{"type":"error","name":"ERC7802InvalidToAddress","inputs":[{"name":"addr","type":"address","internalType":"address"}]},{"type":"error","name":"FailedCall","inputs":[]},{"type":"error","name":"InvalidInitialization","inputs":[]},{"type":"error","name":"NotInitializing","inputs":[]},{"type":"error","name":"SafeCastOverflowedUintDowncast","inputs":[{"name":"bits","type":"uint8","internalType":"uint8"},{"name":"value","type":"uint256","internalType":"uint256"}]},{"type":"error","name":"SafeERC20FailedOperation","inputs":[{"name":"token","type":"address","internalType":"address"}]},{"type":"error","name":"UUPSUnauthorizedCallContext","inputs":[]},{"type":"error","name":"UUPSUnsupportedProxiableUUID","inputs":[{"name":"slot","type":"bytes32","internalType":"bytes32"}]}],"bytecode":{"object":"0x60c06040523060805234801562000014575f80fd5b5060405162001dbf38038062001dbf833981016040819052620000379162000109565b806200004262000055565b6001600160a01b031660a0525062000138565b7ff0c57e16840df040f15088dc2f81fe391c3923bec73e23a9662efc9c229c6a00805468010000000000000000900460ff1615620000a65760405163f92ee8a960e01b815260040160405180910390fd5b80546001600160401b0390811614620001065780546001600160401b0319166001600160401b0390811782556040519081527fc7f505b2f371ae2175ee4913f4499e1f2633a7b5936321eed1cdaeb6115181d29060200160405180910390a15b50565b5f602082840312156200011a575f80fd5b81516001600160a01b038116811462000131575f80fd5b9392505050565b60805160a051611c49620001765f395f81816104dc0152818161066a015261075701525f8181610ec701528181610ef001526110510152611c495ff3fe6080604052600436106101c5575f3560e01c8063649a5ec7116100f2578063ad3cb1cc11610092578063cf6eefb711610062578063cf6eefb714610526578063d547741f14610560578063d602b9fd1461057f578063f72c0d8b14610593575f80fd5b8063ad3cb1cc1461048e578063b25dd572146104cb578063cc8463c8146104fe578063cefc142914610512575f80fd5b806391d14854116100cd57806391d14854146103f6578063a1eda53c14610415578063a217fddf14610448578063a94ea30c1461045b575f80fd5b8063649a5ec71461039757806384ef8ffc146103b65780638da5cb5b146103e2575f80fd5b8063313ce567116101685780634f1ef286116101385780634f1ef2861461033257806352d1902d146103455780635b4e128c14610359578063634e93da14610378575f80fd5b8063313ce567146102c557806336568abe146102e057806336916c77146102ff578063485cc95514610313575f80fd5b806318bf5077116101a357806318bf50771461023b578063248a9ca31461025a5780632b8c49e3146102875780632f2ff15d146102a6575f80fd5b806301ffc9a7146101c9578063022d63fb146101fd5780630aa6220b14610225575b5f80fd5b3480156101d4575f80fd5b506101e86101e33660046118da565b6105c6565b60405190151581526020015b60405180910390f35b348015610208575f80fd5b50620697805b60405165ffffffffffff90911681526020016101f4565b348015610230575f80fd5b506102396105f0565b005b348015610246575f80fd5b5061023961025536600461191c565b610605565b348015610265575f80fd5b50610279610274366004611944565b6106d7565b6040519081526020016101f4565b348015610292575f80fd5b506102396102a136600461191c565b6106f7565b3480156102b1575f80fd5b506102396102c036600461195b565b6107bc565b3480156102d0575f80fd5b50604051600981526020016101f4565b3480156102eb575f80fd5b506102396102fa36600461195b565b6107e8565b34801561030a575f80fd5b506102795f5481565b34801561031e575f80fd5b5061023961032d366004611985565b6108aa565b6102396103403660046119c1565b6109d8565b348015610350575f80fd5b506102796109f3565b348015610364575f80fd5b50610239610373366004611944565b610a0e565b348015610383575f80fd5b50610239610392366004611a7d565b610aca565b3480156103a2575f80fd5b506102396103b1366004611a96565b610add565b3480156103c1575f80fd5b506103ca610af0565b6040516001600160a01b0390911681526020016101f4565b3480156103ed575f80fd5b506103ca610b0b565b348015610401575f80fd5b506101e861041036600461195b565b610b19565b348015610420575f80fd5b50610429610b4f565b6040805165ffffffffffff9384168152929091166020830152016101f4565b348015610453575f80fd5b506102795f81565b348015610466575f80fd5b506102797fd7c4527c99f13bf6a80d3bc15ebce76f7f8256ab4fbf63363b10858db314c97881565b348015610499575f80fd5b506104be604051806040016040528060058152602001640352e302e360dc1b81525081565b6040516101f49190611add565b3480156104d6575f80fd5b506103ca7f000000000000000000000000000000000000000000000000000000000000000081565b348015610509575f80fd5b5061020e610bbe565b34801561051d575f80fd5b50610239610c39565b348015610531575f80fd5b5061053a610c78565b604080516001600160a01b03909316835265ffffffffffff9091166020830152016101f4565b34801561056b575f80fd5b5061023961057a36600461195b565b610ca5565b34801561058a575f80fd5b50610239610ccd565b34801561059e575f80fd5b506102797f189ab7a9244df0848122154315af71fe140f3db0fe014031783b0946b8c9d2e381565b5f6001600160e01b03198216630cccc66560e21b14806105ea57506105ea82610cdf565b92915050565b5f6105fa81610d03565b610602610d0d565b50565b7fd7c4527c99f13bf6a80d3bc15ebce76f7f8256ab4fbf63363b10858db314c97861062f81610d03565b6001600160a01b03831661065d5760405163a5e1125760e01b81525f60048201526024015b60405180910390fd5b6106916001600160a01b037f0000000000000000000000000000000000000000000000000000000000000000168484610d19565b60405182815233906001600160a01b038516907fde22baff038e3a3e08407cbdf617deed74e869a7ba517df611e33131c6e6ea04906020015b60405180910390a3505050565b5f9081525f80516020611bd4833981519152602052604090206001015490565b7fd7c4527c99f13bf6a80d3bc15ebce76f7f8256ab4fbf63363b10858db314c97861072181610d03565b6001600160a01b03831661074a57604051637d37178d60e01b81525f6004820152602401610654565b61077f6001600160a01b037f000000000000000000000000000000000000000000000000000000000000000016843085610d78565b60405182815233906001600160a01b038516907fb90795a66650155983e242cac3e1ac1a4dc26f8ed2987f3ce416a34e00111fd4906020016106ca565b816107da57604051631fe1e13d60e11b815260040160405180910390fd5b6107e48282610db7565b5050565b5f80516020611bb48339815191528215801561081c5750610807610af0565b6001600160a01b0316826001600160a01b0316145b1561089b575f8061082b610c78565b90925090506001600160a01b03821615158061084d575065ffffffffffff8116155b8061086057504265ffffffffffff821610155b15610888576040516319ca5ebb60e01b815265ffffffffffff82166004820152602401610654565b5050805465ffffffffffff60a01b191681555b6108a58383610dd3565b505050565b5f6108b3610e06565b805490915060ff600160401b820416159067ffffffffffffffff165f811580156108da5750825b90505f8267ffffffffffffffff1660011480156108f65750303b155b905081158015610904575080155b156109225760405163f92ee8a960e01b815260040160405180910390fd5b845467ffffffffffffffff19166001178555831561094c57845460ff60401b1916600160401b1785555b610954610e2e565b61095e5f88610e36565b6109887f189ab7a9244df0848122154315af71fe140f3db0fe014031783b0946b8c9d2e387610e48565b5083156109cf57845460ff60401b19168555604051600181527fc7f505b2f371ae2175ee4913f4499e1f2633a7b5936321eed1cdaeb6115181d29060200160405180910390a15b50505050505050565b6109e0610ebc565b6109e982610f60565b6107e48282610f8a565b5f6109fc611046565b505f80516020611b9483398151915290565b60025f610a19610e06565b8054909150600160401b900460ff1680610a415750805467ffffffffffffffff808416911610155b15610a5f5760405163f92ee8a960e01b815260040160405180910390fd5b805468ffffffffffffffffff191667ffffffffffffffff8316908117600160401b1782555f849055815460ff60401b191682556040519081527fc7f505b2f371ae2175ee4913f4499e1f2633a7b5936321eed1cdaeb6115181d29060200160405180910390a1505050565b5f610ad481610d03565b6107e48261108f565b5f610ae781610d03565b6107e482611101565b5f80516020611bf4833981519152546001600160a01b031690565b5f610b14610af0565b905090565b5f9182525f80516020611bd4833981519152602090815260408084206001600160a01b0393909316845291905290205460ff1690565b5f80516020611bf4833981519152545f90600160d01b900465ffffffffffff165f80516020611bb48339815191528115801590610b9457504265ffffffffffff831610155b610b9f575f80610bb5565b6001810154600160a01b900465ffffffffffff16825b92509250509091565b5f80516020611bf4833981519152545f905f80516020611bb483398151915290600160d01b900465ffffffffffff168015801590610c0357504265ffffffffffff8216105b610c1d578154600160d01b900465ffffffffffff16610c32565b6001820154600160a01b900465ffffffffffff165b9250505090565b5f610c42610c78565b509050336001600160a01b03821614610c7057604051636116401160e11b8152336004820152602401610654565b610602611170565b5f80516020611bb4833981519152546001600160a01b03811691600160a01b90910465ffffffffffff1690565b81610cc357604051631fe1e13d60e11b815260040160405180910390fd5b6107e48282611209565b5f610cd781610d03565b610602611225565b5f6001600160e01b031982166318a4c3c360e11b14806105ea57506105ea8261122f565b6106028133611263565b610d175f8061129c565b565b6040516001600160a01b038381166024830152604482018390526108a591859182169063a9059cbb906064015b604051602081830303815290604052915060e01b6020820180516001600160e01b038381831617835250505050611374565b6040516001600160a01b038481166024830152838116604483015260648201839052610db19186918216906323b872dd90608401610d46565b50505050565b610dc0826106d7565b610dc981610d03565b610db18383610e48565b6001600160a01b0381163314610dfc5760405163334bd91960e11b815260040160405180910390fd5b6108a582826113e0565b5f807ff0c57e16840df040f15088dc2f81fe391c3923bec73e23a9662efc9c229c6a006105ea565b610d17611437565b610e3e611437565b6107e4828261145c565b5f5f80516020611bb483398151915283610eaa575f610e65610af0565b6001600160a01b031614610e8c57604051631fe1e13d60e11b815260040160405180910390fd5b6001810180546001600160a01b0319166001600160a01b0385161790555b610eb484846114c2565b949350505050565b306001600160a01b037f0000000000000000000000000000000000000000000000000000000000000000161480610f4257507f00000000000000000000000000000000000000000000000000000000000000006001600160a01b0316610f365f80516020611b94833981519152546001600160a01b031690565b6001600160a01b031614155b15610d175760405163703e46dd60e11b815260040160405180910390fd5b7f189ab7a9244df0848122154315af71fe140f3db0fe014031783b0946b8c9d2e36107e481610d03565b816001600160a01b03166352d1902d6040518163ffffffff1660e01b8152600401602060405180830381865afa925050508015610fe4575060408051601f3d908101601f19168201909252610fe191810190611b0f565b60015b61100c57604051634c9c8ce360e01b81526001600160a01b0383166004820152602401610654565b5f80516020611b94833981519152811461103c57604051632a87526960e21b815260048101829052602401610654565b6108a5838361156a565b306001600160a01b037f00000000000000000000000000000000000000000000000000000000000000001614610d175760405163703e46dd60e11b815260040160405180910390fd5b5f611098610bbe565b6110a1426115bf565b6110ab9190611b3a565b90506110b782826115f5565b60405165ffffffffffff821681526001600160a01b038316907f3377dc44241e779dd06afab5b788a35ca5f3b778836e2990bdb26a2a4b2e5ed69060200160405180910390a25050565b5f61110b8261167f565b611114426115bf565b61111e9190611b3a565b905061112a828261129c565b6040805165ffffffffffff8085168252831660208201527ff1038c18cf84a56e432fdbfaf746924b7ea511dfe03a6506a0ceba4888788d9b910160405180910390a15050565b5f80516020611bb48339815191525f80611188610c78565b9150915061119d8165ffffffffffff16151590565b15806111b157504265ffffffffffff821610155b156111d9576040516319ca5ebb60e01b815265ffffffffffff82166004820152602401610654565b6111ea5f6111e5610af0565b6113e0565b506111f55f83610e48565b505081546001600160d01b03191690915550565b611212826106d7565b61121b81610d03565b610db183836113e0565b610d175f806115f5565b5f6001600160e01b03198216637965db0b60e01b14806105ea57506301ffc9a760e01b6001600160e01b03198316146105ea565b61126d8282610b19565b6107e45760405163e2517d3f60e01b81526001600160a01b038216600482015260248101839052604401610654565b5f80516020611bf4833981519152545f80516020611bb483398151915290600160d01b900465ffffffffffff168015611336574265ffffffffffff8216101561130d57600182015482546001600160d01b0316600160a01b90910465ffffffffffff16600160d01b02178255611336565b6040517f2b1fa2edafe6f7b9e97c1a9e0c3660e645beb2dcaa2d45bdbf9beaf5472e1ec5905f90a15b5060010180546001600160a01b0316600160a01b65ffffffffffff948516026001600160d01b031617600160d01b9290931691909102919091179055565b5f8060205f8451602086015f885af180611393576040513d5f823e3d81fd5b50505f513d915081156113aa5780600114156113b7565b6001600160a01b0384163b155b15610db157604051635274afe760e01b81526001600160a01b0385166004820152602401610654565b5f5f80516020611bb4833981519152831580156114155750611400610af0565b6001600160a01b0316836001600160a01b0316145b1561142d576001810180546001600160a01b03191690555b610eb484846116cd565b61143f611746565b610d1757604051631afcd79f60e31b815260040160405180910390fd5b611464611437565b5f80516020611bb48339815191526001600160a01b03821661149b57604051636116401160e11b81525f6004820152602401610654565b80546001600160d01b0316600160d01b65ffffffffffff851602178155610db15f83610e48565b5f5f80516020611bd48339815191526114db8484610b19565b61155a575f848152602082815260408083206001600160a01b03871684529091529020805460ff191660011790556115103390565b6001600160a01b0316836001600160a01b0316857f2f8788117e7eff1d82e926ec794901d17c78024a50270940304540a733656f0d60405160405180910390a460019150506105ea565b5f9150506105ea565b5092915050565b6115738261175f565b6040516001600160a01b038316907fbc7cd75a20ee27fd9adebab32041f755214dbc6bffa90cc0225b39da2e5c2d3b905f90a28051156115b7576108a582826117c2565b6107e4611834565b5f65ffffffffffff8211156115f1576040516306dfcc6560e41b81526030600482015260248101839052604401610654565b5090565b5f80516020611bb48339815191525f61160c610c78565b835465ffffffffffff8616600160a01b026001600160d01b03199091166001600160a01b03881617178455915061164c90508165ffffffffffff16151590565b15610db1576040517f8886ebfc4259abdbc16601dd8fb5678e54878f47b3c34836cfc51154a9605109905f90a150505050565b5f80611689610bbe565b90508065ffffffffffff168365ffffffffffff16116116b1576116ac8382611b59565b6116c6565b6116c665ffffffffffff841662069780611853565b9392505050565b5f5f80516020611bd48339815191526116e68484610b19565b1561155a575f848152602082815260408083206001600160a01b0387168085529252808320805460ff1916905551339287917ff6391f5c32d9c69d2a47ea670b442974b53935d1edc7fd64eb21e047a839171b9190a460019150506105ea565b5f61174f610e06565b54600160401b900460ff16919050565b806001600160a01b03163b5f0361179457604051634c9c8ce360e01b81526001600160a01b0382166004820152602401610654565b5f80516020611b9483398151915280546001600160a01b0319166001600160a01b0392909216919091179055565b60605f80846001600160a01b0316846040516117de9190611b78565b5f60405180830381855af49150503d805f8114611816576040519150601f19603f3d011682016040523d82523d5f602084013e61181b565b606091505b509150915061182b858383611862565b95945050505050565b3415610d175760405163b398979f60e01b815260040160405180910390fd5b5f8282188284100282186116c6565b606082611872576116ac826118b2565b815115801561188957506001600160a01b0384163b155b1561156357604051639996b31560e01b81526001600160a01b0385166004820152602401610654565b8051156118c157805160208201fd5b60405163d6bda27560e01b815260040160405180910390fd5b5f602082840312156118ea575f80fd5b81356001600160e01b0319811681146116c6575f80fd5b80356001600160a01b0381168114611917575f80fd5b919050565b5f806040838503121561192d575f80fd5b61193683611901565b946020939093013593505050565b5f60208284031215611954575f80fd5b5035919050565b5f806040838503121561196c575f80fd5b8235915061197c60208401611901565b90509250929050565b5f8060408385031215611996575f80fd5b61199f83611901565b915061197c60208401611901565b634e487b7160e01b5f52604160045260245ffd5b5f80604083850312156119d2575f80fd5b6119db83611901565b9150602083013567ffffffffffffffff808211156119f7575f80fd5b818501915085601f830112611a0a575f80fd5b813581811115611a1c57611a1c6119ad565b604051601f8201601f19908116603f01168101908382118183101715611a4457611a446119ad565b81604052828152886020848701011115611a5c575f80fd5b826020860160208301375f6020848301015280955050505050509250929050565b5f60208284031215611a8d575f80fd5b6116c682611901565b5f60208284031215611aa6575f80fd5b813565ffffffffffff811681146116c6575f80fd5b5f5b83811015611ad5578181015183820152602001611abd565b50505f910152565b602081525f8251806020840152611afb816040850160208701611abb565b601f01601f19169190910160400192915050565b5f60208284031215611b1f575f80fd5b5051919050565b634e487b7160e01b5f52601160045260245ffd5b65ffffffffffff81811683821601908082111561156357611563611b26565b65ffffffffffff82811682821603908082111561156357611563611b26565b5f8251611b89818460208701611abb565b919091019291505056fe360894a13ba1a3210667c828492db98dca3e2076cc3735a920a3ca505d382bbceef3dac4538c82c8ace4063ab0acd2d15cdb5883aa1dff7c2673abb3d869840002dd7bc7dec4dceedda775e58dd541e08a116c6c53815c0bd028192f7b626800eef3dac4538c82c8ace4063ab0acd2d15cdb5883aa1dff7c2673abb3d8698401a2646970667358221220ec1f99b5e60e88d679664a258ea4b5734f5edbb612d28fe50b16c417bd87a7fa64736f6c63430008170033","linkReferences":{}},"methodIdentifiers":{"DEFAULT_ADMIN_ROLE()":"a217fddf","RLC_TOKEN()":"b25dd572","TOKEN_BRIDGE_ROLE()":"a94ea30c","UPGRADER_ROLE()":"f72c0d8b","UPGRADE_INTERFACE_VERSION()":"ad3cb1cc","acceptDefaultAdminTransfer()":"cefc1429","beginDefaultAdminTransfer(address)":"634e93da","cancelDefaultAdminTransfer()":"d602b9fd","changeDefaultAdminDelay(uint48)":"649a5ec7","crosschainBurn(address,uint256)":"2b8c49e3","crosschainMint(address,uint256)":"18bf5077","decimals()":"313ce567","defaultAdmin()":"84ef8ffc","defaultAdminDelay()":"cc8463c8","defaultAdminDelayIncreaseWait()":"022d63fb","getRoleAdmin(bytes32)":"248a9ca3","grantRole(bytes32,address)":"2f2ff15d","hasRole(bytes32,address)":"91d14854","initialize(address,address)":"485cc955","initializeV2(uint256)":"5b4e128c","newStateVariable()":"36916c77","owner()":"8da5cb5b","pendingDefaultAdmin()":"cf6eefb7","pendingDefaultAdminDelay()":"a1eda53c","proxiableUUID()":"52d1902d","renounceRole(bytes32,address)":"36568abe","revokeRole(bytes32,address)":"d547741f","rollbackDefaultAdminDelay()":"0aa6220b","supportsInterface(bytes4)":"01ffc9a7","upgradeToAndCall(address,bytes)":"4f1ef286"},"storageLayout":{"storage":[{"astId":88400,"contract":"src/mocks/RLCLiquidityUnifierV2Mock.sol:RLCLiquidityUnifierV2","label":"newStateVariable","offset":0,"slot":"0","type":"t_uint256"}],"types":{"t_uint256":{"encoding":"inplace","label":"uint256","numberOfBytes":"32"}}},"id":196}